{
  "_format": "hh-sol-artifact-1",
  "contractName": "PairFlash",
  "sourceName": "contracts/examples/PairFlash.sol",
  "abi": [
    {
      "inputs": [
        {
          "internalType": "contract ISwapRouter",
          "name": "_swapRouter",
          "type": "address"
        },
        {
          "internalType": "address",
          "name": "_factory",
          "type": "address"
        },
        {
          "internalType": "address",
          "name": "_WETH9",
          "type": "address"
        }
      ],
      "stateMutability": "nonpayable",
      "type": "constructor"
    },
    {
      "inputs": [],
      "name": "WETH9",
      "outputs": [
        {
          "internalType": "address",
          "name": "",
          "type": "address"
        }
      ],
      "stateMutability": "view",
      "type": "function"
    },
    {
      "inputs": [],
      "name": "factory",
      "outputs": [
        {
          "internalType": "address",
          "name": "",
          "type": "address"
        }
      ],
      "stateMutability": "view",
      "type": "function"
    },
    {
      "inputs": [
        {
          "internalType": "uint256",
          "name": "fee0",
          "type": "uint256"
        },
        {
          "internalType": "uint256",
          "name": "fee1",
          "type": "uint256"
        },
        {
          "internalType": "bytes",
          "name": "data",
          "type": "bytes"
        }
      ],
      "name": "flashCallback",
      "outputs": [],
      "stateMutability": "nonpayable",
      "type": "function"
    },
    {
      "inputs": [
        {
          "components": [
            {
              "internalType": "address",
              "name": "token0",
              "type": "address"
            },
            {
              "internalType": "address",
              "name": "token1",
              "type": "address"
            },
            {
              "internalType": "uint24",
              "name": "fee1",
              "type": "uint24"
            },
            {
              "internalType": "uint256",
              "name": "amount0",
              "type": "uint256"
            },
            {
              "internalType": "uint256",
              "name": "amount1",
              "type": "uint256"
            },
            {
              "internalType": "uint24",
              "name": "fee2",
              "type": "uint24"
            },
            {
              "internalType": "uint24",
              "name": "fee3",
              "type": "uint24"
            }
          ],
          "internalType": "struct PairFlash.FlashParams",
          "name": "params",
          "type": "tuple"
        }
      ],
      "name": "initFlash",
      "outputs": [],
      "stateMutability": "nonpayable",
      "type": "function"
    },
    {
      "inputs": [],
      "name": "refundETH",
      "outputs": [],
      "stateMutability": "payable",
      "type": "function"
    },
    {
      "inputs": [],
      "name": "swapRouter",
      "outputs": [
        {
          "internalType": "contract ISwapRouter",
          "name": "",
          "type": "address"
        }
      ],
      "stateMutability": "view",
      "type": "function"
    },
    {
      "inputs": [
        {
          "internalType": "address",
          "name": "token",
          "type": "address"
        },
        {
          "internalType": "uint256",
          "name": "amountMinimum",
          "type": "uint256"
        },
        {
          "internalType": "address",
          "name": "recipient",
          "type": "address"
        }
      ],
      "name": "sweepToken",
      "outputs": [],
      "stateMutability": "payable",
      "type": "function"
    },
    {
      "inputs": [
        {
          "internalType": "uint256",
          "name": "amountMinimum",
          "type": "uint256"
        },
        {
          "internalType": "address",
          "name": "recipient",
          "type": "address"
        }
      ],
      "name": "unwrapWETH9",
      "outputs": [],
      "stateMutability": "payable",
      "type": "function"
    },
    {
      "stateMutability": "payable",
      "type": "receive"
    }
  ],
  "bytecode": "0x60a06040523480156200001157600080fd5b50604051620015e9380380620015e9833981016040819052620000349162000169565b62000040828262000058565b505060601b6001600160601b031916608052620001d5565b600054610100900460ff16806200007457506200007462000145565b8062000083575060005460ff16155b620000c05760405162461bcd60e51b815260040180806020018281038252602e815260200180620015bb602e913960400191505060405180910390fd5b600054610100900460ff16158015620000ec576000805460ff1961ff0019909116610100171660011790555b6000805462010000600160b01b031916620100006001600160a01b038681169190910291909117909155600180546001600160a01b031916918416919091179055801562000140576000805461ff00191690555b505050565b60006200015d306200016360201b6200087d1760201c565b15905090565b3b151590565b6000806000606084860312156200017e578283fd5b83516200018b81620001bc565b60208501519093506200019e81620001bc565b6040850151909250620001b181620001bc565b809150509250925092565b6001600160a01b0381168114620001d257600080fd5b50565b60805160601c6113b4620002076000398061043d52806104c952806104f65280610605528061068d52506113b46000f3fe60806040526004361061007f5760003560e01c8063c31c9c071161004e578063c31c9c071461013c578063c3924ed614610151578063c45a015514610171578063df2ab5bb14610186576100d1565b806312210e8a146100d65780632384463b146100de57806349404b7c146100fe5780634aa4a4fc14610111576100d1565b366100d1576001546001600160a01b031633146100cf576040805162461bcd60e51b81526020600482015260096024820152684e6f7420574554483960b81b604482015290519081900360640190fd5b005b600080fd5b6100cf610199565b3480156100ea57600080fd5b506100cf6100f93660046110d8565b6101ab565b6100cf61010c36600461118b565b6102ef565b34801561011d57600080fd5b5061012661042c565b604051610133919061123a565b60405180910390f35b34801561014857600080fd5b5061012661043b565b34801561015d57600080fd5b506100cf61016c3660046111b6565b61045f565b34801561017d57600080fd5b5061012661078a565b6100cf610194366004610fbf565b61079f565b47156101a9576101a93347610887565b565b6000604051806060016040528083600001516001600160a01b0316815260200183602001516001600160a01b03168152602001836040015162ffffff168152509050600061020e600060029054906101000a90046001600160a01b031683610976565b9050806001600160a01b031663490e6cbc30856060015186608001516040518060c001604052808960600151815260200189608001518152602001336001600160a01b031681526020018881526020018960a0015162ffffff1681526020018960c0015162ffffff1681525060405160200161028a9190611328565b6040516020818303038152906040526040518563ffffffff1660e01b81526004016102b8949392919061124e565b600060405180830381600087803b1580156102d257600080fd5b505af11580156102e6573d6000803e3d6000fd5b50505050505050565b600154604080516370a0823160e01b815230600482015290516000926001600160a01b0316916370a08231916024808301926020929190829003018186803b15801561033a57600080fd5b505afa15801561034e573d6000803e3d6000fd5b505050506040513d602081101561036457600080fd5b50519050828110156103b2576040805162461bcd60e51b8152602060048201526012602482015271496e73756666696369656e7420574554483960701b604482015290519081900360640190fd5b80156104275760015460408051632e1a7d4d60e01b81526004810184905290516001600160a01b0390921691632e1a7d4d9160248082019260009290919082900301818387803b15801561040557600080fd5b505af1158015610419573d6000803e3d6000fd5b505050506104278282610887565b505050565b6001546001600160a01b031681565b7f000000000000000000000000000000000000000000000000000000000000000081565b600061046d82840184610ffa565b9050610492600060029054906101000a90046001600160a01b03168260600151610a37565b506060810151805160209091015182516000906104af9089610a5a565b905060006104c1856020015189610a5a565b90506104f2837f00000000000000000000000000000000000000000000000000000000000000008760200151610a6a565b60007f00000000000000000000000000000000000000000000000000000000000000006001600160a01b031663414bf389604051806101000160405280876001600160a01b03168152602001886001600160a01b03168152602001896080015162ffffff168152602001306001600160a01b031681526020014281526020018960200151815260200186815260200160006001600160a01b03168152506040518263ffffffff1660e01b81526004016105ab91906112bf565b602060405180830381600087803b1580156105c557600080fd5b505af11580156105d9573d6000803e3d6000fd5b505050506040513d601f19601f820116820180604052508101906105fd9190611173565b905061062e857f00000000000000000000000000000000000000000000000000000000000000008860000151610a6a565b60408051610100810182526001600160a01b038781168252868116602083015260a08981015162ffffff168385015230606084015242608084015289519083015260c08201859052600060e08301819052925163414bf38960e01b81527f00000000000000000000000000000000000000000000000000000000000000009091169163414bf389916106c391906004016112bf565b602060405180830381600087803b1580156106dd57600080fd5b505af11580156106f1573d6000803e3d6000fd5b505050506040513d601f19601f820116820180604052508101906107159190611173565b905083156107295761072986303387610bb8565b821561073b5761073b85303386610bb8565b8382111561075c576000848303905061075a87308a6040015184610bb8565b505b8281111561077d576000838203905061077b86308a6040015184610bb8565b505b5050505050505050505050565b6000546201000090046001600160a01b031681565b6000836001600160a01b03166370a08231306040518263ffffffff1660e01b815260040180826001600160a01b0316815260200191505060206040518083038186803b1580156107ee57600080fd5b505afa158015610802573d6000803e3d6000fd5b505050506040513d602081101561081857600080fd5b5051905082811015610866576040805162461bcd60e51b815260206004820152601260248201527124b739bab33334b1b4b2b73a103a37b5b2b760711b604482015290519081900360640190fd5b801561087757610877848383610cf6565b50505050565b803b15155b919050565b604080516000808252602082019092526001600160a01b0384169083906040518082805190602001908083835b602083106108d35780518252601f1990920191602091820191016108b4565b6001836020036101000a03801982511681845116808217855250505050505090500191505060006040518083038185875af1925050503d8060008114610935576040519150601f19603f3d011682016040523d82523d6000602084013e61093a565b606091505b5050905080610427576040805162461bcd60e51b815260206004820152600360248201526253544560e81b604482015290519081900360640190fd5b600081602001516001600160a01b031682600001516001600160a01b03161061099e57600080fd5b81516020808401516040808601518151630b4c774160e11b81526001600160a01b039586166004820152928516602484015262ffffff1660448301525192861692631698ee8292606480840193919291829003018186803b158015610a0257600080fd5b505afa158015610a16573d6000803e3d6000fd5b505050506040513d6020811015610a2c57600080fd5b505190505b92915050565b6000610a438383610976565b9050336001600160a01b03821614610a3157600080fd5b80820182811015610a3157600080fd5b604080516001600160a01b038481166024830152604480830185905283518084039091018152606490920183526020820180516001600160e01b031663095ea7b360e01b1781529251825160009485949389169392918291908083835b60208310610ae65780518252601f199092019160209182019101610ac7565b6001836020036101000a0380198251168184511680821785525050505050509050019150506000604051808303816000865af19150503d8060008114610b48576040519150601f19603f3d011682016040523d82523d6000602084013e610b4d565b606091505b5091509150818015610b7b575080511580610b7b5750808060200190516020811015610b7857600080fd5b50515b610bb1576040805162461bcd60e51b8152602060048201526002602482015261534160f01b604482015290519081900360640190fd5b5050505050565b6001546001600160a01b038581169116148015610bd55750804710155b15610cc957600160009054906101000a90046001600160a01b03166001600160a01b031663d0e30db0826040518263ffffffff1660e01b81526004016000604051808303818588803b158015610c2a57600080fd5b505af1158015610c3e573d6000803e3d6000fd5b50506001546040805163a9059cbb60e01b81526001600160a01b03888116600483015260248201889052915191909216945063a9059cbb9350604480830193506020928290030181600087803b158015610c9757600080fd5b505af1158015610cab573d6000803e3d6000fd5b505050506040513d6020811015610cc157600080fd5b506108779050565b6001600160a01b038316301415610cea57610ce5848383610cf6565b610877565b61087784848484610e3d565b604080516001600160a01b038481166024830152604480830185905283518084039091018152606490920183526020820180516001600160e01b031663a9059cbb60e01b1781529251825160009485949389169392918291908083835b60208310610d725780518252601f199092019160209182019101610d53565b6001836020036101000a0380198251168184511680821785525050505050509050019150506000604051808303816000865af19150503d8060008114610dd4576040519150601f19603f3d011682016040523d82523d6000602084013e610dd9565b606091505b5091509150818015610e07575080511580610e075750808060200190516020811015610e0457600080fd5b50515b610bb1576040805162461bcd60e51b815260206004820152600260248201526114d560f21b604482015290519081900360640190fd5b604080516001600160a01b0385811660248301528481166044830152606480830185905283518084039091018152608490920183526020820180516001600160e01b03166323b872dd60e01b178152925182516000948594938a169392918291908083835b60208310610ec15780518252601f199092019160209182019101610ea2565b6001836020036101000a0380198251168184511680821785525050505050509050019150506000604051808303816000865af19150503d8060008114610f23576040519150601f19603f3d011682016040523d82523d6000602084013e610f28565b606091505b5091509150818015610f56575080511580610f565750808060200190516020811015610f5357600080fd5b50515b610f8d576040805162461bcd60e51b815260206004820152600360248201526229aa2360e91b604482015290519081900360640190fd5b505050505050565b80356001600160a01b038116811461088257600080fd5b803562ffffff8116811461088257600080fd5b600080600060608486031215610fd3578283fd5b610fdc84610f95565b925060208401359150610ff160408501610f95565b90509250925092565b600081830361010081121561100d578182fd5b6040805160c0810167ffffffffffffffff828210818311171561102c57fe5b8184528635835260208701356020840152611048848801610f95565b838501526060605f198601121561105d578586fd5b83519450606085019150848210818311171561107557fe5b50825261108460608601610f95565b835261109260808601610f95565b60208401526110a360a08601610fac565b828401528260608201526110b960c08601610fac565b60808201526110ca60e08601610fac565b60a082015295945050505050565b600060e082840312156110e9578081fd5b60405160e0810181811067ffffffffffffffff8211171561110657fe5b60405261111283610f95565b815261112060208401610f95565b602082015261113160408401610fac565b6040820152606083013560608201526080830135608082015261115660a08401610fac565b60a082015261116760c08401610fac565b60c08201529392505050565b600060208284031215611184578081fd5b5051919050565b6000806040838503121561119d578182fd5b823591506111ad60208401610f95565b90509250929050565b600080600080606085870312156111cb578081fd5b8435935060208501359250604085013567ffffffffffffffff808211156111f0578283fd5b818701915087601f830112611203578283fd5b813581811115611211578384fd5b886020828501011115611222578384fd5b95989497505060200194505050565b62ffffff169052565b6001600160a01b0391909116815260200190565b600060018060a01b038616825260208581840152846040840152608060608401528351806080850152825b818110156112955785810183015185820160a001528201611279565b818111156112a6578360a083870101525b50601f01601f19169290920160a0019695505050505050565b81516001600160a01b03908116825260208084015182169083015260408084015162ffffff16908301526060808401518216908301526080808401519083015260a0838101519083015260c0808401519083015260e09283015116918101919091526101000190565b81518152602080830151818301526040808401516001600160a01b03908116828501526060808601518051831691860191909152928301511660808085019190915291015162ffffff1660a083015282015161010082019061138d60c0840182611231565b5060a08301516113a060e0840182611231565b509291505056fea164736f6c6343000706000a496e697469616c697a61626c653a20636f6e747261637420697320616c726561647920696e697469616c697a6564",
  "linkReferences": {},
  "deployedLinkReferences": {}
}