{
  "_format": "hh-sol-artifact-1",
  "contractName": "PoolAddressTest",
  "sourceName": "contracts/test/PoolAddressTest.sol",
  "abi": [
    {
      "inputs": [
        {
          "internalType": "address",
          "name": "factory",
          "type": "address"
        },
        {
          "internalType": "address",
          "name": "token0",
          "type": "address"
        },
        {
          "internalType": "address",
          "name": "token1",
          "type": "address"
        },
        {
          "internalType": "uint24",
          "name": "fee",
          "type": "uint24"
        }
      ],
      "name": "computeAddress",
      "outputs": [
        {
          "internalType": "address",
          "name": "",
          "type": "address"
        }
      ],
      "stateMutability": "view",
      "type": "function"
    },
    {
      "inputs": [
        {
          "internalType": "address",
          "name": "factory",
          "type": "address"
        },
        {
          "internalType": "address",
          "name": "token0",
          "type": "address"
        },
        {
          "internalType": "address",
          "name": "token1",
          "type": "address"
        },
        {
          "internalType": "uint24",
          "name": "fee",
          "type": "uint24"
        }
      ],
      "name": "getGasCostOfComputeAddress",
      "outputs": [
        {
          "internalType": "uint256",
          "name": "",
          "type": "uint256"
        }
      ],
      "stateMutability": "view",
      "type": "function"
    }
  ],
  "bytecode": "0x608060405234801561001057600080fd5b5061024d806100206000396000f3fe608060405234801561001057600080fd5b50600436106100365760003560e01c80638716c5ff1461003b578063cce34ec614610099575b600080fd5b61007d6004803603608081101561005157600080fd5b5080356001600160a01b03908116916020810135821691604082013516906060013562ffffff166100ed565b604080516001600160a01b039092168252519081900360200190f35b6100db600480360360808110156100af57600080fd5b5080356001600160a01b03908116916020810135821691604082013516906060013562ffffff16610133565b60408051918252519081900360200190f35b600061012a856040518060600160405280876001600160a01b03168152602001866001600160a01b031681526020018562ffffff16815250610181565b95945050505050565b6000805a9050610174866040518060600160405280886001600160a01b03168152602001876001600160a01b031681526020018662ffffff16815250610181565b505a900395945050505050565b600081602001516001600160a01b031682600001516001600160a01b0316106101a957600080fd5b81516020808401516040808601518151630b4c774160e11b81526001600160a01b039586166004820152928516602484015262ffffff1660448301525192861692631698ee8292606480840193919291829003018186803b15801561020d57600080fd5b505afa158015610221573d6000803e3d6000fd5b505050506040513d602081101561023757600080fd5b5051939250505056fea164736f6c6343000706000a",
  "linkReferences": {},
  "deployedLinkReferences": {}
}