{
  "_format": "hh-sol-artifact-1",
  "contractName": "MockTimeNonfungiblePositionManager",
  "sourceName": "contracts/test/MockTimeNonfungiblePositionManager.sol",
  "abi": [
    {
      "inputs": [
        {
          "internalType": "address",
          "name": "_factory",
          "type": "address"
        },
        {
          "internalType": "address",
          "name": "_WETH9",
          "type": "address"
        },
        {
          "internalType": "address",
          "name": "_tokenDescriptor",
          "type": "address"
        }
      ],
      "stateMutability": "nonpayable",
      "type": "constructor"
    },
    {
      "anonymous": false,
      "inputs": [
        {
          "indexed": true,
          "internalType": "address",
          "name": "owner",
          "type": "address"
        },
        {
          "indexed": true,
          "internalType": "address",
          "name": "approved",
          "type": "address"
        },
        {
          "indexed": true,
          "internalType": "uint256",
          "name": "tokenId",
          "type": "uint256"
        }
      ],
      "name": "Approval",
      "type": "event"
    },
    {
      "anonymous": false,
      "inputs": [
        {
          "indexed": true,
          "internalType": "address",
          "name": "owner",
          "type": "address"
        },
        {
          "indexed": true,
          "internalType": "address",
          "name": "operator",
          "type": "address"
        },
        {
          "indexed": false,
          "internalType": "bool",
          "name": "approved",
          "type": "bool"
        }
      ],
      "name": "ApprovalForAll",
      "type": "event"
    },
    {
      "anonymous": false,
      "inputs": [
        {
          "indexed": true,
          "internalType": "uint256",
          "name": "tokenId",
          "type": "uint256"
        },
        {
          "indexed": false,
          "internalType": "address",
          "name": "recipient",
          "type": "address"
        },
        {
          "indexed": false,
          "internalType": "uint256",
          "name": "amount0",
          "type": "uint256"
        },
        {
          "indexed": false,
          "internalType": "uint256",
          "name": "amount1",
          "type": "uint256"
        }
      ],
      "name": "Collect",
      "type": "event"
    },
    {
      "anonymous": false,
      "inputs": [
        {
          "indexed": true,
          "internalType": "uint256",
          "name": "tokenId",
          "type": "uint256"
        },
        {
          "indexed": false,
          "internalType": "uint128",
          "name": "liquidity",
          "type": "uint128"
        },
        {
          "indexed": false,
          "internalType": "uint256",
          "name": "amount0",
          "type": "uint256"
        },
        {
          "indexed": false,
          "internalType": "uint256",
          "name": "amount1",
          "type": "uint256"
        }
      ],
      "name": "DecreaseLiquidity",
      "type": "event"
    },
    {
      "anonymous": false,
      "inputs": [
        {
          "indexed": true,
          "internalType": "uint256",
          "name": "tokenId",
          "type": "uint256"
        },
        {
          "indexed": false,
          "internalType": "uint128",
          "name": "liquidity",
          "type": "uint128"
        },
        {
          "indexed": false,
          "internalType": "uint256",
          "name": "amount0",
          "type": "uint256"
        },
        {
          "indexed": false,
          "internalType": "uint256",
          "name": "amount1",
          "type": "uint256"
        }
      ],
      "name": "IncreaseLiquidity",
      "type": "event"
    },
    {
      "anonymous": false,
      "inputs": [
        {
          "indexed": true,
          "internalType": "address",
          "name": "from",
          "type": "address"
        },
        {
          "indexed": true,
          "internalType": "address",
          "name": "to",
          "type": "address"
        },
        {
          "indexed": true,
          "internalType": "uint256",
          "name": "tokenId",
          "type": "uint256"
        }
      ],
      "name": "Transfer",
      "type": "event"
    },
    {
      "inputs": [],
      "name": "DOMAIN_SEPARATOR",
      "outputs": [
        {
          "internalType": "bytes32",
          "name": "",
          "type": "bytes32"
        }
      ],
      "stateMutability": "view",
      "type": "function"
    },
    {
      "inputs": [],
      "name": "PERMIT_TYPEHASH",
      "outputs": [
        {
          "internalType": "bytes32",
          "name": "",
          "type": "bytes32"
        }
      ],
      "stateMutability": "view",
      "type": "function"
    },
    {
      "inputs": [],
      "name": "WETH9",
      "outputs": [
        {
          "internalType": "address",
          "name": "",
          "type": "address"
        }
      ],
      "stateMutability": "view",
      "type": "function"
    },
    {
      "inputs": [
        {
          "internalType": "address",
          "name": "to",
          "type": "address"
        },
        {
          "internalType": "uint256",
          "name": "tokenId",
          "type": "uint256"
        }
      ],
      "name": "approve",
      "outputs": [],
      "stateMutability": "nonpayable",
      "type": "function"
    },
    {
      "inputs": [
        {
          "internalType": "address",
          "name": "owner",
          "type": "address"
        }
      ],
      "name": "balanceOf",
      "outputs": [
        {
          "internalType": "uint256",
          "name": "",
          "type": "uint256"
        }
      ],
      "stateMutability": "view",
      "type": "function"
    },
    {
      "inputs": [],
      "name": "baseURI",
      "outputs": [
        {
          "internalType": "string",
          "name": "",
          "type": "string"
        }
      ],
      "stateMutability": "pure",
      "type": "function"
    },
    {
      "inputs": [
        {
          "internalType": "uint256",
          "name": "tokenId",
          "type": "uint256"
        }
      ],
      "name": "burn",
      "outputs": [],
      "stateMutability": "payable",
      "type": "function"
    },
    {
      "inputs": [
        {
          "components": [
            {
              "internalType": "uint256",
              "name": "tokenId",
              "type": "uint256"
            },
            {
              "internalType": "address",
              "name": "recipient",
              "type": "address"
            },
            {
              "internalType": "uint128",
              "name": "amount0Max",
              "type": "uint128"
            },
            {
              "internalType": "uint128",
              "name": "amount1Max",
              "type": "uint128"
            }
          ],
          "internalType": "struct INonfungiblePositionManager.CollectParams",
          "name": "params",
          "type": "tuple"
        }
      ],
      "name": "collect",
      "outputs": [
        {
          "internalType": "uint256",
          "name": "amount0",
          "type": "uint256"
        },
        {
          "internalType": "uint256",
          "name": "amount1",
          "type": "uint256"
        }
      ],
      "stateMutability": "payable",
      "type": "function"
    },
    {
      "inputs": [
        {
          "internalType": "address",
          "name": "token0",
          "type": "address"
        },
        {
          "internalType": "address",
          "name": "token1",
          "type": "address"
        },
        {
          "internalType": "uint24",
          "name": "fee",
          "type": "uint24"
        },
        {
          "internalType": "uint160",
          "name": "sqrtPriceX96",
          "type": "uint160"
        }
      ],
      "name": "createAndInitializePoolIfNecessary",
      "outputs": [
        {
          "internalType": "address",
          "name": "pool",
          "type": "address"
        }
      ],
      "stateMutability": "payable",
      "type": "function"
    },
    {
      "inputs": [
        {
          "components": [
            {
              "internalType": "uint256",
              "name": "tokenId",
              "type": "uint256"
            },
            {
              "internalType": "uint128",
              "name": "liquidity",
              "type": "uint128"
            },
            {
              "internalType": "uint256",
              "name": "amount0Min",
              "type": "uint256"
            },
            {
              "internalType": "uint256",
              "name": "amount1Min",
              "type": "uint256"
            },
            {
              "internalType": "uint256",
              "name": "deadline",
              "type": "uint256"
            }
          ],
          "internalType": "struct INonfungiblePositionManager.DecreaseLiquidityParams",
          "name": "params",
          "type": "tuple"
        }
      ],
      "name": "decreaseLiquidity",
      "outputs": [
        {
          "internalType": "uint256",
          "name": "amount0",
          "type": "uint256"
        },
        {
          "internalType": "uint256",
          "name": "amount1",
          "type": "uint256"
        }
      ],
      "stateMutability": "payable",
      "type": "function"
    },
    {
      "inputs": [],
      "name": "factory",
      "outputs": [
        {
          "internalType": "address",
          "name": "",
          "type": "address"
        }
      ],
      "stateMutability": "view",
      "type": "function"
    },
    {
      "inputs": [
        {
          "internalType": "uint256",
          "name": "tokenId",
          "type": "uint256"
        }
      ],
      "name": "getApproved",
      "outputs": [
        {
          "internalType": "address",
          "name": "",
          "type": "address"
        }
      ],
      "stateMutability": "view",
      "type": "function"
    },
    {
      "inputs": [
        {
          "components": [
            {
              "internalType": "uint256",
              "name": "tokenId",
              "type": "uint256"
            },
            {
              "internalType": "uint256",
              "name": "amount0Desired",
              "type": "uint256"
            },
            {
              "internalType": "uint256",
              "name": "amount1Desired",
              "type": "uint256"
            },
            {
              "internalType": "uint256",
              "name": "amount0Min",
              "type": "uint256"
            },
            {
              "internalType": "uint256",
              "name": "amount1Min",
              "type": "uint256"
            },
            {
              "internalType": "uint256",
              "name": "deadline",
              "type": "uint256"
            }
          ],
          "internalType": "struct INonfungiblePositionManager.IncreaseLiquidityParams",
          "name": "params",
          "type": "tuple"
        }
      ],
      "name": "increaseLiquidity",
      "outputs": [
        {
          "internalType": "uint128",
          "name": "liquidity",
          "type": "uint128"
        },
        {
          "internalType": "uint256",
          "name": "amount0",
          "type": "uint256"
        },
        {
          "internalType": "uint256",
          "name": "amount1",
          "type": "uint256"
        }
      ],
      "stateMutability": "payable",
      "type": "function"
    },
    {
      "inputs": [
        {
          "internalType": "address",
          "name": "_factory",
          "type": "address"
        },
        {
          "internalType": "address",
          "name": "_WETH9",
          "type": "address"
        },
        {
          "internalType": "address",
          "name": "_tokenDescriptor_",
          "type": "address"
        }
      ],
      "name": "initialize",
      "outputs": [],
      "stateMutability": "nonpayable",
      "type": "function"
    },
    {
      "inputs": [
        {
          "internalType": "address",
          "name": "owner",
          "type": "address"
        },
        {
          "internalType": "address",
          "name": "operator",
          "type": "address"
        }
      ],
      "name": "isApprovedForAll",
      "outputs": [
        {
          "internalType": "bool",
          "name": "",
          "type": "bool"
        }
      ],
      "stateMutability": "view",
      "type": "function"
    },
    {
      "inputs": [
        {
          "components": [
            {
              "internalType": "address",
              "name": "token0",
              "type": "address"
            },
            {
              "internalType": "address",
              "name": "token1",
              "type": "address"
            },
            {
              "internalType": "uint24",
              "name": "fee",
              "type": "uint24"
            },
            {
              "internalType": "int24",
              "name": "tickLower",
              "type": "int24"
            },
            {
              "internalType": "int24",
              "name": "tickUpper",
              "type": "int24"
            },
            {
              "internalType": "uint256",
              "name": "amount0Desired",
              "type": "uint256"
            },
            {
              "internalType": "uint256",
              "name": "amount1Desired",
              "type": "uint256"
            },
            {
              "internalType": "uint256",
              "name": "amount0Min",
              "type": "uint256"
            },
            {
              "internalType": "uint256",
              "name": "amount1Min",
              "type": "uint256"
            },
            {
              "internalType": "address",
              "name": "recipient",
              "type": "address"
            },
            {
              "internalType": "uint256",
              "name": "deadline",
              "type": "uint256"
            }
          ],
          "internalType": "struct INonfungiblePositionManager.MintParams",
          "name": "params",
          "type": "tuple"
        }
      ],
      "name": "mint",
      "outputs": [
        {
          "internalType": "uint256",
          "name": "tokenId",
          "type": "uint256"
        },
        {
          "internalType": "uint128",
          "name": "liquidity",
          "type": "uint128"
        },
        {
          "internalType": "uint256",
          "name": "amount0",
          "type": "uint256"
        },
        {
          "internalType": "uint256",
          "name": "amount1",
          "type": "uint256"
        }
      ],
      "stateMutability": "payable",
      "type": "function"
    },
    {
      "inputs": [
        {
          "internalType": "uint256",
          "name": "amount0Owed",
          "type": "uint256"
        },
        {
          "internalType": "uint256",
          "name": "amount1Owed",
          "type": "uint256"
        },
        {
          "internalType": "bytes",
          "name": "data",
          "type": "bytes"
        }
      ],
      "name": "mintCallback",
      "outputs": [],
      "stateMutability": "nonpayable",
      "type": "function"
    },
    {
      "inputs": [
        {
          "internalType": "bytes[]",
          "name": "data",
          "type": "bytes[]"
        }
      ],
      "name": "multicall",
      "outputs": [
        {
          "internalType": "bytes[]",
          "name": "results",
          "type": "bytes[]"
        }
      ],
      "stateMutability": "payable",
      "type": "function"
    },
    {
      "inputs": [],
      "name": "name",
      "outputs": [
        {
          "internalType": "string",
          "name": "",
          "type": "string"
        }
      ],
      "stateMutability": "view",
      "type": "function"
    },
    {
      "inputs": [
        {
          "internalType": "uint256",
          "name": "tokenId",
          "type": "uint256"
        }
      ],
      "name": "ownerOf",
      "outputs": [
        {
          "internalType": "address",
          "name": "",
          "type": "address"
        }
      ],
      "stateMutability": "view",
      "type": "function"
    },
    {
      "inputs": [
        {
          "internalType": "address",
          "name": "spender",
          "type": "address"
        },
        {
          "internalType": "uint256",
          "name": "tokenId",
          "type": "uint256"
        },
        {
          "internalType": "uint256",
          "name": "deadline",
          "type": "uint256"
        },
        {
          "internalType": "uint8",
          "name": "v",
          "type": "uint8"
        },
        {
          "internalType": "bytes32",
          "name": "r",
          "type": "bytes32"
        },
        {
          "internalType": "bytes32",
          "name": "s",
          "type": "bytes32"
        }
      ],
      "name": "permit",
      "outputs": [],
      "stateMutability": "payable",
      "type": "function"
    },
    {
      "inputs": [
        {
          "internalType": "uint256",
          "name": "tokenId",
          "type": "uint256"
        }
      ],
      "name": "positions",
      "outputs": [
        {
          "internalType": "uint96",
          "name": "nonce",
          "type": "uint96"
        },
        {
          "internalType": "address",
          "name": "operator",
          "type": "address"
        },
        {
          "internalType": "address",
          "name": "token0",
          "type": "address"
        },
        {
          "internalType": "address",
          "name": "token1",
          "type": "address"
        },
        {
          "internalType": "uint24",
          "name": "fee",
          "type": "uint24"
        },
        {
          "internalType": "int24",
          "name": "tickLower",
          "type": "int24"
        },
        {
          "internalType": "int24",
          "name": "tickUpper",
          "type": "int24"
        },
        {
          "internalType": "uint128",
          "name": "liquidity",
          "type": "uint128"
        },
        {
          "internalType": "uint256",
          "name": "feeGrowthInside0LastX128",
          "type": "uint256"
        },
        {
          "internalType": "uint256",
          "name": "feeGrowthInside1LastX128",
          "type": "uint256"
        },
        {
          "internalType": "uint128",
          "name": "tokensOwed0",
          "type": "uint128"
        },
        {
          "internalType": "uint128",
          "name": "tokensOwed1",
          "type": "uint128"
        }
      ],
      "stateMutability": "view",
      "type": "function"
    },
    {
      "inputs": [],
      "name": "refundETH",
      "outputs": [],
      "stateMutability": "payable",
      "type": "function"
    },
    {
      "inputs": [
        {
          "internalType": "address",
          "name": "from",
          "type": "address"
        },
        {
          "internalType": "address",
          "name": "to",
          "type": "address"
        },
        {
          "internalType": "uint256",
          "name": "tokenId",
          "type": "uint256"
        }
      ],
      "name": "safeTransferFrom",
      "outputs": [],
      "stateMutability": "nonpayable",
      "type": "function"
    },
    {
      "inputs": [
        {
          "internalType": "address",
          "name": "from",
          "type": "address"
        },
        {
          "internalType": "address",
          "name": "to",
          "type": "address"
        },
        {
          "internalType": "uint256",
          "name": "tokenId",
          "type": "uint256"
        },
        {
          "internalType": "bytes",
          "name": "_data",
          "type": "bytes"
        }
      ],
      "name": "safeTransferFrom",
      "outputs": [],
      "stateMutability": "nonpayable",
      "type": "function"
    },
    {
      "inputs": [
        {
          "internalType": "address",
          "name": "token",
          "type": "address"
        },
        {
          "internalType": "uint256",
          "name": "value",
          "type": "uint256"
        },
        {
          "internalType": "uint256",
          "name": "deadline",
          "type": "uint256"
        },
        {
          "internalType": "uint8",
          "name": "v",
          "type": "uint8"
        },
        {
          "internalType": "bytes32",
          "name": "r",
          "type": "bytes32"
        },
        {
          "internalType": "bytes32",
          "name": "s",
          "type": "bytes32"
        }
      ],
      "name": "selfPermit",
      "outputs": [],
      "stateMutability": "payable",
      "type": "function"
    },
    {
      "inputs": [
        {
          "internalType": "address",
          "name": "token",
          "type": "address"
        },
        {
          "internalType": "uint256",
          "name": "nonce",
          "type": "uint256"
        },
        {
          "internalType": "uint256",
          "name": "expiry",
          "type": "uint256"
        },
        {
          "internalType": "uint8",
          "name": "v",
          "type": "uint8"
        },
        {
          "internalType": "bytes32",
          "name": "r",
          "type": "bytes32"
        },
        {
          "internalType": "bytes32",
          "name": "s",
          "type": "bytes32"
        }
      ],
      "name": "selfPermitAllowed",
      "outputs": [],
      "stateMutability": "payable",
      "type": "function"
    },
    {
      "inputs": [
        {
          "internalType": "address",
          "name": "token",
          "type": "address"
        },
        {
          "internalType": "uint256",
          "name": "nonce",
          "type": "uint256"
        },
        {
          "internalType": "uint256",
          "name": "expiry",
          "type": "uint256"
        },
        {
          "internalType": "uint8",
          "name": "v",
          "type": "uint8"
        },
        {
          "internalType": "bytes32",
          "name": "r",
          "type": "bytes32"
        },
        {
          "internalType": "bytes32",
          "name": "s",
          "type": "bytes32"
        }
      ],
      "name": "selfPermitAllowedIfNecessary",
      "outputs": [],
      "stateMutability": "payable",
      "type": "function"
    },
    {
      "inputs": [
        {
          "internalType": "address",
          "name": "token",
          "type": "address"
        },
        {
          "internalType": "uint256",
          "name": "value",
          "type": "uint256"
        },
        {
          "internalType": "uint256",
          "name": "deadline",
          "type": "uint256"
        },
        {
          "internalType": "uint8",
          "name": "v",
          "type": "uint8"
        },
        {
          "internalType": "bytes32",
          "name": "r",
          "type": "bytes32"
        },
        {
          "internalType": "bytes32",
          "name": "s",
          "type": "bytes32"
        }
      ],
      "name": "selfPermitIfNecessary",
      "outputs": [],
      "stateMutability": "payable",
      "type": "function"
    },
    {
      "inputs": [
        {
          "internalType": "address",
          "name": "operator",
          "type": "address"
        },
        {
          "internalType": "bool",
          "name": "approved",
          "type": "bool"
        }
      ],
      "name": "setApprovalForAll",
      "outputs": [],
      "stateMutability": "nonpayable",
      "type": "function"
    },
    {
      "inputs": [
        {
          "internalType": "uint256",
          "name": "_time",
          "type": "uint256"
        }
      ],
      "name": "setTime",
      "outputs": [],
      "stateMutability": "nonpayable",
      "type": "function"
    },
    {
      "inputs": [
        {
          "internalType": "bytes4",
          "name": "interfaceId",
          "type": "bytes4"
        }
      ],
      "name": "supportsInterface",
      "outputs": [
        {
          "internalType": "bool",
          "name": "",
          "type": "bool"
        }
      ],
      "stateMutability": "view",
      "type": "function"
    },
    {
      "inputs": [
        {
          "internalType": "address",
          "name": "token",
          "type": "address"
        },
        {
          "internalType": "uint256",
          "name": "amountMinimum",
          "type": "uint256"
        },
        {
          "internalType": "address",
          "name": "recipient",
          "type": "address"
        }
      ],
      "name": "sweepToken",
      "outputs": [],
      "stateMutability": "payable",
      "type": "function"
    },
    {
      "inputs": [],
      "name": "symbol",
      "outputs": [
        {
          "internalType": "string",
          "name": "",
          "type": "string"
        }
      ],
      "stateMutability": "view",
      "type": "function"
    },
    {
      "inputs": [
        {
          "internalType": "uint256",
          "name": "index",
          "type": "uint256"
        }
      ],
      "name": "tokenByIndex",
      "outputs": [
        {
          "internalType": "uint256",
          "name": "",
          "type": "uint256"
        }
      ],
      "stateMutability": "view",
      "type": "function"
    },
    {
      "inputs": [
        {
          "internalType": "address",
          "name": "owner",
          "type": "address"
        },
        {
          "internalType": "uint256",
          "name": "index",
          "type": "uint256"
        }
      ],
      "name": "tokenOfOwnerByIndex",
      "outputs": [
        {
          "internalType": "uint256",
          "name": "",
          "type": "uint256"
        }
      ],
      "stateMutability": "view",
      "type": "function"
    },
    {
      "inputs": [
        {
          "internalType": "uint256",
          "name": "tokenId",
          "type": "uint256"
        }
      ],
      "name": "tokenURI",
      "outputs": [
        {
          "internalType": "string",
          "name": "",
          "type": "string"
        }
      ],
      "stateMutability": "view",
      "type": "function"
    },
    {
      "inputs": [],
      "name": "totalSupply",
      "outputs": [
        {
          "internalType": "uint256",
          "name": "",
          "type": "uint256"
        }
      ],
      "stateMutability": "view",
      "type": "function"
    },
    {
      "inputs": [
        {
          "internalType": "address",
          "name": "from",
          "type": "address"
        },
        {
          "internalType": "address",
          "name": "to",
          "type": "address"
        },
        {
          "internalType": "uint256",
          "name": "tokenId",
          "type": "uint256"
        }
      ],
      "name": "transferFrom",
      "outputs": [],
      "stateMutability": "nonpayable",
      "type": "function"
    },
    {
      "inputs": [
        {
          "internalType": "uint256",
          "name": "amountMinimum",
          "type": "uint256"
        },
        {
          "internalType": "address",
          "name": "recipient",
          "type": "address"
        }
      ],
      "name": "unwrapWETH9",
      "outputs": [],
      "stateMutability": "payable",
      "type": "function"
    },
    {
      "stateMutability": "payable",
      "type": "receive"
    }
  ],
  "bytecode": "0x6080604052609e80546001600160b01b0319166001176001600160b01b0316600160b01b1790553480156200003357600080fd5b5060405162006766380380620067668339810160408190526200005691620007d0565b620000638383836200006c565b50505062000819565b600054610100900460ff168062000088575062000088620001a8565b8062000097575060005460ff16155b620000d45760405162461bcd60e51b815260040180806020018281038252602e81526020018062006738602e913960400191505060405180910390fd5b600054610100900460ff1615801562000100576000805460ff1961ff0019909116610100171660011790555b609f80546001600160a01b0319166001600160a01b038416179055604080518082018252601181527020506f736974696f6e73204e46542d563160781b602080830191909152825180840184526007815266554e492d504f5360c81b81830152835180850190945260018452603160f81b918401919091526200018392620001c6565b6200018f848462000295565b8015620001a2576000805461ff00191690555b50505050565b6000620001c0306200037160201b62002f3a1760201c565b15905090565b600054610100900460ff1680620001e25750620001e2620001a8565b80620001f1575060005460ff16155b6200022e5760405162461bcd60e51b815260040180806020018281038252602e81526020018062006738602e913960400191505060405180910390fd5b600054610100900460ff161580156200025a576000805460ff1961ff0019909116610100171660011790555b6200026684846200037b565b83516020808601919091206097558251908301206098558015620001a2576000805461ff001916905550505050565b600054610100900460ff1680620002b15750620002b1620001a8565b80620002c0575060005460ff16155b620002fd5760405162461bcd60e51b815260040180806020018281038252602e81526020018062006738602e913960400191505060405180910390fd5b600054610100900460ff1615801562000329576000805460ff1961ff0019909116610100171660011790555b609980546001600160a01b038086166001600160a01b031992831617909255609a80549285169290911691909117905580156200036c576000805461ff00191690555b505050565b803b15155b919050565b600054610100900460ff168062000397575062000397620001a8565b80620003a6575060005460ff16155b620003e35760405162461bcd60e51b815260040180806020018281038252602e81526020018062006738602e913960400191505060405180910390fd5b600054610100900460ff161580156200040f576000805460ff1961ff0019909116610100171660011790555b6200041962000446565b62000423620004f0565b6200042f838362000596565b80156200036c576000805461ff0019169055505050565b600054610100900460ff168062000462575062000462620001a8565b8062000471575060005460ff16155b620004ae5760405162461bcd60e51b815260040180806020018281038252602e81526020018062006738602e913960400191505060405180910390fd5b600054610100900460ff16158015620004da576000805460ff1961ff0019909116610100171660011790555b8015620004ed576000805461ff00191690555b50565b600054610100900460ff16806200050c57506200050c620001a8565b806200051b575060005460ff16155b620005585760405162461bcd60e51b815260040180806020018281038252602e81526020018062006738602e913960400191505060405180910390fd5b600054610100900460ff1615801562000584576000805460ff1961ff0019909116610100171660011790555b620004da6301ffc9a760e01b62000687565b600054610100900460ff1680620005b25750620005b2620001a8565b80620005c1575060005460ff16155b620005fe5760405162461bcd60e51b815260040180806020018281038252602e81526020018062006738602e913960400191505060405180910390fd5b600054610100900460ff161580156200062a576000805460ff1961ff0019909116610100171660011790555b82516200063f90606a9060208601906200070c565b5081516200065590606b9060208501906200070c565b50620006686380ac58cd60e01b62000687565b6200067a635b5e139f60e01b62000687565b6200042f63780e9d6360e01b5b6001600160e01b03198082161415620006e7576040805162461bcd60e51b815260206004820152601c60248201527f4552433136353a20696e76616c696420696e7465726661636520696400000000604482015290519081900360640190fd5b6001600160e01b0319166000908152603360205260409020805460ff19166001179055565b828054600181600116156101000203166002900490600052602060002090601f0160209004810192826200074457600085556200078f565b82601f106200075f57805160ff19168380011785556200078f565b828001600101855582156200078f579182015b828111156200078f57825182559160200191906001019062000772565b506200079d929150620007a1565b5090565b5b808211156200079d5760008155600101620007a2565b80516001600160a01b03811681146200037657600080fd5b600080600060608486031215620007e5578283fd5b620007f084620007b8565b92506200080060208501620007b8565b91506200081060408501620007b8565b90509250925092565b615f0f80620008296000396000f3fe60806040526004361061023f5760003560e01c80636352211e1161012e578063ac9650d8116100ab578063c87b56dd1161006f578063c87b56dd14610686578063df2ab5bb146106a6578063e985e9c5146106b9578063f3995c67146106d9578063fc6f7865146106ec57610291565b8063ac9650d8146105fe578063b88d4fde1461061e578063c0c53b8b1461063e578063c2e3140a1461065e578063c45a01551461067157610291565b806395d89b41116100f257806395d89b411461055e57806399fbab88146105735780639f382e9b146105ab578063a22cb465146105cb578063a4a78f0c146105eb57610291565b80636352211e146104d35780636c0360eb146104f357806370a08231146105085780637ac2ff7b14610528578063883164561461053b57610291565b80632f745c59116101bc57806342966c681161018057806342966c68146104655780634659a4941461047857806349404b7c1461048b5780634aa4a4fc1461049e5780634f6ccce7146104b357610291565b80632f745c59146103db57806330adf81f146103fb5780633644e515146104105780633beb26c41461042557806342842e0e1461044557610291565b806312210e8a1161020357806312210e8a1461035c57806313ead5621461036457806318160ddd14610377578063219f5d171461039957806323b872dd146103bb57610291565b806301ffc9a71461029657806306fdde03146102cc578063081812fc146102ee578063095ea7b31461031b5780630c49ccbe1461033b57610291565b3661029157609a546001600160a01b0316331461028f576040805162461bcd60e51b81526020600482015260096024820152684e6f7420574554483960b81b604482015290519081900360640190fd5b005b600080fd5b3480156102a257600080fd5b506102b66102b13660046153eb565b6106ff565b6040516102c3919061592c565b60405180910390f35b3480156102d857600080fd5b506102e1610722565b6040516102c3919061597f565b3480156102fa57600080fd5b5061030e6103093660046156e5565b6107b8565b6040516102c3919061580f565b34801561032757600080fd5b5061028f6103363660046152c0565b61080b565b61034e6103493660046154b0565b6108e1565b6040516102c3929190615b06565b61028f610d0d565b61030e610372366004615153565b610d1f565b34801561038357600080fd5b5061038c610fbd565b6040516102c39190615937565b6103ac6103a73660046154c1565b610fce565b6040516102c393929190615ac1565b3480156103c757600080fd5b5061028f6103d63660046151ac565b6112e3565b3480156103e757600080fd5b5061038c6103f63660046152c0565b61133a565b34801561040757600080fd5b5061038c611365565b34801561041c57600080fd5b5061038c611389565b34801561043157600080fd5b5061028f6104403660046156e5565b61140b565b34801561045157600080fd5b5061028f6104603660046151ac565b611410565b61028f6104733660046156e5565b61142b565b61028f610486366004615321565b6114fa565b61028f6104993660046156fd565b611594565b3480156104aa57600080fd5b5061030e6116cc565b3480156104bf57600080fd5b5061038c6104ce3660046156e5565b6116db565b3480156104df57600080fd5b5061030e6104ee3660046156e5565b6116f1565b3480156104ff57600080fd5b506102e1611719565b34801561051457600080fd5b5061038c6105233660046150b5565b61171e565b61028f610536366004615321565b611786565b61054e61054936600461557d565b611b78565b6040516102c39493929190615ae2565b34801561056a57600080fd5b506102e1612090565b34801561057f57600080fd5b5061059361058e3660046156e5565b6120f1565b6040516102c39c9b9a99989796959493929190615b14565b3480156105b757600080fd5b5061028f6105c6366004615744565b612302565b3480156105d757600080fd5b5061028f6105e6366004615293565b61236d565b61028f6105f9366004615321565b612472565b61061161060c36600461537c565b61250b565b6040516102c391906158cc565b34801561062a57600080fd5b5061028f6106393660046151ec565b61264b565b34801561064a57600080fd5b5061028f610659366004615109565b6126a9565b61028f61066c366004615321565b6127d8565b34801561067d57600080fd5b5061030e612867565b34801561069257600080fd5b506102e16106a13660046156e5565b612876565b61028f6106b43660046152eb565b612910565b3480156106c557600080fd5b506102b66106d43660046150d1565b6129e8565b61028f6106e7366004615321565b612a16565b61034e6106fa366004615499565b612a88565b6001600160e01b0319811660009081526033602052604090205460ff165b919050565b606a8054604080516020601f60026000196101006001881615020190951694909404938401819004810282018101909252828152606093909290918301828280156107ae5780601f10610783576101008083540402835291602001916107ae565b820191906000526020600020905b81548152906001019060200180831161079157829003601f168201915b5050505050905090565b60006107c382612f40565b6107e85760405162461bcd60e51b81526004016107df906159b8565b60405180910390fd5b506000908152609d6020526040902054600160601b90046001600160a01b031690565b6000610816826116f1565b9050806001600160a01b0316836001600160a01b031614156108695760405162461bcd60e51b8152600401808060200182810382526021815260200180615eb16021913960400191505060405180910390fd5b806001600160a01b031661087b612f4d565b6001600160a01b031614806108975750610897816106d4612f4d565b6108d25760405162461bcd60e51b8152600401808060200182810382526038815260200180615dad6038913960400191505060405180910390fd5b6108dc8383612f51565b505050565b60008082356108f03382612fc7565b61090c5760405162461bcd60e51b81526004016107df90615992565b83608001358061091a613063565b1115610963576040805162461bcd60e51b8152602060048201526013602482015272151c985b9cd858dd1a5bdb881d1bdbc81bdb19606a1b604482015290519081900360640190fd5b6000610975604087016020880161558f565b6001600160801b03161161098857600080fd5b84356000908152609d602090815260409182902060018101549092600160801b9091046001600160801b0316916109c391890190890161558f565b6001600160801b0316816001600160801b031610156109e157600080fd5b6001828101546001600160501b03166000908152609c60209081526040808320815160608101835281546001600160a01b039081168252919095015480821693860193909352600160a01b90920462ffffff1690840152609954610a46911683613069565b60018501549091506001600160a01b0382169063a34123a790600160501b8104600290810b91600160681b9004900b610a8560408e0160208f0161558f565b6040518463ffffffff1660e01b8152600401610aa393929190615959565b6040805180830381600087803b158015610abc57600080fd5b505af1158015610ad0573d6000803e3d6000fd5b505050506040513d601f19601f82011682018060405250810190610af49190615721565b909850965060408901358810801590610b11575088606001358710155b610b2d5760405162461bcd60e51b81526004016107df90615a04565b6001840154600090610b56903090600160501b8104600290810b91600160681b9004900b613128565b9050600080836001600160a01b031663514ea4bf846040518263ffffffff1660e01b8152600401610b879190615937565b60a06040518083038186803b158015610b9f57600080fd5b505afa158015610bb3573d6000803e3d6000fd5b505050506040513d601f19601f82011682018060405250810190610bd791906155d9565b50509250925050610bfc87600201548303876001600160801b0316600160801b613182565b6004880180546001600160801b03198116928e016001600160801b039182160181169290921790556003880154610c3d91908303908816600160801b613182565b6004880180546001600160801b03808216938e01600160801b9283900482160116029190911790556002870182905560038701819055610c8360408d0160208e0161558f565b86038760010160106101000a8154816001600160801b0302191690836001600160801b031602179055508b600001357f26f6a048ee9138f2c0ce266f322cb99228e8d619ae2bff30c67f8dcf9d2377b48d6020016020810190610ce6919061558f565b8d8d604051610cf793929190615ac1565b60405180910390a2505050505050505050915091565b4715610d1d57610d1d3347613231565b565b6000836001600160a01b0316856001600160a01b031610610d3f57600080fd5b60995460408051630b4c774160e11b81526001600160a01b038881166004830152878116602483015262ffffff8716604483015291519190921691631698ee82916064808301926020929190829003018186803b158015610d9f57600080fd5b505afa158015610db3573d6000803e3d6000fd5b505050506040513d6020811015610dc957600080fd5b505190506001600160a01b038116610ed4576099546040805163a167129560e01b81526001600160a01b038881166004830152878116602483015262ffffff871660448301529151919092169163a16712959160648083019260209291908290030181600087803b158015610e3d57600080fd5b505af1158015610e51573d6000803e3d6000fd5b505050506040513d6020811015610e6757600080fd5b50516040805163f637731d60e01b81526001600160a01b03858116600483015291519293509083169163f637731d9160248082019260009290919082900301818387803b158015610eb757600080fd5b505af1158015610ecb573d6000803e3d6000fd5b50505050610fb5565b6000816001600160a01b0316633850c7bd6040518163ffffffff1660e01b815260040160e06040518083038186803b158015610f0f57600080fd5b505afa158015610f23573d6000803e3d6000fd5b505050506040513d60e0811015610f3957600080fd5b505190506001600160a01b038116610fb357816001600160a01b031663f637731d846040518263ffffffff1660e01b815260040180826001600160a01b03168152602001915050600060405180830381600087803b158015610f9a57600080fd5b505af1158015610fae573d6000803e3d6000fd5b505050505b505b949350505050565b6000610fc96066613320565b905090565b60008060008360a0013580610fe1613063565b111561102a576040805162461bcd60e51b8152602060048201526013602482015272151c985b9cd858dd1a5bdb881d1bdbc81bdb19606a1b604482015290519081900360640190fd5b84356000908152609d602090815260408083206001808201546001600160501b0381168652609c855283862084516060808201875282546001600160a01b039081168352929094015480831682890190815262ffffff600160a01b9092048216838901908152885161014081018a528451861681529151909416818a0152925116828701523082850152600160501b8304600290810b810b608080850191909152600160681b909404810b900b60a0830152958c013560c0820152938b013560e0850152908a0135610100840152890135610120830152929061110c9061332b565b6001870154939a509198509650915060009061113f903090600160501b8104600290810b91600160681b9004900b613128565b9050600080836001600160a01b031663514ea4bf846040518263ffffffff1660e01b81526004016111709190615937565b60a06040518083038186803b15801561118857600080fd5b505afa15801561119c573d6000803e3d6000fd5b505050506040513d601f19601f820116820180604052508101906111c091906155d9565b505092509250506111fc866002015483038760010160109054906101000a90046001600160801b03166001600160801b0316600160801b613182565b6004870180546001600160801b0380821690930183166001600160801b0319909116179055600387015460018801546112439291840391600160801b918290041690613182565b6004870180546001600160801b03600160801b80830482169094018116840291811691909117909155600288018490556003880183905560018801805483810483168e018316909302929091169190911790556040518b35907f3067048beee31b25b2f1681f88dac838c8bba36af25bfb2b7cf7473a5847e35f906112cd908d908d908d90615ac1565b60405180910390a2505050505050509193909250565b6112f46112ee612f4d565b82612fc7565b61132f5760405162461bcd60e51b8152600401808060200182810382526031815260200180615ed26031913960400191505060405180910390fd5b6108dc838383613540565b6001600160a01b038216600090815260656020526040812061135c908361368c565b90505b92915050565b7f49ecf333e5b8c95c40fdafc95c1ad136e8914a8fb55e9dc8bb01eaa83a2df9ad81565b60007f8b73c3c69bb8fe3d512ecc4cf759cc79239f7b179b0ffacaa9a75d522b39400f6097546098546113ba613698565b3060405160200180868152602001858152602001848152602001838152602001826001600160a01b031681526020019550505050505060405160208183030381529060405280519060200120905090565b60a055565b6108dc8383836040518060200160405280600081525061264b565b806114363382612fc7565b6114525760405162461bcd60e51b81526004016107df90615992565b6000828152609d602052604090206001810154600160801b90046001600160801b031615801561148d575060048101546001600160801b0316155b80156114ab57506004810154600160801b90046001600160801b0316155b6114c75760405162461bcd60e51b81526004016107df90615a5c565b6000838152609d60205260408120818155600181018290556002810182905560038101829055600401556108dc8361369c565b604080516323f2ebc360e21b815233600482015230602482015260448101879052606481018690526001608482015260ff851660a482015260c4810184905260e4810183905290516001600160a01b03881691638fcbaf0c9161010480830192600092919082900301818387803b15801561157457600080fd5b505af1158015611588573d6000803e3d6000fd5b50505050505050505050565b609a54604080516370a0823160e01b815230600482015290516000926001600160a01b0316916370a08231916024808301926020929190829003018186803b1580156115df57600080fd5b505afa1580156115f3573d6000803e3d6000fd5b505050506040513d602081101561160957600080fd5b5051905082811015611657576040805162461bcd60e51b8152602060048201526012602482015271496e73756666696369656e7420574554483960701b604482015290519081900360640190fd5b80156108dc57609a5460408051632e1a7d4d60e01b81526004810184905290516001600160a01b0390921691632e1a7d4d9160248082019260009290919082900301818387803b1580156116aa57600080fd5b505af11580156116be573d6000803e3d6000fd5b505050506108dc8282613231565b609a546001600160a01b031681565b6000806116e9606684613769565b509392505050565b600061135f82604051806060016040528060298152602001615e0f6029913960669190613787565b606090565b60006001600160a01b0382166117655760405162461bcd60e51b815260040180806020018281038252602a815260200180615de5602a913960400191505060405180910390fd5b6001600160a01b038216600090815260656020526040902061135f90613320565b8361178f613063565b11156117d3576040805162461bcd60e51b815260206004820152600e60248201526d14195c9b5a5d08195e1c1a5c995960921b604482015290519081900360640190fd5b60006117dd611389565b7f49ecf333e5b8c95c40fdafc95c1ad136e8914a8fb55e9dc8bb01eaa83a2df9ad888861180981613794565b604080516020808201969096526001600160a01b03909416848201526060840192909252608083015260a08083018a90528151808403909101815260c08301825280519084012061190160f01b60e084015260e283019490945261010280830194909452805180830390940184526101229091019052815191012090506000611891876116f1565b9050806001600160a01b0316886001600160a01b031614156118e45760405162461bcd60e51b8152600401808060200182810382526027815260200180615d106027913960400191505060405180910390fd5b6118ed81612f3a565b15611a55576040805160208082018790528183018690526001600160f81b031960f889901b1660608301528251604181840301815260618301808552630b135d3f60e11b90526065830186815260858401948552815160a585015281516001600160a01b03871695631626ba7e958995919260c59091019185019080838360005b8381101561198657818101518382015260200161196e565b50505050905090810190601f1680156119b35780820380516001836020036101000a031916815260200191505b50935050505060206040518083038186803b1580156119d157600080fd5b505afa1580156119e5573d6000803e3d6000fd5b505050506040513d60208110156119fb57600080fd5b50516001600160e01b031916630b135d3f60e11b14611a50576040805162461bcd60e51b815260206004820152600c60248201526b155b985d5d1a1bdc9a5e995960a21b604482015290519081900360640190fd5b611b64565b600060018387878760405160008152602001604052604051808581526020018460ff1681526020018381526020018281526020019450505050506020604051602081039080840390855afa158015611ab1573d6000803e3d6000fd5b5050604051601f1901519150506001600160a01b038116611b0d576040805162461bcd60e51b8152602060048201526011602482015270496e76616c6964207369676e617475726560781b604482015290519081900360640190fd5b816001600160a01b0316816001600160a01b031614611b62576040805162461bcd60e51b815260206004820152600c60248201526b155b985d5d1a1bdc9a5e995960a21b604482015290519081900360640190fd5b505b611b6e8888612f51565b5050505050505050565b60008060008084610140013580611b8d613063565b1115611bd6576040805162461bcd60e51b8152602060048201526013602482015272151c985b9cd858dd1a5bdb881d1bdbc81bdb19606a1b604482015290519081900360640190fd5b604080516101408101909152600090611ca29080611bf760208b018b6150b5565b6001600160a01b03168152602001896020016020810190611c1891906150b5565b6001600160a01b03168152602001611c3660608b0160408c016156cb565b62ffffff168152306020820152604001611c5660808b0160608c01615413565b60020b8152602001611c6e60a08b0160808c01615413565b60020b81526020018960a0013581526020018960c0013581526020018960e00135815260200189610100013581525061332b565b92975090955093509050611cef611cc161014089016101208a016150b5565b609e80546001600160b01b0319811660016001600160b01b03928316908101909216179091559750876137ce565b6000611d1a30611d0560808b0160608c01615413565b611d1560a08c0160808d01615413565b613128565b9050600080836001600160a01b031663514ea4bf846040518263ffffffff1660e01b8152600401611d4b9190615937565b60a06040518083038186803b158015611d6357600080fd5b505afa158015611d77573d6000803e3d6000fd5b505050506040513d601f19601f82011682018060405250810190611d9b91906155d9565b505092509250506000611e148560405180606001604052808e6000016020810190611dc691906150b5565b6001600160a01b031681526020018e6020016020810190611de791906150b5565b6001600160a01b031681526020018e6040016020810190611e0891906156cb565b62ffffff1690526138fc565b905060405180610140016040528060006001600160601b0316815260200160006001600160a01b03168152602001826001600160501b031681526020018c6060016020810190611e649190615413565b60020b8152602001611e7c60a08e0160808f01615413565b60020b81526020018a6001600160801b0316815260200184815260200183815260200160006001600160801b0316815260200160006001600160801b0316815250609d60008c815260200190815260200160002060008201518160000160006101000a8154816001600160601b0302191690836001600160601b03160217905550602082015181600001600c6101000a8154816001600160a01b0302191690836001600160a01b0316021790555060408201518160010160006101000a8154816001600160501b0302191690836001600160501b03160217905550606082015181600101600a6101000a81548162ffffff021916908360020b62ffffff160217905550608082015181600101600d6101000a81548162ffffff021916908360020b62ffffff16021790555060a08201518160010160106101000a8154816001600160801b0302191690836001600160801b0316021790555060c0820151816002015560e082015181600301556101008201518160040160006101000a8154816001600160801b0302191690836001600160801b031602179055506101208201518160040160106101000a8154816001600160801b0302191690836001600160801b03160217905550905050897f3067048beee31b25b2f1681f88dac838c8bba36af25bfb2b7cf7473a5847e35f8a8a8a60405161207b93929190615ac1565b60405180910390a25050505050509193509193565b606b8054604080516020601f60026000196101006001881615020190951694909404938401819004810282018101909252828152606093909290918301828280156107ae5780601f10610783576101008083540402835291602001916107ae565b6000818152609d6020908152604080832081516101408101835281546001600160601b03811682526001600160a01b03600160601b909104169381019390935260018101546001600160501b038116928401839052600160501b8104600290810b810b810b6060860152600160681b8204810b810b810b60808601526001600160801b03600160801b92839004811660a08701529083015460c0860152600383015460e0860152600490920154808316610100860152041661012083015282918291829182918291829182918291829182918291906121e25760405162461bcd60e51b81526004016107df90615a32565b6000609c600083604001516001600160501b03166001600160501b031681526020019081526020016000206040518060600160405290816000820160009054906101000a90046001600160a01b03166001600160a01b03166001600160a01b031681526020016001820160009054906101000a90046001600160a01b03166001600160a01b03166001600160a01b031681526020016001820160149054906101000a900462ffffff1662ffffff1662ffffff1681525050905081600001518260200151826000015183602001518460400151866060015187608001518860a001518960c001518a60e001518b61010001518c61012001519d509d509d509d509d509d509d509d509d509d509d509d50505091939597999b5091939597999b565b6000612310828401846154d2565b609954815191925061232d916001600160a01b03909116906139de565b50841561234857805151602082015161234891903388613a01565b83156123665761236681600001516020015182602001513387613a01565b5050505050565b612375612f4d565b6001600160a01b0316826001600160a01b031614156123db576040805162461bcd60e51b815260206004820152601960248201527f4552433732313a20617070726f766520746f2063616c6c657200000000000000604482015290519081900360640190fd5b80606960006123e8612f4d565b6001600160a01b03908116825260208083019390935260409182016000908120918716808252919093529120805460ff19169215159290921790915561242c612f4d565b6001600160a01b03167f17307eab39ab6107e8899845ad3d59bd9653f200f220920489ca2b5937696c318360405180821515815260200191505060405180910390a35050565b60408051636eb1769f60e11b81523360048201523060248201529051600019916001600160a01b0389169163dd62ed3e91604480820192602092909190829003018186803b1580156124c357600080fd5b505afa1580156124d7573d6000803e3d6000fd5b505050506040513d60208110156124ed57600080fd5b50511015612503576125038686868686866114fa565b505050505050565b60608167ffffffffffffffff8111801561252457600080fd5b5060405190808252806020026020018201604052801561255857816020015b60608152602001906001900390816125435790505b50905060005b82811015612644576000803086868581811061257657fe5b90506020028101906125889190615bae565b6040516125969291906157ff565b600060405180830381855af49150503d80600081146125d1576040519150601f19603f3d011682016040523d82523d6000602084013e6125d6565b606091505b509150915081612622576044815110156125ef57600080fd5b60048101905080806020019051810190612609919061542f565b60405162461bcd60e51b81526004016107df919061597f565b8084848151811061262f57fe5b6020908102919091010152505060010161255e565b5092915050565b61265c612656612f4d565b83612fc7565b6126975760405162461bcd60e51b8152600401808060200182810382526031815260200180615ed26031913960400191505060405180910390fd5b6126a384848484613b3f565b50505050565b600054610100900460ff16806126c257506126c2613b91565b806126d0575060005460ff16155b61270b5760405162461bcd60e51b815260040180806020018281038252602e815260200180615e38602e913960400191505060405180910390fd5b600054610100900460ff16158015612736576000805460ff1961ff0019909116610100171660011790555b609f80546001600160a01b0319166001600160a01b038416179055604080518082018252601181527020506f736974696f6e73204e46542d563160781b602080830191909152825180840184526007815266554e492d504f5360c81b81830152835180850190945260018452603160f81b918401919091526127b792613ba2565b6127c18484613c67565b80156126a3576000805461ff001916905550505050565b60408051636eb1769f60e11b8152336004820152306024820152905186916001600160a01b0389169163dd62ed3e91604480820192602092909190829003018186803b15801561282757600080fd5b505afa15801561283b573d6000803e3d6000fd5b505050506040513d602081101561285157600080fd5b5051101561250357612503868686868686612a16565b6099546001600160a01b031681565b606061288182612f40565b61288a57600080fd5b609f5460405163e9dc637560e01b81526001600160a01b039091169063e9dc6375906128bc9030908690600401615940565b60006040518083038186803b1580156128d457600080fd5b505afa1580156128e8573d6000803e3d6000fd5b505050506040513d6000823e601f3d908101601f1916820160405261135f919081019061542f565b6000836001600160a01b03166370a08231306040518263ffffffff1660e01b815260040180826001600160a01b0316815260200191505060206040518083038186803b15801561295f57600080fd5b505afa158015612973573d6000803e3d6000fd5b505050506040513d602081101561298957600080fd5b50519050828110156129d7576040805162461bcd60e51b815260206004820152601260248201527124b739bab33334b1b4b2b73a103a37b5b2b760711b604482015290519081900360640190fd5b80156126a3576126a3848383613d3a565b6001600160a01b03918216600090815260696020908152604080832093909416825291909152205460ff1690565b6040805163d505accf60e01b8152336004820152306024820152604481018790526064810186905260ff8516608482015260a4810184905260c4810183905290516001600160a01b0388169163d505accf9160e480830192600092919082900301818387803b15801561157457600080fd5b6000808235612a973382612fc7565b612ab35760405162461bcd60e51b81526004016107df90615992565b6000612ac5606086016040870161558f565b6001600160801b03161180612af257506000612ae7608086016060870161558f565b6001600160801b0316115b612afb57600080fd5b600080612b0e60408701602088016150b5565b6001600160a01b031614612b3157612b2c60408601602087016150b5565b612b33565b305b85356000908152609d602090815260408083206001808201546001600160501b03168552609c8452828520835160608101855281546001600160a01b039081168252919092015480821695830195909552600160a01b90940462ffffff169281019290925260995494955093909291612bad911683613069565b600484015460018501549192506001600160801b0380821692600160801b9283900482169290041615612da357600185015460405163a34123a760e01b81526001600160a01b0385169163a34123a791612c2491600160501b8104600290810b92600160681b909204900b90600090600401615959565b6040805180830381600087803b158015612c3d57600080fd5b505af1158015612c51573d6000803e3d6000fd5b505050506040513d601f19601f82011682018060405250810190612c759190615721565b5050600185015460009081906001600160a01b0386169063514ea4bf90612cb3903090600160501b8104600290810b91600160681b9004900b613128565b6040518263ffffffff1660e01b8152600401612ccf9190615937565b60a06040518083038186803b158015612ce757600080fd5b505afa158015612cfb573d6000803e3d6000fd5b505050506040513d601f19601f82011682018060405250810190612d1f91906155d9565b50509250925050612d5b876002015483038860010160109054906101000a90046001600160801b03166001600160801b0316600160801b613182565b84019350612d94876003015482038860010160109054906101000a90046001600160801b03166001600160801b0316600160801b613182565b60028801929092556003870155015b6000806001600160801b038416612dc060608e0160408f0161558f565b6001600160801b031611612de357612dde60608d0160408e0161558f565b612de5565b835b836001600160801b03168d6060016020810190612e02919061558f565b6001600160801b031611612e2557612e2060808e0160608f0161558f565b612e27565b835b60018901546040516309e3d67b60e31b81529294509092506001600160a01b03871691634f1eb3d891612e7a918c91600160501b8104600290810b92600160681b909204900b9088908890600401615865565b6040805180830381600087803b158015612e9357600080fd5b505af1158015612ea7573d6000803e3d6000fd5b505050506040513d601f19601f82011682018060405250810190612ecb91906155ab565b6004890180546001600160801b03196001600160801b03918216600160801b878a0384160217168689038216179091556040519281169d50169a508c35907f40d0efd1a53d60ecbf40971b9daf7dc90178c3aadc7aab1765632738fa8b8f0190610cf7908b90869086906158a2565b3b151590565b600061135f606683613e81565b3390565b6000818152609d6020526040902080546001600160601b0316600160601b6001600160a01b038516908102919091179091558190612f8e826116f1565b6001600160a01b03167f8c5be1e5ebec7d5bd14f71427d1e84f3dd0314c0f7b2291e5b200ac8c7c3b92560405160405180910390a45050565b6000612fd282612f40565b61300d5760405162461bcd60e51b815260040180806020018281038252602c815260200180615d81602c913960400191505060405180910390fd5b6000613018836116f1565b9050806001600160a01b0316846001600160a01b031614806130535750836001600160a01b0316613048846107b8565b6001600160a01b0316145b80610fb55750610fb581856129e8565b60a05490565b600081602001516001600160a01b031682600001516001600160a01b03161061309157600080fd5b81516020808401516040808601518151630b4c774160e11b81526001600160a01b039586166004820152928516602484015262ffffff1660448301525192861692631698ee8292606480840193919291829003018186803b1580156130f557600080fd5b505afa158015613109573d6000803e3d6000fd5b505050506040513d602081101561311f57600080fd5b50519392505050565b604080516bffffffffffffffffffffffff19606086901b16602080830191909152600285810b60e890811b60348501529085900b901b60378301528251601a818403018152603a90920190925280519101205b9392505050565b60008080600019858709868602925082811090839003039050806131b857600084116131ad57600080fd5b50829004905061317b565b8084116131c457600080fd5b6000848688096000868103871696879004966002600389028118808a02820302808a02820302808a02820302808a02820302808a02820302808a02909103029181900381900460010186841190950394909402919094039290920491909117919091029150509392505050565b604080516000808252602082019092526001600160a01b0384169083906040518082805190602001908083835b6020831061327d5780518252601f19909201916020918201910161325e565b6001836020036101000a03801982511681845116808217855250505050505090500191505060006040518083038185875af1925050503d80600081146132df576040519150601f19603f3d011682016040523d82523d6000602084013e6132e4565b606091505b50509050806108dc576040805162461bcd60e51b815260206004820152600360248201526253544560e81b604482015290519081900360640190fd5b600061135f82613e8d565b6040805160608101825282516001600160a01b0390811682526020808501518216908301528383015162ffffff1692820192909252609954600092839283928392613377911682613069565b91506000826001600160a01b0316633850c7bd6040518163ffffffff1660e01b815260040160e06040518083038186803b1580156133b457600080fd5b505afa1580156133c8573d6000803e3d6000fd5b505050506040513d601f19601f820116820180604052508101906133ec919061563a565b505050505050905060006134038860800151613e91565b905060006134148960a00151613e91565b905061342b8383838c60c001518d60e001516141c3565b9750505050816001600160a01b0316633c8a7d8d876060015188608001518960a00151896040518060400160405280888152602001336001600160a01b031681525060405160200161347d9190615a81565b6040516020818303038152906040526040518663ffffffff1660e01b81526004016134ac959493929190615823565b6040805180830381600087803b1580156134c557600080fd5b505af11580156134d9573d6000803e3d6000fd5b505050506040513d601f19601f820116820180604052508101906134fd9190615721565b6101008801519195509350841080159061351c57508561012001518310155b6135385760405162461bcd60e51b81526004016107df90615a04565b509193509193565b826001600160a01b0316613553826116f1565b6001600160a01b0316146135985760405162461bcd60e51b8152600401808060200182810382526029815260200180615e886029913960400191505060405180910390fd5b6001600160a01b0382166135dd5760405162461bcd60e51b8152600401808060200182810382526024815260200180615d376024913960400191505060405180910390fd5b6135e88383836108dc565b6135f3600082612f51565b6001600160a01b03831660009081526065602052604090206136159082614287565b506001600160a01b03821660009081526065602052604090206136389082614293565b506136456066828461429f565b5080826001600160a01b0316846001600160a01b03167fddf252ad1be2c89b69c2b068fc378daa952ba7f163c4a11628f55a4df523b3ef60405160405180910390a4505050565b600061135c83836142b5565b4690565b60006136a7826116f1565b90506136b5816000846108dc565b6136c0600083612f51565b6000828152606c602052604090205460026000196101006001841615020190911604156136fe576000828152606c602052604081206136fe91614fa0565b6001600160a01b03811660009081526065602052604090206137209083614287565b5061372c606683614319565b5060405182906000906001600160a01b038416907fddf252ad1be2c89b69c2b068fc378daa952ba7f163c4a11628f55a4df523b3ef908390a45050565b60008080806137788686614325565b909450925050505b9250929050565b6000610fb58484846143a0565b6000908152609d6020526040902080546bffffffffffffffffffffffff19811660016001600160601b039283169081019092161790915590565b6001600160a01b038216613829576040805162461bcd60e51b815260206004820181905260248201527f4552433732313a206d696e7420746f20746865207a65726f2061646472657373604482015290519081900360640190fd5b61383281612f40565b15613884576040805162461bcd60e51b815260206004820152601c60248201527f4552433732313a20746f6b656e20616c7265616479206d696e74656400000000604482015290519081900360640190fd5b613890600083836108dc565b6001600160a01b03821660009081526065602052604090206138b29082614293565b506138bf6066828461429f565b5060405181906001600160a01b038416906000907fddf252ad1be2c89b69c2b068fc378daa952ba7f163c4a11628f55a4df523b3ef908290a45050565b6001600160a01b0382166000908152609b60205260409020546001600160501b03168061135f5750609e805460016001600160501b03600160b01b8084048216838101909216026001600160b01b03909316929092179092556001600160a01b038085166000908152609b60209081526040808320805469ffffffffffffffffffff191686179055848352609c825291829020865181549085166001600160a01b031991821617825591870151950180549287015162ffffff16600160a01b0262ffffff60a01b19969094169290911691909117939093161790915592915050565b60006139ea8383613069565b9050336001600160a01b0382161461135f57600080fd5b609a546001600160a01b038581169116148015613a1e5750804710155b15613b1257609a60009054906101000a90046001600160a01b03166001600160a01b031663d0e30db0826040518263ffffffff1660e01b81526004016000604051808303818588803b158015613a7357600080fd5b505af1158015613a87573d6000803e3d6000fd5b5050609a546040805163a9059cbb60e01b81526001600160a01b03888116600483015260248201889052915191909216945063a9059cbb9350604480830193506020928290030181600087803b158015613ae057600080fd5b505af1158015613af4573d6000803e3d6000fd5b505050506040513d6020811015613b0a57600080fd5b506126a39050565b6001600160a01b038316301415613b3357613b2e848383613d3a565b6126a3565b6126a38484848461446a565b613b4a848484613540565b613b56848484846145ba565b6126a35760405162461bcd60e51b8152600401808060200182810382526032815260200180615cde6032913960400191505060405180910390fd5b6000613b9c30612f3a565b15905090565b600054610100900460ff1680613bbb5750613bbb613b91565b80613bc9575060005460ff16155b613c045760405162461bcd60e51b815260040180806020018281038252602e815260200180615e38602e913960400191505060405180910390fd5b600054610100900460ff16158015613c2f576000805460ff1961ff0019909116610100171660011790555b613c398484614722565b835160208086019190912060975582519083012060985580156126a3576000805461ff001916905550505050565b600054610100900460ff1680613c805750613c80613b91565b80613c8e575060005460ff16155b613cc95760405162461bcd60e51b815260040180806020018281038252602e815260200180615e38602e913960400191505060405180910390fd5b600054610100900460ff16158015613cf4576000805460ff1961ff0019909116610100171660011790555b609980546001600160a01b038086166001600160a01b031992831617909255609a80549285169290911691909117905580156108dc576000805461ff0019169055505050565b604080516001600160a01b038481166024830152604480830185905283518084039091018152606490920183526020820180516001600160e01b031663a9059cbb60e01b1781529251825160009485949389169392918291908083835b60208310613db65780518252601f199092019160209182019101613d97565b6001836020036101000a0380198251168184511680821785525050505050509050019150506000604051808303816000865af19150503d8060008114613e18576040519150601f19603f3d011682016040523d82523d6000602084013e613e1d565b606091505b5091509150818015613e4b575080511580613e4b5750808060200190516020811015613e4857600080fd5b50515b612366576040805162461bcd60e51b815260206004820152600260248201526114d560f21b604482015290519081900360640190fd5b600061135c83836147df565b5490565b60008060008360020b12613ea8578260020b613eb0565b8260020b6000035b9050620d89e8811115613eee576040805162461bcd60e51b81526020600482015260016024820152601560fa1b604482015290519081900360640190fd5b600060018216613f0257600160801b613f14565b6ffffcb933bd6fad37aa2d162d1a5940015b70ffffffffffffffffffffffffffffffffff1690506002821615613f48576ffff97272373d413259a46990580e213a0260801c5b6004821615613f67576ffff2e50f5f656932ef12357cf3c7fdcc0260801c5b6008821615613f86576fffe5caca7e10e4e61c3624eaa0941cd00260801c5b6010821615613fa5576fffcb9843d60f6159c9db58835c9266440260801c5b6020821615613fc4576fff973b41fa98c081472e6896dfb254c00260801c5b6040821615613fe3576fff2ea16466c96a3843ec78b326b528610260801c5b6080821615614002576ffe5dee046a99a2a811c461f1969c30530260801c5b610100821615614022576ffcbe86c7900a88aedcffc83b479aa3a40260801c5b610200821615614042576ff987a7253ac413176f2b074cf7815e540260801c5b610400821615614062576ff3392b0822b70005940c7a398e4b70f30260801c5b610800821615614082576fe7159475a2c29b7443b29c7fa6e889d90260801c5b6110008216156140a2576fd097f3bdfd2022b8845ad8f792aa58250260801c5b6120008216156140c2576fa9f746462d870fdf8a65dc1f90e061e50260801c5b6140008216156140e2576f70d869a156d2a1b890bb3df62baf32f70260801c5b618000821615614102576f31be135f97d08fd981231505542fcfa60260801c5b62010000821615614123576f09aa508b5b7a84e1c677de54f3e99bc90260801c5b62020000821615614143576e5d6af8dedb81196699c329225ee6040260801c5b62040000821615614162576d2216e584f5fa1ea926041bedfe980260801c5b6208000082161561417f576b048a170391f7dc42444e8fa20260801c5b60008460020b131561419a57806000198161419657fe5b0490505b6401000000008106156141ae5760016141b1565b60005b60ff16602082901c0192505050919050565b6000836001600160a01b0316856001600160a01b031611156141e3579293925b846001600160a01b0316866001600160a01b03161161420e576142078585856147f7565b905061427e565b836001600160a01b0316866001600160a01b031610156142705760006142358786866147f7565b9050600061424487898661485a565b9050806001600160801b0316826001600160801b0316106142655780614267565b815b9250505061427e565b61427b85858461485a565b90505b95945050505050565b600061135c8383614897565b600061135c838361495d565b6000610fb584846001600160a01b0385166149a7565b815460009082106142f75760405162461bcd60e51b8152600401808060200182810382526022815260200180615cbc6022913960400191505060405180910390fd5b82600001828154811061430657fe5b9060005260206000200154905092915050565b600061135c8383614a3e565b8154600090819083106143695760405162461bcd60e51b8152600401808060200182810382526022815260200180615e666022913960400191505060405180910390fd5b600084600001848154811061437a57fe5b906000526020600020906002020190508060000154816001015492509250509250929050565b6000828152600184016020526040812054828161443b5760405162461bcd60e51b81526004018080602001828103825283818151815260200191508051906020019080838360005b838110156144005781810151838201526020016143e8565b50505050905090810190601f16801561442d5780820380516001836020036101000a031916815260200191505b509250505060405180910390fd5b5084600001600182038154811061444e57fe5b9060005260206000209060020201600101549150509392505050565b604080516001600160a01b0385811660248301528481166044830152606480830185905283518084039091018152608490920183526020820180516001600160e01b03166323b872dd60e01b178152925182516000948594938a169392918291908083835b602083106144ee5780518252601f1990920191602091820191016144cf565b6001836020036101000a0380198251168184511680821785525050505050509050019150506000604051808303816000865af19150503d8060008114614550576040519150601f19603f3d011682016040523d82523d6000602084013e614555565b606091505b5091509150818015614583575080511580614583575080806020019051602081101561458057600080fd5b50515b612503576040805162461bcd60e51b815260206004820152600360248201526229aa2360e91b604482015290519081900360640190fd5b60006145ce846001600160a01b0316612f3a565b6145da57506001610fb5565b60006146e8630a85bd0160e11b6145ef612f4d565b88878760405160240180856001600160a01b03168152602001846001600160a01b0316815260200183815260200180602001828103825283818151815260200191508051906020019080838360005b8381101561465657818101518382015260200161463e565b50505050905090810190601f1680156146835780820380516001836020036101000a031916815260200191505b5095505050505050604051602081830303815290604052906001600160e01b0319166020820180516001600160e01b038381831617835250505050604051806060016040528060328152602001615cde603291396001600160a01b0388169190614b12565b9050600081806020019051602081101561470157600080fd5b50516001600160e01b031916630a85bd0160e11b1492505050949350505050565b600054610100900460ff168061473b575061473b613b91565b80614749575060005460ff16155b6147845760405162461bcd60e51b815260040180806020018281038252602e815260200180615e38602e913960400191505060405180910390fd5b600054610100900460ff161580156147af576000805460ff1961ff0019909116610100171660011790555b6147b7614b21565b6147bf614bc3565b6147c98383614c60565b80156108dc576000805461ff0019169055505050565b60009081526001919091016020526040902054151590565b6000826001600160a01b0316846001600160a01b03161115614817579192915b600061483a856001600160a01b0316856001600160a01b0316600160601b613182565b905061427e61485584838888036001600160a01b0316613182565b614d45565b6000826001600160a01b0316846001600160a01b0316111561487a579192915b610fb561485583600160601b8787036001600160a01b0316613182565b6000818152600183016020526040812054801561495357835460001980830191908101906000908790839081106148ca57fe5b90600052602060002001549050808760000184815481106148e757fe5b60009182526020808320909101929092558281526001898101909252604090209084019055865487908061491757fe5b6001900381819060005260206000200160009055905586600101600087815260200190815260200160002060009055600194505050505061135f565b600091505061135f565b600061496983836147df565b61499f5750815460018181018455600084815260208082209093018490558454848252828601909352604090209190915561135f565b50600061135f565b600082815260018401602052604081205480614a0c57505060408051808201825283815260208082018481528654600181810189556000898152848120955160029093029095019182559151908201558654868452818801909252929091205561317b565b82856000016001830381548110614a1f57fe5b906000526020600020906002020160010181905550600091505061317b565b600081815260018301602052604081205480156149535783546000198083019190810190600090879083908110614a7157fe5b9060005260206000209060020201905080876000018481548110614a9157fe5b600091825260208083208454600290930201918255600193840154918401919091558354825289830190526040902090840190558654879080614ad057fe5b600082815260208082206002600019909401938402018281556001908101839055929093558881528982019092526040822091909155945061135f9350505050565b6060610fb58484600085614d5b565b600054610100900460ff1680614b3a5750614b3a613b91565b80614b48575060005460ff16155b614b835760405162461bcd60e51b815260040180806020018281038252602e815260200180615e38602e913960400191505060405180910390fd5b600054610100900460ff16158015614bae576000805460ff1961ff0019909116610100171660011790555b8015614bc0576000805461ff00191690555b50565b600054610100900460ff1680614bdc5750614bdc613b91565b80614bea575060005460ff16155b614c255760405162461bcd60e51b815260040180806020018281038252602e815260200180615e38602e913960400191505060405180910390fd5b600054610100900460ff16158015614c50576000805460ff1961ff0019909116610100171660011790555b614bae6301ffc9a760e01b614eb6565b600054610100900460ff1680614c795750614c79613b91565b80614c87575060005460ff16155b614cc25760405162461bcd60e51b815260040180806020018281038252602e815260200180615e38602e913960400191505060405180910390fd5b600054610100900460ff16158015614ced576000805460ff1961ff0019909116610100171660011790555b8251614d0090606a906020860190614fe4565b508151614d1490606b906020850190614fe4565b50614d256380ac58cd60e01b614eb6565b614d35635b5e139f60e01b614eb6565b6147c963780e9d6360e01b614eb6565b806001600160801b038116811461071d57600080fd5b606082471015614d9c5760405162461bcd60e51b8152600401808060200182810382526026815260200180615d5b6026913960400191505060405180910390fd5b614da585612f3a565b614df6576040805162461bcd60e51b815260206004820152601d60248201527f416464726573733a2063616c6c20746f206e6f6e2d636f6e7472616374000000604482015290519081900360640190fd5b600080866001600160a01b031685876040518082805190602001908083835b60208310614e345780518252601f199092019160209182019101614e15565b6001836020036101000a03801982511681845116808217855250505050505090500191505060006040518083038185875af1925050503d8060008114614e96576040519150601f19603f3d011682016040523d82523d6000602084013e614e9b565b606091505b5091509150614eab828286614f3a565b979650505050505050565b6001600160e01b03198082161415614f15576040805162461bcd60e51b815260206004820152601c60248201527f4552433136353a20696e76616c696420696e7465726661636520696400000000604482015290519081900360640190fd5b6001600160e01b0319166000908152603360205260409020805460ff19166001179055565b60608315614f4957508161317b565b825115614f595782518084602001fd5b60405162461bcd60e51b81526020600482018181528451602484015284518593919283926044019190850190808383600083156144005781810151838201526020016143e8565b50805460018160011615610100020316600290046000825580601f10614fc65750614bc0565b601f016020900490600052602060002090810190614bc09190615070565b828054600181600116156101000203166002900490600052602060002090601f01602090048101928261501a5760008555615060565b82601f1061503357805160ff1916838001178555615060565b82800160010185558215615060579182015b82811115615060578251825591602001919060010190615045565b5061506c929150615070565b5090565b5b8082111561506c5760008155600101615071565b803561071d81615c65565b805161ffff8116811461071d57600080fd5b803562ffffff8116811461071d57600080fd5b6000602082840312156150c6578081fd5b813561317b81615c65565b600080604083850312156150e3578081fd5b82356150ee81615c65565b915060208301356150fe81615c65565b809150509250929050565b60008060006060848603121561511d578081fd5b833561512881615c65565b9250602084013561513881615c65565b9150604084013561514881615c65565b809150509250925092565b60008060008060808587031215615168578182fd5b843561517381615c65565b9350602085013561518381615c65565b9250615191604086016150a2565b915060608501356151a181615c65565b939692955090935050565b6000806000606084860312156151c0578081fd5b83356151cb81615c65565b925060208401356151db81615c65565b929592945050506040919091013590565b60008060008060808587031215615201578182fd5b843561520c81615c65565b9350602085013561521c81615c65565b925060408501359150606085013567ffffffffffffffff81111561523e578182fd5b8501601f8101871361524e578182fd5b803561526161525c82615c17565b615bf3565b818152886020838501011115615275578384fd5b81602084016020830137908101602001929092525092959194509250565b600080604083850312156152a5578182fd5b82356152b081615c65565b915060208301356150fe81615c7a565b600080604083850312156152d2578182fd5b82356152dd81615c65565b946020939093013593505050565b6000806000606084860312156152ff578081fd5b833561530a81615c65565b925060208401359150604084013561514881615c65565b60008060008060008060c08789031215615339578384fd5b863561534481615c65565b95506020870135945060408701359350606087013561536281615cac565b9598949750929560808101359460a0909101359350915050565b6000806020838503121561538e578182fd5b823567ffffffffffffffff808211156153a5578384fd5b818501915085601f8301126153b8578384fd5b8135818111156153c6578485fd5b86602080830285010111156153d9578485fd5b60209290920196919550909350505050565b6000602082840312156153fc578081fd5b81356001600160e01b03198116811461317b578182fd5b600060208284031215615424578081fd5b813561317b81615c88565b600060208284031215615440578081fd5b815167ffffffffffffffff811115615456578182fd5b8201601f81018413615466578182fd5b805161547461525c82615c17565b818152856020838501011115615488578384fd5b61427e826020830160208601615c39565b6000608082840312156154aa578081fd5b50919050565b600060a082840312156154aa578081fd5b600060c082840312156154aa578081fd5b600081830360808112156154e4578182fd5b6040516040810167ffffffffffffffff828210818311171561550257fe5b816040526060841215615513578485fd5b60a083019350818410818511171561552757fe5b50826040528435925061553983615c65565b91825260208401359161554b83615c65565b82606083015261555d604086016150a2565b6080830152815261557060608501615085565b6020820152949350505050565b600061016082840312156154aa578081fd5b6000602082840312156155a0578081fd5b813561317b81615c97565b600080604083850312156155bd578182fd5b82516155c881615c97565b60208401519092506150fe81615c97565b600080600080600060a086880312156155f0578283fd5b85516155fb81615c97565b809550506020860151935060408601519250606086015161561b81615c97565b608087015190925061562c81615c97565b809150509295509295909350565b600080600080600080600060e0888a031215615654578485fd5b875161565f81615c65565b602089015190975061567081615c88565b955061567e60408901615090565b945061568c60608901615090565b935061569a60808901615090565b925060a08801516156aa81615cac565b60c08901519092506156bb81615c7a565b8091505092959891949750929550565b6000602082840312156156dc578081fd5b61135c826150a2565b6000602082840312156156f6578081fd5b5035919050565b6000806040838503121561570f578182fd5b8235915060208301356150fe81615c65565b60008060408385031215615733578182fd5b505080516020909101519092909150565b60008060008060608587031215615759578182fd5b8435935060208501359250604085013567ffffffffffffffff8082111561577e578384fd5b818701915087601f830112615791578384fd5b81358181111561579f578485fd5b8860208285010111156157b0578485fd5b95989497505060200194505050565b600081518084526157d7816020860160208601615c39565b601f01601f19169290920160200192915050565b60020b9052565b6001600160801b03169052565b6000828483379101908152919050565b6001600160a01b0391909116815260200190565b600060018060a01b03871682528560020b60208301528460020b60408301526001600160801b038416606083015260a06080830152614eab60a08301846157bf565b6001600160a01b03959095168552600293840b60208601529190920b60408401526001600160801b03918216606084015216608082015260a00190565b6001600160a01b039390931683526001600160801b03918216602084015216604082015260600190565b6000602080830181845280855180835260408601915060408482028701019250838701855b8281101561591f57603f1988860301845261590d8583516157bf565b945092850192908501906001016158f1565b5092979650505050505050565b901515815260200190565b90815260200190565b6001600160a01b03929092168252602082015260400190565b600293840b81529190920b60208201526001600160801b03909116604082015260600190565b60006020825261135c60208301846157bf565b6020808252600c908201526b139bdd08185c1c1c9bdd995960a21b604082015260600190565b6020808252602c908201527f4552433732313a20617070726f76656420717565727920666f72206e6f6e657860408201526b34b9ba32b73a103a37b5b2b760a11b606082015260800190565b602080825260149082015273507269636520736c69707061676520636865636b60601b604082015260600190565b60208082526010908201526f125b9d985b1a59081d1bdad95b88125160821b604082015260600190565b6020808252600b908201526a139bdd0818db19585c995960aa1b604082015260600190565b815180516001600160a01b03908116835260208083015182168185015260409283015162ffffff1692840192909252920151909116606082015260800190565b6001600160801b039390931683526020830191909152604082015260600190565b9384526001600160801b039290921660208401526040830152606082015260800190565b918252602082015260400190565b6001600160601b038d1681526001600160a01b038c811660208301528b811660408301528a16606082015262ffffff89166080820152600288900b60a08201526101808101615b6660c08301896157eb565b615b7360e08301886157f2565b8561010083015284610120830152615b8f6101408301856157f2565b615b9d6101608301846157f2565b9d9c50505050505050505050505050565b6000808335601e19843603018112615bc4578283fd5b83018035915067ffffffffffffffff821115615bde578283fd5b60200191503681900382131561378057600080fd5b60405181810167ffffffffffffffff81118282101715615c0f57fe5b604052919050565b600067ffffffffffffffff821115615c2b57fe5b50601f01601f191660200190565b60005b83811015615c54578181015183820152602001615c3c565b838111156126a35750506000910152565b6001600160a01b0381168114614bc057600080fd5b8015158114614bc057600080fd5b8060020b8114614bc057600080fd5b6001600160801b0381168114614bc057600080fd5b60ff81168114614bc057600080fdfe456e756d657261626c655365743a20696e646578206f7574206f6620626f756e64734552433732313a207472616e7366657220746f206e6f6e20455243373231526563656976657220696d706c656d656e7465724552433732315065726d69743a20617070726f76616c20746f2063757272656e74206f776e65724552433732313a207472616e7366657220746f20746865207a65726f2061646472657373416464726573733a20696e73756666696369656e742062616c616e636520666f722063616c6c4552433732313a206f70657261746f7220717565727920666f72206e6f6e6578697374656e7420746f6b656e4552433732313a20617070726f76652063616c6c6572206973206e6f74206f776e6572206e6f7220617070726f76656420666f7220616c6c4552433732313a2062616c616e636520717565727920666f7220746865207a65726f20616464726573734552433732313a206f776e657220717565727920666f72206e6f6e6578697374656e7420746f6b656e496e697469616c697a61626c653a20636f6e747261637420697320616c726561647920696e697469616c697a6564456e756d657261626c654d61703a20696e646578206f7574206f6620626f756e64734552433732313a207472616e73666572206f6620746f6b656e2074686174206973206e6f74206f776e4552433732313a20617070726f76616c20746f2063757272656e74206f776e65724552433732313a207472616e736665722063616c6c6572206973206e6f74206f776e6572206e6f7220617070726f766564a164736f6c6343000706000a496e697469616c697a61626c653a20636f6e747261637420697320616c726561647920696e697469616c697a6564",
  "linkReferences": {},
  "deployedLinkReferences": {}
}