{
  "_format": "hh-sol-artifact-1",
  "contractName": "Quoter",
  "sourceName": "contracts/lens/Quoter.sol",
  "abi": [
    {
      "inputs": [],
      "name": "WETH9",
      "outputs": [
        {
          "internalType": "address",
          "name": "",
          "type": "address"
        }
      ],
      "stateMutability": "view",
      "type": "function"
    },
    {
      "inputs": [],
      "name": "factory",
      "outputs": [
        {
          "internalType": "address",
          "name": "",
          "type": "address"
        }
      ],
      "stateMutability": "view",
      "type": "function"
    },
    {
      "inputs": [
        {
          "internalType": "address",
          "name": "_factory",
          "type": "address"
        },
        {
          "internalType": "address",
          "name": "_WETH9",
          "type": "address"
        }
      ],
      "name": "initialize",
      "outputs": [],
      "stateMutability": "nonpayable",
      "type": "function"
    },
    {
      "inputs": [
        {
          "internalType": "bytes",
          "name": "path",
          "type": "bytes"
        },
        {
          "internalType": "uint256",
          "name": "amountIn",
          "type": "uint256"
        }
      ],
      "name": "quoteExactInput",
      "outputs": [
        {
          "internalType": "uint256",
          "name": "amountOut",
          "type": "uint256"
        }
      ],
      "stateMutability": "nonpayable",
      "type": "function"
    },
    {
      "inputs": [
        {
          "internalType": "address",
          "name": "tokenIn",
          "type": "address"
        },
        {
          "internalType": "address",
          "name": "tokenOut",
          "type": "address"
        },
        {
          "internalType": "uint24",
          "name": "fee",
          "type": "uint24"
        },
        {
          "internalType": "uint256",
          "name": "amountIn",
          "type": "uint256"
        },
        {
          "internalType": "uint160",
          "name": "sqrtPriceLimitX96",
          "type": "uint160"
        }
      ],
      "name": "quoteExactInputSingle",
      "outputs": [
        {
          "internalType": "uint256",
          "name": "amountOut",
          "type": "uint256"
        }
      ],
      "stateMutability": "nonpayable",
      "type": "function"
    },
    {
      "inputs": [
        {
          "internalType": "bytes",
          "name": "path",
          "type": "bytes"
        },
        {
          "internalType": "uint256",
          "name": "amountOut",
          "type": "uint256"
        }
      ],
      "name": "quoteExactOutput",
      "outputs": [
        {
          "internalType": "uint256",
          "name": "amountIn",
          "type": "uint256"
        }
      ],
      "stateMutability": "nonpayable",
      "type": "function"
    },
    {
      "inputs": [
        {
          "internalType": "address",
          "name": "tokenIn",
          "type": "address"
        },
        {
          "internalType": "address",
          "name": "tokenOut",
          "type": "address"
        },
        {
          "internalType": "uint24",
          "name": "fee",
          "type": "uint24"
        },
        {
          "internalType": "uint256",
          "name": "amountOut",
          "type": "uint256"
        },
        {
          "internalType": "uint160",
          "name": "sqrtPriceLimitX96",
          "type": "uint160"
        }
      ],
      "name": "quoteExactOutputSingle",
      "outputs": [
        {
          "internalType": "uint256",
          "name": "amountIn",
          "type": "uint256"
        }
      ],
      "stateMutability": "nonpayable",
      "type": "function"
    },
    {
      "inputs": [
        {
          "internalType": "int256",
          "name": "amount0Delta",
          "type": "int256"
        },
        {
          "internalType": "int256",
          "name": "amount1Delta",
          "type": "int256"
        },
        {
          "internalType": "bytes",
          "name": "path",
          "type": "bytes"
        }
      ],
      "name": "swapCallback",
      "outputs": [],
      "stateMutability": "view",
      "type": "function"
    }
  ],
  "bytecode": "0x608060405234801561001057600080fd5b5061105a806100206000396000f3fe608060405234801561001057600080fd5b50600436106100885760003560e01c8063c45a01551161005b578063c45a0155146100f3578063cdca1753146100fb578063f7729d431461010e578063fa483e721461012157610088565b80632f80bb1d1461008d57806330d07f21146100b6578063485cc955146100c95780634aa4a4fc146100de575b600080fd5b6100a061009b366004610d4d565b610134565b6040516100ad9190610f88565b60405180910390f35b6100a06100c4366004610cdf565b610199565b6100dc6100d7366004610ca7565b61030d565b005b6100e66103bb565b6040516100ad9190610eea565b6100e66103ca565b6100a0610109366004610d4d565b6103df565b6100a061011c366004610cdf565b61042d565b6100dc61012f366004610db3565b610567565b60005b600061014284610633565b905060008060006101528761063b565b925092509250610166828483896000610199565b9550831561017e576101778761066c565b965061018a565b85945050505050610193565b50505050610137565b92915050565b60006001600160a01b03808616878216109083166101b75760028490555b6101c2878787610683565b6001600160a01b031663128acb0830836101db886106b2565b6000036001600160a01b038816156101f35787610219565b856102125773fffd8963efd1fc6a506488495d951d5263988d25610219565b6401000276a45b8b8b8e60405160200161022e93929190610eaf565b6040516020818303038152906040526040518663ffffffff1660e01b815260040161025d959493929190610efe565b6040805180830381600087803b15801561027657600080fd5b505af19250505080156102a6575060408051601f3d908101601f191682019092526102a391810190610d90565b60015b610300573d8080156102d4576040519150601f19603f3d011682016040523d82523d6000602084013e6102d9565b606091505b506001600160a01b0384166102ee5760006002555b6102f7816106c8565b92505050610304565b5050505b95945050505050565b600054610100900460ff16806103265750610326610745565b80610334575060005460ff16155b61036f5760405162461bcd60e51b815260040180806020018281038252602e815260200180611020602e913960400191505060405180910390fd5b600054610100900460ff1615801561039a576000805460ff1961ff0019909116610100171660011790555b6103a48383610756565b80156103b6576000805461ff00191690555b505050565b6001546001600160a01b031681565b6000546201000090046001600160a01b031681565b60005b60006103ed84610633565b905060008060006103fd8761063b565b92509250925061041183838389600061042d565b9550831561017e576104228761066c565b9650505050506103e2565b60006001600160a01b0380861690871610610449878787610683565b6001600160a01b031663128acb083083610462886106b2565b6001600160a01b03881615610477578761049d565b856104965773fffd8963efd1fc6a506488495d951d5263988d2561049d565b6401000276a45b8c8b8d6040516020016104b293929190610eaf565b6040516020818303038152906040526040518663ffffffff1660e01b81526004016104e1959493929190610efe565b6040805180830381600087803b1580156104fa57600080fd5b505af192505050801561052a575060408051601f3d908101601f1916820190925261052791810190610d90565b60015b610300573d808015610558576040519150601f19603f3d011682016040523d82523d6000602084013e61055d565b606091505b506102f7816106c8565b60008313806105765750600082135b61057f57600080fd5b600080600061058d8461063b565b9250925092506105b4600060029054906101000a90046001600160a01b031684848461083a565b5060008060008089136105e057856001600160a01b0316856001600160a01b031610888a6000036105fb565b846001600160a01b0316866001600160a01b03161089896000035b925092509250821561061257604051818152602081fd5b6002541561062857600254811461062857600080fd5b604051828152602081fd5b516042111590565b600080806106498482610850565b9250610656846014610900565b9050610663846017610850565b91509193909250565b8051606090610193908390601790601619016109a7565b600080546106aa906201000090046001600160a01b03166106a5868686610af8565b610b4e565b949350505050565b6000600160ff1b82106106c457600080fd5b5090565b60008151602014610731576044825110156106fe5760405162461bcd60e51b81526004016106f590610f5e565b60405180910390fd5b600482019150818060200190518101906107189190610e01565b60405162461bcd60e51b81526004016106f59190610f44565b818060200190518101906101939190610e6b565b600061075030610c0d565b15905090565b600054610100900460ff168061076f575061076f610745565b8061077d575060005460ff16155b6107b85760405162461bcd60e51b815260040180806020018281038252602e815260200180611020602e913960400191505060405180910390fd5b600054610100900460ff161580156107e3576000805460ff1961ff0019909116610100171660011790555b6000805462010000600160b01b031916620100006001600160a01b038681169190910291909117909155600180546001600160a01b03191691841691909117905580156103b6576000805461ff0019169055505050565b60006103048561084b868686610af8565b610c13565b60008182601401101561089f576040805162461bcd60e51b8152602060048201526012602482015271746f416464726573735f6f766572666c6f7760701b604482015290519081900360640190fd5b81601401835110156108f0576040805162461bcd60e51b8152602060048201526015602482015274746f416464726573735f6f75744f66426f756e647360581b604482015290519081900360640190fd5b500160200151600160601b900490565b60008182600301101561094e576040805162461bcd60e51b8152602060048201526011602482015270746f55696e7432345f6f766572666c6f7760781b604482015290519081900360640190fd5b816003018351101561099e576040805162461bcd60e51b8152602060048201526014602482015273746f55696e7432345f6f75744f66426f756e647360601b604482015290519081900360640190fd5b50016003015190565b60608182601f0110156109f2576040805162461bcd60e51b815260206004820152600e60248201526d736c6963655f6f766572666c6f7760901b604482015290519081900360640190fd5b828284011015610a3a576040805162461bcd60e51b815260206004820152600e60248201526d736c6963655f6f766572666c6f7760901b604482015290519081900360640190fd5b81830184511015610a86576040805162461bcd60e51b8152602060048201526011602482015270736c6963655f6f75744f66426f756e647360781b604482015290519081900360640190fd5b606082158015610aa55760405191506000825260208201604052610aef565b6040519150601f8416801560200281840101858101878315602002848b0101015b81831015610ade578051835260209283019201610ac6565b5050858452601f01601f1916604052505b50949350505050565b610b00610c36565b826001600160a01b0316846001600160a01b03161115610b1e579192915b50604080516060810182526001600160a01b03948516815292909316602083015262ffffff169181019190915290565b600081602001516001600160a01b031682600001516001600160a01b031610610b7657600080fd5b81516020808401516040808601518151630b4c774160e11b81526001600160a01b039586166004820152928516602484015262ffffff1660448301525192861692631698ee8292606480840193919291829003018186803b158015610bda57600080fd5b505afa158015610bee573d6000803e3d6000fd5b505050506040513d6020811015610c0457600080fd5b50519392505050565b3b151590565b6000610c1f8383610b4e565b9050336001600160a01b0382161461019357600080fd5b604080516060810182526000808252602082018190529181019190915290565b600082601f830112610c66578081fd5b8135610c79610c7482610fb5565b610f91565b818152846020838601011115610c8d578283fd5b816020850160208301379081016020019190915292915050565b60008060408385031215610cb9578182fd5b8235610cc481611007565b91506020830135610cd481611007565b809150509250929050565b600080600080600060a08688031215610cf6578081fd5b8535610d0181611007565b94506020860135610d1181611007565b9350604086013562ffffff81168114610d28578182fd5b9250606086013591506080860135610d3f81611007565b809150509295509295909350565b60008060408385031215610d5f578182fd5b823567ffffffffffffffff811115610d75578283fd5b610d8185828601610c56565b95602094909401359450505050565b60008060408385031215610da2578182fd5b505080516020909101519092909150565b600080600060608486031215610dc7578283fd5b8335925060208401359150604084013567ffffffffffffffff811115610deb578182fd5b610df786828701610c56565b9150509250925092565b600060208284031215610e12578081fd5b815167ffffffffffffffff811115610e28578182fd5b8201601f81018413610e38578182fd5b8051610e46610c7482610fb5565b818152856020838501011115610e5a578384fd5b610304826020830160208601610fd7565b600060208284031215610e7c578081fd5b5051919050565b60008151808452610e9b816020860160208601610fd7565b601f01601f19169290920160200192915050565b606093841b6bffffffffffffffffffffffff19908116825260e89390931b6001600160e81b0319166014820152921b166017820152602b0190565b6001600160a01b0391909116815260200190565b6001600160a01b0386811682528515156020830152604082018590528316606082015260a060808201819052600090610f3990830184610e83565b979650505050505050565b600060208252610f576020830184610e83565b9392505050565b60208082526010908201526f2ab732bc3832b1ba32b21032b93937b960811b604082015260600190565b90815260200190565b60405181810167ffffffffffffffff81118282101715610fad57fe5b604052919050565b600067ffffffffffffffff821115610fc957fe5b50601f01601f191660200190565b60005b83811015610ff2578181015183820152602001610fda565b83811115611001576000848401525b50505050565b6001600160a01b038116811461101c57600080fd5b5056fe496e697469616c697a61626c653a20636f6e747261637420697320616c726561647920696e697469616c697a6564a164736f6c6343000706000a",
  "linkReferences": {},
  "deployedLinkReferences": {}
}