{
  "_format": "hh-sol-artifact-1",
  "contractName": "Migrator",
  "sourceName": "contracts/Migrator.sol",
  "abi": [
    {
      "inputs": [],
      "name": "WETH9",
      "outputs": [
        {
          "internalType": "address",
          "name": "",
          "type": "address"
        }
      ],
      "stateMutability": "view",
      "type": "function"
    },
    {
      "inputs": [
        {
          "internalType": "address",
          "name": "token0",
          "type": "address"
        },
        {
          "internalType": "address",
          "name": "token1",
          "type": "address"
        },
        {
          "internalType": "uint24",
          "name": "fee",
          "type": "uint24"
        },
        {
          "internalType": "uint160",
          "name": "sqrtPriceX96",
          "type": "uint160"
        }
      ],
      "name": "createAndInitializePoolIfNecessary",
      "outputs": [
        {
          "internalType": "address",
          "name": "pool",
          "type": "address"
        }
      ],
      "stateMutability": "payable",
      "type": "function"
    },
    {
      "inputs": [],
      "name": "factory",
      "outputs": [
        {
          "internalType": "address",
          "name": "",
          "type": "address"
        }
      ],
      "stateMutability": "view",
      "type": "function"
    },
    {
      "inputs": [
        {
          "internalType": "address",
          "name": "_factory",
          "type": "address"
        },
        {
          "internalType": "address",
          "name": "_WETH9",
          "type": "address"
        },
        {
          "internalType": "address",
          "name": "_nonfungiblePositionManager",
          "type": "address"
        }
      ],
      "name": "initialize",
      "outputs": [],
      "stateMutability": "nonpayable",
      "type": "function"
    },
    {
      "inputs": [
        {
          "components": [
            {
              "internalType": "address",
              "name": "pair",
              "type": "address"
            },
            {
              "internalType": "uint256",
              "name": "liquidityToMigrate",
              "type": "uint256"
            },
            {
              "internalType": "uint8",
              "name": "percentageToMigrate",
              "type": "uint8"
            },
            {
              "internalType": "address",
              "name": "token0",
              "type": "address"
            },
            {
              "internalType": "address",
              "name": "token1",
              "type": "address"
            },
            {
              "internalType": "uint24",
              "name": "fee",
              "type": "uint24"
            },
            {
              "internalType": "int24",
              "name": "tickLower",
              "type": "int24"
            },
            {
              "internalType": "int24",
              "name": "tickUpper",
              "type": "int24"
            },
            {
              "internalType": "uint256",
              "name": "amount0Min",
              "type": "uint256"
            },
            {
              "internalType": "uint256",
              "name": "amount1Min",
              "type": "uint256"
            },
            {
              "internalType": "address",
              "name": "recipient",
              "type": "address"
            },
            {
              "internalType": "uint256",
              "name": "deadline",
              "type": "uint256"
            },
            {
              "internalType": "bool",
              "name": "refundAsETH",
              "type": "bool"
            }
          ],
          "internalType": "struct IMigrator.MigrateParams",
          "name": "params",
          "type": "tuple"
        }
      ],
      "name": "migrate",
      "outputs": [],
      "stateMutability": "nonpayable",
      "type": "function"
    },
    {
      "inputs": [
        {
          "internalType": "bytes[]",
          "name": "data",
          "type": "bytes[]"
        }
      ],
      "name": "multicall",
      "outputs": [
        {
          "internalType": "bytes[]",
          "name": "results",
          "type": "bytes[]"
        }
      ],
      "stateMutability": "payable",
      "type": "function"
    },
    {
      "inputs": [],
      "name": "nonfungiblePositionManager",
      "outputs": [
        {
          "internalType": "address",
          "name": "",
          "type": "address"
        }
      ],
      "stateMutability": "view",
      "type": "function"
    },
    {
      "inputs": [
        {
          "internalType": "address",
          "name": "token",
          "type": "address"
        },
        {
          "internalType": "uint256",
          "name": "value",
          "type": "uint256"
        },
        {
          "internalType": "uint256",
          "name": "deadline",
          "type": "uint256"
        },
        {
          "internalType": "uint8",
          "name": "v",
          "type": "uint8"
        },
        {
          "internalType": "bytes32",
          "name": "r",
          "type": "bytes32"
        },
        {
          "internalType": "bytes32",
          "name": "s",
          "type": "bytes32"
        }
      ],
      "name": "selfPermit",
      "outputs": [],
      "stateMutability": "payable",
      "type": "function"
    },
    {
      "inputs": [
        {
          "internalType": "address",
          "name": "token",
          "type": "address"
        },
        {
          "internalType": "uint256",
          "name": "nonce",
          "type": "uint256"
        },
        {
          "internalType": "uint256",
          "name": "expiry",
          "type": "uint256"
        },
        {
          "internalType": "uint8",
          "name": "v",
          "type": "uint8"
        },
        {
          "internalType": "bytes32",
          "name": "r",
          "type": "bytes32"
        },
        {
          "internalType": "bytes32",
          "name": "s",
          "type": "bytes32"
        }
      ],
      "name": "selfPermitAllowed",
      "outputs": [],
      "stateMutability": "payable",
      "type": "function"
    },
    {
      "inputs": [
        {
          "internalType": "address",
          "name": "token",
          "type": "address"
        },
        {
          "internalType": "uint256",
          "name": "nonce",
          "type": "uint256"
        },
        {
          "internalType": "uint256",
          "name": "expiry",
          "type": "uint256"
        },
        {
          "internalType": "uint8",
          "name": "v",
          "type": "uint8"
        },
        {
          "internalType": "bytes32",
          "name": "r",
          "type": "bytes32"
        },
        {
          "internalType": "bytes32",
          "name": "s",
          "type": "bytes32"
        }
      ],
      "name": "selfPermitAllowedIfNecessary",
      "outputs": [],
      "stateMutability": "payable",
      "type": "function"
    },
    {
      "inputs": [
        {
          "internalType": "address",
          "name": "token",
          "type": "address"
        },
        {
          "internalType": "uint256",
          "name": "value",
          "type": "uint256"
        },
        {
          "internalType": "uint256",
          "name": "deadline",
          "type": "uint256"
        },
        {
          "internalType": "uint8",
          "name": "v",
          "type": "uint8"
        },
        {
          "internalType": "bytes32",
          "name": "r",
          "type": "bytes32"
        },
        {
          "internalType": "bytes32",
          "name": "s",
          "type": "bytes32"
        }
      ],
      "name": "selfPermitIfNecessary",
      "outputs": [],
      "stateMutability": "payable",
      "type": "function"
    },
    {
      "stateMutability": "payable",
      "type": "receive"
    }
  ],
  "bytecode": "0x608060405234801561001057600080fd5b506119d3806100206000396000f3fe6080604052600436106100a05760003560e01c8063b44a272211610064578063b44a272214610163578063c0c53b8b14610178578063c2e3140a14610198578063c45a0155146101ab578063d44f2bf2146101c0578063f3995c67146101e0576100da565b806313ead562146100df5780634659a494146101085780634aa4a4fc1461011b578063a4a78f0c14610130578063ac9650d814610143576100da565b366100da576001546001600160a01b031633146100d85760405162461bcd60e51b81526004016100cf906117f2565b60405180910390fd5b005b600080fd5b6100f26100ed3660046113ef565b6101f3565b6040516100ff9190611719565b60405180910390f35b6100d8610116366004611448565b6104a0565b34801561012757600080fd5b506100f261053a565b6100d861013e366004611448565b610549565b6101566101513660046114a1565b6105e2565b6040516100ff9190611751565b34801561016f57600080fd5b506100f2610722565b34801561018457600080fd5b506100d86101933660046113a5565b610731565b6100d86101a6366004611448565b6107fb565b3480156101b757600080fd5b506100f261088a565b3480156101cc57600080fd5b506100d86101db366004611600565b61089f565b6100d86101ee366004611448565b610e3e565b6000836001600160a01b0316856001600160a01b03161061021357600080fd5b60005460408051630b4c774160e11b81526001600160a01b038881166004830152878116602483015262ffffff8716604483015291516201000090930490911691631698ee8291606480820192602092909190829003018186803b15801561027a57600080fd5b505afa15801561028e573d6000803e3d6000fd5b505050506040513d60208110156102a457600080fd5b505190506001600160a01b0381166103b757600080546040805163a167129560e01b81526001600160a01b038981166004830152888116602483015262ffffff881660448301529151620100009093049091169263a1671295926064808401936020939083900390910190829087803b15801561032057600080fd5b505af1158015610334573d6000803e3d6000fd5b505050506040513d602081101561034a57600080fd5b50516040805163f637731d60e01b81526001600160a01b03858116600483015291519293509083169163f637731d9160248082019260009290919082900301818387803b15801561039a57600080fd5b505af11580156103ae573d6000803e3d6000fd5b50505050610498565b6000816001600160a01b0316633850c7bd6040518163ffffffff1660e01b815260040160e06040518083038186803b1580156103f257600080fd5b505afa158015610406573d6000803e3d6000fd5b505050506040513d60e081101561041c57600080fd5b505190506001600160a01b03811661049657816001600160a01b031663f637731d846040518263ffffffff1660e01b815260040180826001600160a01b03168152602001915050600060405180830381600087803b15801561047d57600080fd5b505af1158015610491573d6000803e3d6000fd5b505050505b505b949350505050565b604080516323f2ebc360e21b815233600482015230602482015260448101879052606481018690526001608482015260ff851660a482015260c4810184905260e4810183905290516001600160a01b03881691638fcbaf0c9161010480830192600092919082900301818387803b15801561051a57600080fd5b505af115801561052e573d6000803e3d6000fd5b50505050505050505050565b6001546001600160a01b031681565b60408051636eb1769f60e11b81523360048201523060248201529051600019916001600160a01b0389169163dd62ed3e91604480820192602092909190829003018186803b15801561059a57600080fd5b505afa1580156105ae573d6000803e3d6000fd5b505050506040513d60208110156105c457600080fd5b505110156105da576105da8686868686866104a0565b505050505050565b60608167ffffffffffffffff811180156105fb57600080fd5b5060405190808252806020026020018201604052801561062f57816020015b606081526020019060019003908161061a5790505b50905060005b8281101561071b576000803086868581811061064d57fe5b905060200281019061065f91906118fa565b60405161066d929190611709565b600060405180830381855af49150503d80600081146106a8576040519150601f19603f3d011682016040523d82523d6000602084013e6106ad565b606091505b5091509150816106f9576044815110156106c657600080fd5b600481019050808060200190518101906106e09190611569565b60405162461bcd60e51b81526004016100cf91906117b1565b8084848151811061070657fe5b60209081029190910101525050600101610635565b5092915050565b6002546001600160a01b031681565b600054610100900460ff168061074a575061074a610eb0565b80610758575060005460ff16155b6107935760405162461bcd60e51b815260040180806020018281038252602e815260200180611999602e913960400191505060405180910390fd5b600054610100900460ff161580156107be576000805460ff1961ff0019909116610100171660011790555b600280546001600160a01b0319166001600160a01b0384161790556107e38484610ec1565b80156107f5576000805461ff00191690555b50505050565b60408051636eb1769f60e11b8152336004820152306024820152905186916001600160a01b0389169163dd62ed3e91604480820192602092909190829003018186803b15801561084a57600080fd5b505afa15801561085e573d6000803e3d6000fd5b505050506040513d602081101561087457600080fd5b505110156105da576105da868686868686610e3e565b6000546201000090046001600160a01b031681565b60006108b160608301604084016116a6565b60ff16116108d15760405162461bcd60e51b81526004016100cf906117c4565b60646108e360608301604084016116a6565b60ff1611156109045760405162461bcd60e51b81526004016100cf90611815565b6109116020820182611382565b6001600160a01b03166323b872dd3361092d6020850185611382565b84602001356040518463ffffffff1660e01b81526004016109509392919061172d565b602060405180830381600087803b15801561096a57600080fd5b505af115801561097e573d6000803e3d6000fd5b505050506040513d601f19601f820116820180604052508101906109a2919061152c565b506000806109b36020840184611382565b6001600160a01b03166389afcb44306040518263ffffffff1660e01b81526004016109de9190611719565b6040805180830381600087803b1580156109f757600080fd5b505af1158015610a0b573d6000803e3d6000fd5b505050506040513d601f19601f82011682018060405250810190610a2f9190611683565b909250905060006064610a55610a4b60608701604088016116a6565b859060ff16610fa6565b81610a5c57fe5b04905060006064610a76610a4b60608801604089016116a6565b81610a7d57fe5b049050610aa5610a936080870160608801611382565b6002546001600160a01b031684610fd0565b610aca610ab860a0870160808801611382565b6002546001600160a01b031683610fd0565b60025460408051610160810190915260009182916001600160a01b039091169063883164569080610b0160808c0160608d01611382565b6001600160a01b03168152602001610b1f60a08c0160808d01611382565b6001600160a01b03168152602001610b3d60c08c0160a08d01611618565b62ffffff168152602001610b5760e08c0160c08d01611548565b60020b8152602001610b706101008c0160e08d01611548565b60020b815260208101889052604081018790526101008b013560608201526101208b0135608082015260a001610bae6101608c016101408d01611382565b6001600160a01b031681526020018a61016001358152506040518263ffffffff1660e01b8152600401610be19190611843565b608060405180830381600087803b158015610bfb57600080fd5b505af1158015610c0f573d6000803e3d6000fd5b505050506040513d601f19601f82011682018060405250810190610c339190611632565b93509350505085821015610d445783821015610c6f57610c6f610c5c6080890160608a01611382565b6002546001600160a01b03166000610fd0565b818603610c846101a089016101808a01611510565b8015610cb257506001546001600160a01b0316610ca760808a0160608b01611382565b6001600160a01b0316145b15610d2857600154604051632e1a7d4d60e01b81526001600160a01b0390911690632e1a7d4d90610ce79084906004016118f1565b600060405180830381600087803b158015610d0157600080fd5b505af1158015610d15573d6000803e3d6000fd5b50505050610d23338261111e565b610d42565b610d42610d3b60808a0160608b01611382565b338361120d565b505b84811015610e355782811015610d6757610d67610c5c60a0890160808a01611382565b808503610d7c6101a089016101808a01611510565b8015610daa57506001546001600160a01b0316610d9f60a08a0160808b01611382565b6001600160a01b0316145b15610e2057600154604051632e1a7d4d60e01b81526001600160a01b0390911690632e1a7d4d90610ddf9084906004016118f1565b600060405180830381600087803b158015610df957600080fd5b505af1158015610e0d573d6000803e3d6000fd5b50505050610e1b338261111e565b610e33565b610e33610d3b60a08a0160808b01611382565b505b50505050505050565b6040805163d505accf60e01b8152336004820152306024820152604481018790526064810186905260ff8516608482015260a4810184905260c4810183905290516001600160a01b0388169163d505accf9160e480830192600092919082900301818387803b15801561051a57600080fd5b6000610ebb30611354565b15905090565b600054610100900460ff1680610eda5750610eda610eb0565b80610ee8575060005460ff16155b610f235760405162461bcd60e51b815260040180806020018281038252602e815260200180611999602e913960400191505060405180910390fd5b600054610100900460ff16158015610f4e576000805460ff1961ff0019909116610100171660011790555b6000805462010000600160b01b031916620100006001600160a01b038681169190910291909117909155600180546001600160a01b0319169184169190911790558015610fa1576000805461ff00191690555b505050565b6000821580610fc157505081810281838281610fbe57fe5b04145b610fca57600080fd5b92915050565b604080516001600160a01b038481166024830152604480830185905283518084039091018152606490920183526020820180516001600160e01b031663095ea7b360e01b1781529251825160009485949389169392918291908083835b6020831061104c5780518252601f19909201916020918201910161102d565b6001836020036101000a0380198251168184511680821785525050505050509050019150506000604051808303816000865af19150503d80600081146110ae576040519150601f19603f3d011682016040523d82523d6000602084013e6110b3565b606091505b50915091508180156110e15750805115806110e157508080602001905160208110156110de57600080fd5b50515b611117576040805162461bcd60e51b8152602060048201526002602482015261534160f01b604482015290519081900360640190fd5b5050505050565b604080516000808252602082019092526001600160a01b0384169083906040518082805190602001908083835b6020831061116a5780518252601f19909201916020918201910161114b565b6001836020036101000a03801982511681845116808217855250505050505090500191505060006040518083038185875af1925050503d80600081146111cc576040519150601f19603f3d011682016040523d82523d6000602084013e6111d1565b606091505b5050905080610fa1576040805162461bcd60e51b815260206004820152600360248201526253544560e81b604482015290519081900360640190fd5b604080516001600160a01b038481166024830152604480830185905283518084039091018152606490920183526020820180516001600160e01b031663a9059cbb60e01b1781529251825160009485949389169392918291908083835b602083106112895780518252601f19909201916020918201910161126a565b6001836020036101000a0380198251168184511680821785525050505050509050019150506000604051808303816000865af19150503d80600081146112eb576040519150601f19603f3d011682016040523d82523d6000602084013e6112f0565b606091505b509150915081801561131e57508051158061131e575080806020019051602081101561131b57600080fd5b50515b611117576040805162461bcd60e51b815260206004820152600260248201526114d560f21b604482015290519081900360640190fd5b803b15155b919050565b803562ffffff8116811461135957600080fd5b803560ff8116811461135957600080fd5b600060208284031215611393578081fd5b813561139e81611972565b9392505050565b6000806000606084860312156113b9578182fd5b83356113c481611972565b925060208401356113d481611972565b915060408401356113e481611972565b809150509250925092565b60008060008060808587031215611404578081fd5b843561140f81611972565b9350602085013561141f81611972565b925061142d6040860161135e565b9150606085013561143d81611972565b939692955090935050565b60008060008060008060c08789031215611460578182fd5b863561146b81611972565b9550602087013594506040870135935061148760608801611371565b92506080870135915060a087013590509295509295509295565b600080602083850312156114b3578182fd5b823567ffffffffffffffff808211156114ca578384fd5b818501915085601f8301126114dd578384fd5b8135818111156114eb578485fd5b86602080830285010111156114fe578485fd5b60209290920196919550909350505050565b600060208284031215611521578081fd5b813561139e8161198a565b60006020828403121561153d578081fd5b815161139e8161198a565b600060208284031215611559578081fd5b81358060020b811461139e578182fd5b60006020828403121561157a578081fd5b815167ffffffffffffffff80821115611591578283fd5b818401915084601f8301126115a4578283fd5b8151818111156115b057fe5b604051601f8201601f1916810160200183811182821017156115ce57fe5b6040528181528382016020018710156115e5578485fd5b6115f6826020830160208701611946565b9695505050505050565b60006101a08284031215611612578081fd5b50919050565b600060208284031215611629578081fd5b61139e8261135e565b60008060008060808587031215611647578182fd5b8451935060208501516fffffffffffffffffffffffffffffffff8116811461166d578283fd5b6040860151606090960151949790965092505050565b60008060408385031215611695578182fd5b505080516020909101519092909150565b6000602082840312156116b7578081fd5b61139e82611371565b6001600160a01b03169052565b600081518084526116e5816020860160208601611946565b601f01601f19169290920160200192915050565b60020b9052565b62ffffff169052565b6000828483379101908152919050565b6001600160a01b0391909116815260200190565b6001600160a01b039384168152919092166020820152604081019190915260600190565b6000602080830181845280855180835260408601915060408482028701019250838701855b828110156117a457603f198886030184526117928583516116cd565b94509285019290850190600101611776565b5092979650505050505050565b60006020825261139e60208301846116cd565b60208082526014908201527314195c98d95b9d1859d9481d1bdbc81cdb585b1b60621b604082015260600190565b6020808252600990820152684e6f7420574554483960b81b604082015260600190565b60208082526014908201527350657263656e7461676520746f6f206c6172676560601b604082015260600190565b6000610160820190506118578284516116c0565b602083015161186960208401826116c0565b50604083015161187c6040840182611700565b50606083015161188f60608401826116f9565b5060808301516118a260808401826116f9565b5060a083015160a083015260c083015160c083015260e083015160e0830152610100808401518184015250610120808401516118e0828501826116c0565b505061014092830151919092015290565b90815260200190565b6000808335601e19843603018112611910578283fd5b83018035915067ffffffffffffffff82111561192a578283fd5b60200191503681900382131561193f57600080fd5b9250929050565b60005b83811015611961578181015183820152602001611949565b838111156107f55750506000910152565b6001600160a01b038116811461198757600080fd5b50565b801515811461198757600080fdfe496e697469616c697a61626c653a20636f6e747261637420697320616c726561647920696e697469616c697a6564a164736f6c6343000706000a",
  "linkReferences": {},
  "deployedLinkReferences": {}
}