{
  "_format": "hh-sol-artifact-1",
  "contractName": "TestCallbackValidation",
  "sourceName": "contracts/test/TestCallbackValidation.sol",
  "abi": [
    {
      "inputs": [
        {
          "internalType": "address",
          "name": "factory",
          "type": "address"
        },
        {
          "internalType": "address",
          "name": "tokenA",
          "type": "address"
        },
        {
          "internalType": "address",
          "name": "tokenB",
          "type": "address"
        },
        {
          "internalType": "uint24",
          "name": "fee",
          "type": "uint24"
        }
      ],
      "name": "verifyCallback",
      "outputs": [
        {
          "internalType": "contract IPool",
          "name": "pool",
          "type": "address"
        }
      ],
      "stateMutability": "view",
      "type": "function"
    }
  ],
  "bytecode": "0x608060405234801561001057600080fd5b50610226806100206000396000f3fe608060405234801561001057600080fd5b506004361061002b5760003560e01c80638bdb192514610030575b600080fd5b6100726004803603608081101561004657600080fd5b5080356001600160a01b03908116916020810135821691604082013516906060013562ffffff1661008e565b604080516001600160a01b039092168252519081900360200190f35b600061009c858585856100a5565b95945050505050565b600061009c856100b68686866100bb565b610111565b6100c36101f9565b826001600160a01b0316846001600160a01b031611156100e1579192915b50604080516060810182526001600160a01b03948516815292909316602083015262ffffff169181019190915290565b600061011d838361013a565b9050336001600160a01b0382161461013457600080fd5b92915050565b600081602001516001600160a01b031682600001516001600160a01b03161061016257600080fd5b81516020808401516040808601518151630b4c774160e11b81526001600160a01b039586166004820152928516602484015262ffffff1660448301525192861692631698ee8292606480840193919291829003018186803b1580156101c657600080fd5b505afa1580156101da573d6000803e3d6000fd5b505050506040513d60208110156101f057600080fd5b50519392505050565b60408051606081018252600080825260208201819052918101919091529056fea164736f6c6343000706000a",
  "linkReferences": {},
  "deployedLinkReferences": {}
}