{
  "_format": "hh-sol-artifact-1",
  "contractName": "SwapRouter",
  "sourceName": "contracts/SwapRouter.sol",
  "abi": [
    {
      "inputs": [],
      "name": "WETH9",
      "outputs": [
        {
          "internalType": "address",
          "name": "",
          "type": "address"
        }
      ],
      "stateMutability": "view",
      "type": "function"
    },
    {
      "inputs": [
        {
          "components": [
            {
              "internalType": "bytes",
              "name": "path",
              "type": "bytes"
            },
            {
              "internalType": "address",
              "name": "recipient",
              "type": "address"
            },
            {
              "internalType": "uint256",
              "name": "deadline",
              "type": "uint256"
            },
            {
              "internalType": "uint256",
              "name": "amountIn",
              "type": "uint256"
            },
            {
              "internalType": "uint256",
              "name": "amountOutMinimum",
              "type": "uint256"
            }
          ],
          "internalType": "struct ISwapRouter.ExactInputParams",
          "name": "params",
          "type": "tuple"
        }
      ],
      "name": "exactInput",
      "outputs": [
        {
          "internalType": "uint256",
          "name": "amountOut",
          "type": "uint256"
        }
      ],
      "stateMutability": "payable",
      "type": "function"
    },
    {
      "inputs": [
        {
          "components": [
            {
              "internalType": "address",
              "name": "tokenIn",
              "type": "address"
            },
            {
              "internalType": "address",
              "name": "tokenOut",
              "type": "address"
            },
            {
              "internalType": "uint24",
              "name": "fee",
              "type": "uint24"
            },
            {
              "internalType": "address",
              "name": "recipient",
              "type": "address"
            },
            {
              "internalType": "uint256",
              "name": "deadline",
              "type": "uint256"
            },
            {
              "internalType": "uint256",
              "name": "amountIn",
              "type": "uint256"
            },
            {
              "internalType": "uint256",
              "name": "amountOutMinimum",
              "type": "uint256"
            },
            {
              "internalType": "uint160",
              "name": "sqrtPriceLimitX96",
              "type": "uint160"
            }
          ],
          "internalType": "struct ISwapRouter.ExactInputSingleParams",
          "name": "params",
          "type": "tuple"
        }
      ],
      "name": "exactInputSingle",
      "outputs": [
        {
          "internalType": "uint256",
          "name": "amountOut",
          "type": "uint256"
        }
      ],
      "stateMutability": "payable",
      "type": "function"
    },
    {
      "inputs": [
        {
          "components": [
            {
              "internalType": "bytes",
              "name": "path",
              "type": "bytes"
            },
            {
              "internalType": "address",
              "name": "recipient",
              "type": "address"
            },
            {
              "internalType": "uint256",
              "name": "deadline",
              "type": "uint256"
            },
            {
              "internalType": "uint256",
              "name": "amountOut",
              "type": "uint256"
            },
            {
              "internalType": "uint256",
              "name": "amountInMaximum",
              "type": "uint256"
            }
          ],
          "internalType": "struct ISwapRouter.ExactOutputParams",
          "name": "params",
          "type": "tuple"
        }
      ],
      "name": "exactOutput",
      "outputs": [
        {
          "internalType": "uint256",
          "name": "amountIn",
          "type": "uint256"
        }
      ],
      "stateMutability": "payable",
      "type": "function"
    },
    {
      "inputs": [
        {
          "components": [
            {
              "internalType": "address",
              "name": "tokenIn",
              "type": "address"
            },
            {
              "internalType": "address",
              "name": "tokenOut",
              "type": "address"
            },
            {
              "internalType": "uint24",
              "name": "fee",
              "type": "uint24"
            },
            {
              "internalType": "address",
              "name": "recipient",
              "type": "address"
            },
            {
              "internalType": "uint256",
              "name": "deadline",
              "type": "uint256"
            },
            {
              "internalType": "uint256",
              "name": "amountOut",
              "type": "uint256"
            },
            {
              "internalType": "uint256",
              "name": "amountInMaximum",
              "type": "uint256"
            },
            {
              "internalType": "uint160",
              "name": "sqrtPriceLimitX96",
              "type": "uint160"
            }
          ],
          "internalType": "struct ISwapRouter.ExactOutputSingleParams",
          "name": "params",
          "type": "tuple"
        }
      ],
      "name": "exactOutputSingle",
      "outputs": [
        {
          "internalType": "uint256",
          "name": "amountIn",
          "type": "uint256"
        }
      ],
      "stateMutability": "payable",
      "type": "function"
    },
    {
      "inputs": [],
      "name": "factory",
      "outputs": [
        {
          "internalType": "address",
          "name": "",
          "type": "address"
        }
      ],
      "stateMutability": "view",
      "type": "function"
    },
    {
      "inputs": [
        {
          "internalType": "address",
          "name": "_factory",
          "type": "address"
        },
        {
          "internalType": "address",
          "name": "_WETH9",
          "type": "address"
        }
      ],
      "name": "initialize",
      "outputs": [],
      "stateMutability": "nonpayable",
      "type": "function"
    },
    {
      "inputs": [
        {
          "internalType": "bytes[]",
          "name": "data",
          "type": "bytes[]"
        }
      ],
      "name": "multicall",
      "outputs": [
        {
          "internalType": "bytes[]",
          "name": "results",
          "type": "bytes[]"
        }
      ],
      "stateMutability": "payable",
      "type": "function"
    },
    {
      "inputs": [],
      "name": "refundETH",
      "outputs": [],
      "stateMutability": "payable",
      "type": "function"
    },
    {
      "inputs": [
        {
          "internalType": "address",
          "name": "token",
          "type": "address"
        },
        {
          "internalType": "uint256",
          "name": "value",
          "type": "uint256"
        },
        {
          "internalType": "uint256",
          "name": "deadline",
          "type": "uint256"
        },
        {
          "internalType": "uint8",
          "name": "v",
          "type": "uint8"
        },
        {
          "internalType": "bytes32",
          "name": "r",
          "type": "bytes32"
        },
        {
          "internalType": "bytes32",
          "name": "s",
          "type": "bytes32"
        }
      ],
      "name": "selfPermit",
      "outputs": [],
      "stateMutability": "payable",
      "type": "function"
    },
    {
      "inputs": [
        {
          "internalType": "address",
          "name": "token",
          "type": "address"
        },
        {
          "internalType": "uint256",
          "name": "nonce",
          "type": "uint256"
        },
        {
          "internalType": "uint256",
          "name": "expiry",
          "type": "uint256"
        },
        {
          "internalType": "uint8",
          "name": "v",
          "type": "uint8"
        },
        {
          "internalType": "bytes32",
          "name": "r",
          "type": "bytes32"
        },
        {
          "internalType": "bytes32",
          "name": "s",
          "type": "bytes32"
        }
      ],
      "name": "selfPermitAllowed",
      "outputs": [],
      "stateMutability": "payable",
      "type": "function"
    },
    {
      "inputs": [
        {
          "internalType": "address",
          "name": "token",
          "type": "address"
        },
        {
          "internalType": "uint256",
          "name": "nonce",
          "type": "uint256"
        },
        {
          "internalType": "uint256",
          "name": "expiry",
          "type": "uint256"
        },
        {
          "internalType": "uint8",
          "name": "v",
          "type": "uint8"
        },
        {
          "internalType": "bytes32",
          "name": "r",
          "type": "bytes32"
        },
        {
          "internalType": "bytes32",
          "name": "s",
          "type": "bytes32"
        }
      ],
      "name": "selfPermitAllowedIfNecessary",
      "outputs": [],
      "stateMutability": "payable",
      "type": "function"
    },
    {
      "inputs": [
        {
          "internalType": "address",
          "name": "token",
          "type": "address"
        },
        {
          "internalType": "uint256",
          "name": "value",
          "type": "uint256"
        },
        {
          "internalType": "uint256",
          "name": "deadline",
          "type": "uint256"
        },
        {
          "internalType": "uint8",
          "name": "v",
          "type": "uint8"
        },
        {
          "internalType": "bytes32",
          "name": "r",
          "type": "bytes32"
        },
        {
          "internalType": "bytes32",
          "name": "s",
          "type": "bytes32"
        }
      ],
      "name": "selfPermitIfNecessary",
      "outputs": [],
      "stateMutability": "payable",
      "type": "function"
    },
    {
      "inputs": [
        {
          "internalType": "int256",
          "name": "amount0Delta",
          "type": "int256"
        },
        {
          "internalType": "int256",
          "name": "amount1Delta",
          "type": "int256"
        },
        {
          "internalType": "bytes",
          "name": "_data",
          "type": "bytes"
        }
      ],
      "name": "swapCallback",
      "outputs": [],
      "stateMutability": "nonpayable",
      "type": "function"
    },
    {
      "inputs": [
        {
          "internalType": "address",
          "name": "token",
          "type": "address"
        },
        {
          "internalType": "uint256",
          "name": "amountMinimum",
          "type": "uint256"
        },
        {
          "internalType": "address",
          "name": "recipient",
          "type": "address"
        }
      ],
      "name": "sweepToken",
      "outputs": [],
      "stateMutability": "payable",
      "type": "function"
    },
    {
      "inputs": [
        {
          "internalType": "address",
          "name": "token",
          "type": "address"
        },
        {
          "internalType": "uint256",
          "name": "amountMinimum",
          "type": "uint256"
        },
        {
          "internalType": "address",
          "name": "recipient",
          "type": "address"
        },
        {
          "internalType": "uint256",
          "name": "feeBips",
          "type": "uint256"
        },
        {
          "internalType": "address",
          "name": "feeRecipient",
          "type": "address"
        }
      ],
      "name": "sweepTokenWithFee",
      "outputs": [],
      "stateMutability": "payable",
      "type": "function"
    },
    {
      "inputs": [
        {
          "internalType": "uint256",
          "name": "amountMinimum",
          "type": "uint256"
        },
        {
          "internalType": "address",
          "name": "recipient",
          "type": "address"
        }
      ],
      "name": "unwrapWETH9",
      "outputs": [],
      "stateMutability": "payable",
      "type": "function"
    },
    {
      "inputs": [
        {
          "internalType": "uint256",
          "name": "amountMinimum",
          "type": "uint256"
        },
        {
          "internalType": "address",
          "name": "recipient",
          "type": "address"
        },
        {
          "internalType": "uint256",
          "name": "feeBips",
          "type": "uint256"
        },
        {
          "internalType": "address",
          "name": "feeRecipient",
          "type": "address"
        }
      ],
      "name": "unwrapWETH9WithFee",
      "outputs": [],
      "stateMutability": "payable",
      "type": "function"
    },
    {
      "stateMutability": "payable",
      "type": "receive"
    }
  ],
  "bytecode": "0x608060405260001960025534801561001657600080fd5b5061274c806100266000396000f3fe60806040526004361061010d5760003560e01c8063c04b8d5911610095578063df2ab5bb11610064578063df2ab5bb14610291578063e0e189a0146102a4578063f28c0498146102b7578063f3995c67146102ca578063fa483e72146102dd5761015f565b8063c04b8d5914610243578063c2e3140a14610256578063c45a015514610269578063db3e21981461027e5761015f565b806349404b7c116100dc57806349404b7c146101c85780634aa4a4fc146101db5780639b2c0a37146101fd578063a4a78f0c14610210578063ac9650d8146102235761015f565b806312210e8a14610164578063414bf3891461016c5780634659a49414610195578063485cc955146101a85761015f565b3661015f576001546001600160a01b0316331461015d576040805162461bcd60e51b81526020600482015260096024820152684e6f7420574554483960b81b604482015290519081900360640190fd5b005b600080fd5b61015d6102fd565b61017f61017a3660046122e4565b61030f565b60405161018c9190612632565b60405180910390f35b61015d6101a3366004612062565b610436565b3480156101b457600080fd5b5061015d6101c3366004611f8b565b6104d0565b61015d6101d63660046123eb565b61057e565b3480156101e757600080fd5b506101f06106b6565b60405161018c91906124cf565b61015d61020b36600461240f565b6106c5565b61015d61021e366004612062565b610854565b6102366102313660046120c2565b6108e5565b60405161018c9190612529565b61017f610251366004612239565b610a25565b61015d610264366004612062565b610b39565b34801561027557600080fd5b506101f0610bc8565b61017f61028c3660046122e4565b610bdd565b61015d61029f366004611fc3565b610d04565b61015d6102b2366004612004565b610de2565b61017f6102c5366004612300565b610f09565b61015d6102d8366004612062565b610fff565b3480156102e957600080fd5b5061015d6102f8366004612154565b611071565b471561030d5761030d3347611179565b565b600081608001358061031f611268565b1115610368576040805162461bcd60e51b8152602060048201526013602482015272151c985b9cd858dd1a5bdb881d1bdbc81bdb19606a1b604482015290519081900360640190fd5b61040160a08401356103806080860160608701611f68565b610391610100870160e08801611f68565b60408051808201909152806103a960208a018a611f68565b6103b960608b0160408c016123c8565b6103c960408c0160208d01611f68565b6040516020016103db93929190612484565b6040516020818303038152906040528152602001336001600160a01b031681525061126c565b91508260c001358210156104305760405162461bcd60e51b8152600401610427906125c8565b60405180910390fd5b50919050565b604080516323f2ebc360e21b815233600482015230602482015260448101879052606481018690526001608482015260ff851660a482015260c4810184905260e4810183905290516001600160a01b03881691638fcbaf0c9161010480830192600092919082900301818387803b1580156104b057600080fd5b505af11580156104c4573d6000803e3d6000fd5b50505050505050505050565b600054610100900460ff16806104e957506104e96113be565b806104f7575060005460ff16155b6105325760405162461bcd60e51b815260040180806020018281038252602e815260200180612712602e913960400191505060405180910390fd5b600054610100900460ff1615801561055d576000805460ff1961ff0019909116610100171660011790555b61056783836113cf565b8015610579576000805461ff00191690555b505050565b600154604080516370a0823160e01b815230600482015290516000926001600160a01b0316916370a08231916024808301926020929190829003018186803b1580156105c957600080fd5b505afa1580156105dd573d6000803e3d6000fd5b505050506040513d60208110156105f357600080fd5b5051905082811015610641576040805162461bcd60e51b8152602060048201526012602482015271496e73756666696369656e7420574554483960701b604482015290519081900360640190fd5b80156105795760015460408051632e1a7d4d60e01b81526004810184905290516001600160a01b0390921691632e1a7d4d9160248082019260009290919082900301818387803b15801561069457600080fd5b505af11580156106a8573d6000803e3d6000fd5b505050506105798282611179565b6001546001600160a01b031681565b6000821180156106d6575060648211155b6106df57600080fd5b600154604080516370a0823160e01b815230600482015290516000926001600160a01b0316916370a08231916024808301926020929190829003018186803b15801561072a57600080fd5b505afa15801561073e573d6000803e3d6000fd5b505050506040513d602081101561075457600080fd5b50519050848110156107a2576040805162461bcd60e51b8152602060048201526012602482015271496e73756666696369656e7420574554483960701b604482015290519081900360640190fd5b801561084d5760015460408051632e1a7d4d60e01b81526004810184905290516001600160a01b0390921691632e1a7d4d9160248082019260009290919082900301818387803b1580156107f557600080fd5b505af1158015610809573d6000803e3d6000fd5b50505050600061271061082585846114b390919063ffffffff16565b8161082c57fe5b049050801561083f5761083f8382611179565b61084b85828403611179565b505b5050505050565b60408051636eb1769f60e11b81523360048201523060248201529051600019916001600160a01b0389169163dd62ed3e91604480820192602092909190829003018186803b1580156108a557600080fd5b505afa1580156108b9573d6000803e3d6000fd5b505050506040513d60208110156108cf57600080fd5b5051101561084b5761084b868686868686610436565b60608167ffffffffffffffff811180156108fe57600080fd5b5060405190808252806020026020018201604052801561093257816020015b606081526020019060019003908161091d5790505b50905060005b82811015610a1e576000803086868581811061095057fe5b9050602002810190610962919061263b565b6040516109709291906124bf565b600060405180830381855af49150503d80600081146109ab576040519150601f19603f3d011682016040523d82523d6000602084013e6109b0565b606091505b5091509150816109fc576044815110156109c957600080fd5b600481019050808060200190518101906109e391906121cf565b60405162461bcd60e51b81526004016104279190612589565b80848481518110610a0957fe5b60209081029190910101525050600101610938565b5092915050565b6000816040015180610a35611268565b1115610a7e576040805162461bcd60e51b8152602060048201526013602482015272151c985b9cd858dd1a5bdb881d1bdbc81bdb19606a1b604482015290519081900360640190fd5b335b6000610a8f85600001516114dd565b9050610adb856060015182610aa8578660200151610aaa565b305b60006040518060400160405280610ac48b600001516114e9565b8152602001876001600160a01b031681525061126c565b60608601528015610afb578451309250610af4906114f8565b8552610b08565b8460600151935050610b0e565b50610a80565b8360800151831015610b325760405162461bcd60e51b8152600401610427906125c8565b5050919050565b60408051636eb1769f60e11b8152336004820152306024820152905186916001600160a01b0389169163dd62ed3e91604480820192602092909190829003018186803b158015610b8857600080fd5b505afa158015610b9c573d6000803e3d6000fd5b505050506040513d6020811015610bb257600080fd5b5051101561084b5761084b868686868686610fff565b6000546201000090046001600160a01b031681565b6000816080013580610bed611268565b1115610c36576040805162461bcd60e51b8152602060048201526013602482015272151c985b9cd858dd1a5bdb881d1bdbc81bdb19606a1b604482015290519081900360640190fd5b610cd260a0840135610c4e6080860160608701611f68565b610c5f610100870160e08801611f68565b6040518060400160405280886020016020810190610c7d9190611f68565b610c8d60608b0160408c016123c8565b610c9a60208c018c611f68565b604051602001610cac93929190612484565b6040516020818303038152906040528152602001336001600160a01b031681525061150f565b91508260c00135821115610cf85760405162461bcd60e51b81526004016104279061259c565b50600019600255919050565b6000836001600160a01b03166370a08231306040518263ffffffff1660e01b815260040180826001600160a01b0316815260200191505060206040518083038186803b158015610d5357600080fd5b505afa158015610d67573d6000803e3d6000fd5b505050506040513d6020811015610d7d57600080fd5b5051905082811015610dcb576040805162461bcd60e51b815260206004820152601260248201527124b739bab33334b1b4b2b73a103a37b5b2b760711b604482015290519081900360640190fd5b8015610ddc57610ddc84838361168a565b50505050565b600082118015610df3575060648211155b610dfc57600080fd5b6000856001600160a01b03166370a08231306040518263ffffffff1660e01b815260040180826001600160a01b0316815260200191505060206040518083038186803b158015610e4b57600080fd5b505afa158015610e5f573d6000803e3d6000fd5b505050506040513d6020811015610e7557600080fd5b5051905084811015610ec3576040805162461bcd60e51b815260206004820152601260248201527124b739bab33334b1b4b2b73a103a37b5b2b760711b604482015290519081900360640190fd5b801561084b576000612710610ed883866114b3565b81610edf57fe5b0490508015610ef357610ef387848361168a565b610f00878683850361168a565b50505050505050565b6000816040013580610f19611268565b1115610f62576040805162461bcd60e51b8152602060048201526013602482015272151c985b9cd858dd1a5bdb881d1bdbc81bdb19606a1b604482015290519081900360640190fd5b610fd56060840135610f7a6040860160208701611f68565b6040805180820190915260009080610f92898061263b565b8080601f0160208091040260200160405190810160405280939291908181526020018383808284376000920191909152505050908252503360209091015261150f565b5060025491508260800135821115610cf85760405162461bcd60e51b81526004016104279061259c565b6040805163d505accf60e01b8152336004820152306024820152604481018790526064810186905260ff8516608482015260a4810184905260c4810183905290516001600160a01b0388169163d505accf9160e480830192600092919082900301818387803b1580156104b057600080fd5b60008413806110805750600083135b61108957600080fd5b600061109782840184612338565b905060008060006110ab84600001516117d1565b9250925092506110d2600060029054906101000a90046001600160a01b0316848484611802565b5060008060008a136110f957846001600160a01b0316846001600160a01b03161089611110565b836001600160a01b0316856001600160a01b0316108a5b91509150811561112f5761112a8587602001513384611821565b6104c4565b855161113a906114dd565b1561115f57855161114a906114f8565b8652611159813360008961150f565b506104c4565b806002819055508394506104c48587602001513384611821565b604080516000808252602082019092526001600160a01b0384169083906040518082805190602001908083835b602083106111c55780518252601f1990920191602091820191016111a6565b6001836020036101000a03801982511681845116808217855250505050505090500191505060006040518083038185875af1925050503d8060008114611227576040519150601f19603f3d011682016040523d82523d6000602084013e61122c565b606091505b5050905080610579576040805162461bcd60e51b815260206004820152600360248201526253544560e81b604482015290519081900360640190fd5b4290565b60006001600160a01b038416611280573093505b600080600061129285600001516117d1565b919450925090506001600160a01b03808316908416106000806112b686868661195f565b6001600160a01b031663128acb088b856112cf8f61198e565b6001600160a01b038e16156112e4578d61130a565b876113035773fffd8963efd1fc6a506488495d951d5263988d2561130a565b6401000276a45b8d60405160200161131b91906125f5565b6040516020818303038152906040526040518663ffffffff1660e01b815260040161134a9594939291906124e3565b6040805180830381600087803b15801561136357600080fd5b505af1158015611377573d6000803e3d6000fd5b505050506040513d601f19601f8201168201806040525081019061139b9190612131565b91509150826113aa57816113ac565b805b6000039b9a5050505050505050505050565b60006113c9306119a4565b15905090565b600054610100900460ff16806113e857506113e86113be565b806113f6575060005460ff16155b6114315760405162461bcd60e51b815260040180806020018281038252602e815260200180612712602e913960400191505060405180910390fd5b600054610100900460ff1615801561145c576000805460ff1961ff0019909116610100171660011790555b6000805462010000600160b01b031916620100006001600160a01b038681169190910291909117909155600180546001600160a01b0319169184169190911790558015610579576000805461ff0019169055505050565b60008215806114ce575050818102818382816114cb57fe5b04145b6114d757600080fd5b92915050565b8051604211155b919050565b60606114d7826000602b6119aa565b80516060906114d7908390601790601619016119aa565b60006001600160a01b038416611523573093505b600080600061153585600001516117d1565b919450925090506001600160a01b038084169083161060008061155985878661195f565b6001600160a01b031663128acb088b856115728f61198e565b6000036001600160a01b038e161561158a578d6115b0565b876115a95773fffd8963efd1fc6a506488495d951d5263988d256115b0565b6401000276a45b8d6040516020016115c191906125f5565b6040516020818303038152906040526040518663ffffffff1660e01b81526004016115f09594939291906124e3565b6040805180830381600087803b15801561160957600080fd5b505af115801561161d573d6000803e3d6000fd5b505050506040513d601f19601f820116820180604052508101906116419190612131565b9150915060008361165657818360000361165c565b82826000035b90985090506001600160a01b038a1661167b578b811461167b57600080fd5b50505050505050949350505050565b604080516001600160a01b038481166024830152604480830185905283518084039091018152606490920183526020820180516001600160e01b031663a9059cbb60e01b1781529251825160009485949389169392918291908083835b602083106117065780518252601f1990920191602091820191016116e7565b6001836020036101000a0380198251168184511680821785525050505050509050019150506000604051808303816000865af19150503d8060008114611768576040519150601f19603f3d011682016040523d82523d6000602084013e61176d565b606091505b509150915081801561179b57508051158061179b575080806020019051602081101561179857600080fd5b50515b61084d576040805162461bcd60e51b815260206004820152600260248201526114d560f21b604482015290519081900360640190fd5b600080806117df8482611afb565b92506117ec846014611bab565b90506117f9846017611afb565b91509193909250565b600061181885611813868686611c52565b611ca8565b95945050505050565b6001546001600160a01b03858116911614801561183e5750804710155b1561193257600160009054906101000a90046001600160a01b03166001600160a01b031663d0e30db0826040518263ffffffff1660e01b81526004016000604051808303818588803b15801561189357600080fd5b505af11580156118a7573d6000803e3d6000fd5b50506001546040805163a9059cbb60e01b81526001600160a01b03888116600483015260248201889052915191909216945063a9059cbb9350604480830193506020928290030181600087803b15801561190057600080fd5b505af1158015611914573d6000803e3d6000fd5b505050506040513d602081101561192a57600080fd5b50610ddc9050565b6001600160a01b0383163014156119535761194e84838361168a565b610ddc565b610ddc84848484611ccb565b60008054611986906201000090046001600160a01b0316611981868686611c52565b611e1b565b949350505050565b6000600160ff1b82106119a057600080fd5b5090565b3b151590565b60608182601f0110156119f5576040805162461bcd60e51b815260206004820152600e60248201526d736c6963655f6f766572666c6f7760901b604482015290519081900360640190fd5b828284011015611a3d576040805162461bcd60e51b815260206004820152600e60248201526d736c6963655f6f766572666c6f7760901b604482015290519081900360640190fd5b81830184511015611a89576040805162461bcd60e51b8152602060048201526011602482015270736c6963655f6f75744f66426f756e647360781b604482015290519081900360640190fd5b606082158015611aa85760405191506000825260208201604052611af2565b6040519150601f8416801560200281840101858101878315602002848b0101015b81831015611ae1578051835260209283019201611ac9565b5050858452601f01601f1916604052505b50949350505050565b600081826014011015611b4a576040805162461bcd60e51b8152602060048201526012602482015271746f416464726573735f6f766572666c6f7760701b604482015290519081900360640190fd5b8160140183511015611b9b576040805162461bcd60e51b8152602060048201526015602482015274746f416464726573735f6f75744f66426f756e647360581b604482015290519081900360640190fd5b500160200151600160601b900490565b600081826003011015611bf9576040805162461bcd60e51b8152602060048201526011602482015270746f55696e7432345f6f766572666c6f7760781b604482015290519081900360640190fd5b8160030183511015611c49576040805162461bcd60e51b8152602060048201526014602482015273746f55696e7432345f6f75744f66426f756e647360601b604482015290519081900360640190fd5b50016003015190565b611c5a611eda565b826001600160a01b0316846001600160a01b03161115611c78579192915b50604080516060810182526001600160a01b03948516815292909316602083015262ffffff169181019190915290565b6000611cb48383611e1b565b9050336001600160a01b038216146114d757600080fd5b604080516001600160a01b0385811660248301528481166044830152606480830185905283518084039091018152608490920183526020820180516001600160e01b03166323b872dd60e01b178152925182516000948594938a169392918291908083835b60208310611d4f5780518252601f199092019160209182019101611d30565b6001836020036101000a0380198251168184511680821785525050505050509050019150506000604051808303816000865af19150503d8060008114611db1576040519150601f19603f3d011682016040523d82523d6000602084013e611db6565b606091505b5091509150818015611de4575080511580611de45750808060200190516020811015611de157600080fd5b50515b61084b576040805162461bcd60e51b815260206004820152600360248201526229aa2360e91b604482015290519081900360640190fd5b600081602001516001600160a01b031682600001516001600160a01b031610611e4357600080fd5b81516020808401516040808601518151630b4c774160e11b81526001600160a01b039586166004820152928516602484015262ffffff1660448301525192861692631698ee8292606480840193919291829003018186803b158015611ea757600080fd5b505afa158015611ebb573d6000803e3d6000fd5b505050506040513d6020811015611ed157600080fd5b50519392505050565b604080516060810182526000808252602082018190529181019190915290565b80356114e4816126f9565b600082601f830112611f15578081fd5b8135611f28611f23826126ab565b612687565b818152846020838601011115611f3c578283fd5b816020850160208301379081016020019190915292915050565b60006101008284031215610430578081fd5b600060208284031215611f79578081fd5b8135611f84816126f9565b9392505050565b60008060408385031215611f9d578081fd5b8235611fa8816126f9565b91506020830135611fb8816126f9565b809150509250929050565b600080600060608486031215611fd7578081fd5b8335611fe2816126f9565b9250602084013591506040840135611ff9816126f9565b809150509250925092565b600080600080600060a0868803121561201b578081fd5b8535612026816126f9565b945060208601359350604086013561203d816126f9565b9250606086013591506080860135612054816126f9565b809150509295509295909350565b60008060008060008060c0878903121561207a578081fd5b8635612085816126f9565b95506020870135945060408701359350606087013560ff811681146120a8578182fd5b9598949750929560808101359460a0909101359350915050565b600080602083850312156120d4578182fd5b823567ffffffffffffffff808211156120eb578384fd5b818501915085601f8301126120fe578384fd5b81358181111561210c578485fd5b866020808302850101111561211f578485fd5b60209290920196919550909350505050565b60008060408385031215612143578182fd5b505080516020909101519092909150565b60008060008060608587031215612169578182fd5b8435935060208501359250604085013567ffffffffffffffff8082111561218e578384fd5b818701915087601f8301126121a1578384fd5b8135818111156121af578485fd5b8860208285010111156121c0578485fd5b95989497505060200194505050565b6000602082840312156121e0578081fd5b815167ffffffffffffffff8111156121f6578182fd5b8201601f81018413612206578182fd5b8051612214611f23826126ab565b818152856020838501011115612228578384fd5b6118188260208301602086016126cd565b60006020828403121561224a578081fd5b813567ffffffffffffffff80821115612261578283fd5b9083019060a08286031215612274578283fd5b60405160a08101818110838211171561228957fe5b60405282358281111561229a578485fd5b6122a687828601611f05565b8252506122b560208401611efa565b602082015260408301356040820152606083013560608201526080830135608082015280935050505092915050565b600061010082840312156122f6578081fd5b611f848383611f56565b600060208284031215612311578081fd5b813567ffffffffffffffff811115612327578182fd5b820160a08185031215611f84578182fd5b600060208284031215612349578081fd5b813567ffffffffffffffff80821115612360578283fd5b9083019060408286031215612373578283fd5b60405160408101818110838211171561238857fe5b604052823582811115612399578485fd5b6123a587828601611f05565b825250602083013592506123b8836126f9565b6020810192909252509392505050565b6000602082840312156123d9578081fd5b813562ffffff81168114611f84578182fd5b600080604083850312156123fd578182fd5b823591506020830135611fb8816126f9565b60008060008060808587031215612424578182fd5b843593506020850135612436816126f9565b925060408501359150606085013561244d816126f9565b939692955090935050565b600081518084526124708160208601602086016126cd565b601f01601f19169290920160200192915050565b606093841b6bffffffffffffffffffffffff19908116825260e89390931b6001600160e81b0319166014820152921b166017820152602b0190565b6000828483379101908152919050565b6001600160a01b0391909116815260200190565b6001600160a01b0386811682528515156020830152604082018590528316606082015260a06080820181905260009061251e90830184612458565b979650505050505050565b6000602080830181845280855180835260408601915060408482028701019250838701855b8281101561257c57603f1988860301845261256a858351612458565b9450928501929085019060010161254e565b5092979650505050505050565b600060208252611f846020830184612458565b602080825260129082015271151bdbc81b5d58da081c995c5d595cdd195960721b604082015260600190565b602080825260139082015272151bdbc81b1a5d1d1b19481c9958d95a5d9959606a1b604082015260600190565b6000602082528251604060208401526126116060840182612458565b602094909401516001600160a01b0316604093909301929092525090919050565b90815260200190565b6000808335601e19843603018112612651578283fd5b83018035915067ffffffffffffffff82111561266b578283fd5b60200191503681900382131561268057600080fd5b9250929050565b60405181810167ffffffffffffffff811182821017156126a357fe5b604052919050565b600067ffffffffffffffff8211156126bf57fe5b50601f01601f191660200190565b60005b838110156126e85781810151838201526020016126d0565b83811115610ddc5750506000910152565b6001600160a01b038116811461270e57600080fd5b5056fe496e697469616c697a61626c653a20636f6e747261637420697320616c726561647920696e697469616c697a6564a164736f6c6343000706000a",
  "linkReferences": {},
  "deployedLinkReferences": {}
}