{
  "_format": "hh-sol-artifact-1",
  "contractName": "NonfungiblePositionManager",
  "sourceName": "contracts/NonfungiblePositionManager.sol",
  "abi": [
    {
      "anonymous": false,
      "inputs": [
        {
          "indexed": true,
          "internalType": "address",
          "name": "owner",
          "type": "address"
        },
        {
          "indexed": true,
          "internalType": "address",
          "name": "approved",
          "type": "address"
        },
        {
          "indexed": true,
          "internalType": "uint256",
          "name": "tokenId",
          "type": "uint256"
        }
      ],
      "name": "Approval",
      "type": "event"
    },
    {
      "anonymous": false,
      "inputs": [
        {
          "indexed": true,
          "internalType": "address",
          "name": "owner",
          "type": "address"
        },
        {
          "indexed": true,
          "internalType": "address",
          "name": "operator",
          "type": "address"
        },
        {
          "indexed": false,
          "internalType": "bool",
          "name": "approved",
          "type": "bool"
        }
      ],
      "name": "ApprovalForAll",
      "type": "event"
    },
    {
      "anonymous": false,
      "inputs": [
        {
          "indexed": true,
          "internalType": "uint256",
          "name": "tokenId",
          "type": "uint256"
        },
        {
          "indexed": false,
          "internalType": "address",
          "name": "recipient",
          "type": "address"
        },
        {
          "indexed": false,
          "internalType": "uint256",
          "name": "amount0",
          "type": "uint256"
        },
        {
          "indexed": false,
          "internalType": "uint256",
          "name": "amount1",
          "type": "uint256"
        }
      ],
      "name": "Collect",
      "type": "event"
    },
    {
      "anonymous": false,
      "inputs": [
        {
          "indexed": true,
          "internalType": "uint256",
          "name": "tokenId",
          "type": "uint256"
        },
        {
          "indexed": false,
          "internalType": "uint128",
          "name": "liquidity",
          "type": "uint128"
        },
        {
          "indexed": false,
          "internalType": "uint256",
          "name": "amount0",
          "type": "uint256"
        },
        {
          "indexed": false,
          "internalType": "uint256",
          "name": "amount1",
          "type": "uint256"
        }
      ],
      "name": "DecreaseLiquidity",
      "type": "event"
    },
    {
      "anonymous": false,
      "inputs": [
        {
          "indexed": true,
          "internalType": "uint256",
          "name": "tokenId",
          "type": "uint256"
        },
        {
          "indexed": false,
          "internalType": "uint128",
          "name": "liquidity",
          "type": "uint128"
        },
        {
          "indexed": false,
          "internalType": "uint256",
          "name": "amount0",
          "type": "uint256"
        },
        {
          "indexed": false,
          "internalType": "uint256",
          "name": "amount1",
          "type": "uint256"
        }
      ],
      "name": "IncreaseLiquidity",
      "type": "event"
    },
    {
      "anonymous": false,
      "inputs": [
        {
          "indexed": true,
          "internalType": "address",
          "name": "from",
          "type": "address"
        },
        {
          "indexed": true,
          "internalType": "address",
          "name": "to",
          "type": "address"
        },
        {
          "indexed": true,
          "internalType": "uint256",
          "name": "tokenId",
          "type": "uint256"
        }
      ],
      "name": "Transfer",
      "type": "event"
    },
    {
      "inputs": [],
      "name": "DOMAIN_SEPARATOR",
      "outputs": [
        {
          "internalType": "bytes32",
          "name": "",
          "type": "bytes32"
        }
      ],
      "stateMutability": "view",
      "type": "function"
    },
    {
      "inputs": [],
      "name": "PERMIT_TYPEHASH",
      "outputs": [
        {
          "internalType": "bytes32",
          "name": "",
          "type": "bytes32"
        }
      ],
      "stateMutability": "view",
      "type": "function"
    },
    {
      "inputs": [],
      "name": "WETH9",
      "outputs": [
        {
          "internalType": "address",
          "name": "",
          "type": "address"
        }
      ],
      "stateMutability": "view",
      "type": "function"
    },
    {
      "inputs": [
        {
          "internalType": "address",
          "name": "to",
          "type": "address"
        },
        {
          "internalType": "uint256",
          "name": "tokenId",
          "type": "uint256"
        }
      ],
      "name": "approve",
      "outputs": [],
      "stateMutability": "nonpayable",
      "type": "function"
    },
    {
      "inputs": [
        {
          "internalType": "address",
          "name": "owner",
          "type": "address"
        }
      ],
      "name": "balanceOf",
      "outputs": [
        {
          "internalType": "uint256",
          "name": "",
          "type": "uint256"
        }
      ],
      "stateMutability": "view",
      "type": "function"
    },
    {
      "inputs": [],
      "name": "baseURI",
      "outputs": [
        {
          "internalType": "string",
          "name": "",
          "type": "string"
        }
      ],
      "stateMutability": "pure",
      "type": "function"
    },
    {
      "inputs": [
        {
          "internalType": "uint256",
          "name": "tokenId",
          "type": "uint256"
        }
      ],
      "name": "burn",
      "outputs": [],
      "stateMutability": "payable",
      "type": "function"
    },
    {
      "inputs": [
        {
          "components": [
            {
              "internalType": "uint256",
              "name": "tokenId",
              "type": "uint256"
            },
            {
              "internalType": "address",
              "name": "recipient",
              "type": "address"
            },
            {
              "internalType": "uint128",
              "name": "amount0Max",
              "type": "uint128"
            },
            {
              "internalType": "uint128",
              "name": "amount1Max",
              "type": "uint128"
            }
          ],
          "internalType": "struct INonfungiblePositionManager.CollectParams",
          "name": "params",
          "type": "tuple"
        }
      ],
      "name": "collect",
      "outputs": [
        {
          "internalType": "uint256",
          "name": "amount0",
          "type": "uint256"
        },
        {
          "internalType": "uint256",
          "name": "amount1",
          "type": "uint256"
        }
      ],
      "stateMutability": "payable",
      "type": "function"
    },
    {
      "inputs": [
        {
          "internalType": "address",
          "name": "token0",
          "type": "address"
        },
        {
          "internalType": "address",
          "name": "token1",
          "type": "address"
        },
        {
          "internalType": "uint24",
          "name": "fee",
          "type": "uint24"
        },
        {
          "internalType": "uint160",
          "name": "sqrtPriceX96",
          "type": "uint160"
        }
      ],
      "name": "createAndInitializePoolIfNecessary",
      "outputs": [
        {
          "internalType": "address",
          "name": "pool",
          "type": "address"
        }
      ],
      "stateMutability": "payable",
      "type": "function"
    },
    {
      "inputs": [
        {
          "components": [
            {
              "internalType": "uint256",
              "name": "tokenId",
              "type": "uint256"
            },
            {
              "internalType": "uint128",
              "name": "liquidity",
              "type": "uint128"
            },
            {
              "internalType": "uint256",
              "name": "amount0Min",
              "type": "uint256"
            },
            {
              "internalType": "uint256",
              "name": "amount1Min",
              "type": "uint256"
            },
            {
              "internalType": "uint256",
              "name": "deadline",
              "type": "uint256"
            }
          ],
          "internalType": "struct INonfungiblePositionManager.DecreaseLiquidityParams",
          "name": "params",
          "type": "tuple"
        }
      ],
      "name": "decreaseLiquidity",
      "outputs": [
        {
          "internalType": "uint256",
          "name": "amount0",
          "type": "uint256"
        },
        {
          "internalType": "uint256",
          "name": "amount1",
          "type": "uint256"
        }
      ],
      "stateMutability": "payable",
      "type": "function"
    },
    {
      "inputs": [],
      "name": "factory",
      "outputs": [
        {
          "internalType": "address",
          "name": "",
          "type": "address"
        }
      ],
      "stateMutability": "view",
      "type": "function"
    },
    {
      "inputs": [
        {
          "internalType": "uint256",
          "name": "tokenId",
          "type": "uint256"
        }
      ],
      "name": "getApproved",
      "outputs": [
        {
          "internalType": "address",
          "name": "",
          "type": "address"
        }
      ],
      "stateMutability": "view",
      "type": "function"
    },
    {
      "inputs": [
        {
          "components": [
            {
              "internalType": "uint256",
              "name": "tokenId",
              "type": "uint256"
            },
            {
              "internalType": "uint256",
              "name": "amount0Desired",
              "type": "uint256"
            },
            {
              "internalType": "uint256",
              "name": "amount1Desired",
              "type": "uint256"
            },
            {
              "internalType": "uint256",
              "name": "amount0Min",
              "type": "uint256"
            },
            {
              "internalType": "uint256",
              "name": "amount1Min",
              "type": "uint256"
            },
            {
              "internalType": "uint256",
              "name": "deadline",
              "type": "uint256"
            }
          ],
          "internalType": "struct INonfungiblePositionManager.IncreaseLiquidityParams",
          "name": "params",
          "type": "tuple"
        }
      ],
      "name": "increaseLiquidity",
      "outputs": [
        {
          "internalType": "uint128",
          "name": "liquidity",
          "type": "uint128"
        },
        {
          "internalType": "uint256",
          "name": "amount0",
          "type": "uint256"
        },
        {
          "internalType": "uint256",
          "name": "amount1",
          "type": "uint256"
        }
      ],
      "stateMutability": "payable",
      "type": "function"
    },
    {
      "inputs": [
        {
          "internalType": "address",
          "name": "_factory",
          "type": "address"
        },
        {
          "internalType": "address",
          "name": "_WETH9",
          "type": "address"
        },
        {
          "internalType": "address",
          "name": "_tokenDescriptor_",
          "type": "address"
        }
      ],
      "name": "initialize",
      "outputs": [],
      "stateMutability": "nonpayable",
      "type": "function"
    },
    {
      "inputs": [
        {
          "internalType": "address",
          "name": "owner",
          "type": "address"
        },
        {
          "internalType": "address",
          "name": "operator",
          "type": "address"
        }
      ],
      "name": "isApprovedForAll",
      "outputs": [
        {
          "internalType": "bool",
          "name": "",
          "type": "bool"
        }
      ],
      "stateMutability": "view",
      "type": "function"
    },
    {
      "inputs": [
        {
          "components": [
            {
              "internalType": "address",
              "name": "token0",
              "type": "address"
            },
            {
              "internalType": "address",
              "name": "token1",
              "type": "address"
            },
            {
              "internalType": "uint24",
              "name": "fee",
              "type": "uint24"
            },
            {
              "internalType": "int24",
              "name": "tickLower",
              "type": "int24"
            },
            {
              "internalType": "int24",
              "name": "tickUpper",
              "type": "int24"
            },
            {
              "internalType": "uint256",
              "name": "amount0Desired",
              "type": "uint256"
            },
            {
              "internalType": "uint256",
              "name": "amount1Desired",
              "type": "uint256"
            },
            {
              "internalType": "uint256",
              "name": "amount0Min",
              "type": "uint256"
            },
            {
              "internalType": "uint256",
              "name": "amount1Min",
              "type": "uint256"
            },
            {
              "internalType": "address",
              "name": "recipient",
              "type": "address"
            },
            {
              "internalType": "uint256",
              "name": "deadline",
              "type": "uint256"
            }
          ],
          "internalType": "struct INonfungiblePositionManager.MintParams",
          "name": "params",
          "type": "tuple"
        }
      ],
      "name": "mint",
      "outputs": [
        {
          "internalType": "uint256",
          "name": "tokenId",
          "type": "uint256"
        },
        {
          "internalType": "uint128",
          "name": "liquidity",
          "type": "uint128"
        },
        {
          "internalType": "uint256",
          "name": "amount0",
          "type": "uint256"
        },
        {
          "internalType": "uint256",
          "name": "amount1",
          "type": "uint256"
        }
      ],
      "stateMutability": "payable",
      "type": "function"
    },
    {
      "inputs": [
        {
          "internalType": "uint256",
          "name": "amount0Owed",
          "type": "uint256"
        },
        {
          "internalType": "uint256",
          "name": "amount1Owed",
          "type": "uint256"
        },
        {
          "internalType": "bytes",
          "name": "data",
          "type": "bytes"
        }
      ],
      "name": "mintCallback",
      "outputs": [],
      "stateMutability": "nonpayable",
      "type": "function"
    },
    {
      "inputs": [
        {
          "internalType": "bytes[]",
          "name": "data",
          "type": "bytes[]"
        }
      ],
      "name": "multicall",
      "outputs": [
        {
          "internalType": "bytes[]",
          "name": "results",
          "type": "bytes[]"
        }
      ],
      "stateMutability": "payable",
      "type": "function"
    },
    {
      "inputs": [],
      "name": "name",
      "outputs": [
        {
          "internalType": "string",
          "name": "",
          "type": "string"
        }
      ],
      "stateMutability": "view",
      "type": "function"
    },
    {
      "inputs": [
        {
          "internalType": "uint256",
          "name": "tokenId",
          "type": "uint256"
        }
      ],
      "name": "ownerOf",
      "outputs": [
        {
          "internalType": "address",
          "name": "",
          "type": "address"
        }
      ],
      "stateMutability": "view",
      "type": "function"
    },
    {
      "inputs": [
        {
          "internalType": "address",
          "name": "spender",
          "type": "address"
        },
        {
          "internalType": "uint256",
          "name": "tokenId",
          "type": "uint256"
        },
        {
          "internalType": "uint256",
          "name": "deadline",
          "type": "uint256"
        },
        {
          "internalType": "uint8",
          "name": "v",
          "type": "uint8"
        },
        {
          "internalType": "bytes32",
          "name": "r",
          "type": "bytes32"
        },
        {
          "internalType": "bytes32",
          "name": "s",
          "type": "bytes32"
        }
      ],
      "name": "permit",
      "outputs": [],
      "stateMutability": "payable",
      "type": "function"
    },
    {
      "inputs": [
        {
          "internalType": "uint256",
          "name": "tokenId",
          "type": "uint256"
        }
      ],
      "name": "positions",
      "outputs": [
        {
          "internalType": "uint96",
          "name": "nonce",
          "type": "uint96"
        },
        {
          "internalType": "address",
          "name": "operator",
          "type": "address"
        },
        {
          "internalType": "address",
          "name": "token0",
          "type": "address"
        },
        {
          "internalType": "address",
          "name": "token1",
          "type": "address"
        },
        {
          "internalType": "uint24",
          "name": "fee",
          "type": "uint24"
        },
        {
          "internalType": "int24",
          "name": "tickLower",
          "type": "int24"
        },
        {
          "internalType": "int24",
          "name": "tickUpper",
          "type": "int24"
        },
        {
          "internalType": "uint128",
          "name": "liquidity",
          "type": "uint128"
        },
        {
          "internalType": "uint256",
          "name": "feeGrowthInside0LastX128",
          "type": "uint256"
        },
        {
          "internalType": "uint256",
          "name": "feeGrowthInside1LastX128",
          "type": "uint256"
        },
        {
          "internalType": "uint128",
          "name": "tokensOwed0",
          "type": "uint128"
        },
        {
          "internalType": "uint128",
          "name": "tokensOwed1",
          "type": "uint128"
        }
      ],
      "stateMutability": "view",
      "type": "function"
    },
    {
      "inputs": [],
      "name": "refundETH",
      "outputs": [],
      "stateMutability": "payable",
      "type": "function"
    },
    {
      "inputs": [
        {
          "internalType": "address",
          "name": "from",
          "type": "address"
        },
        {
          "internalType": "address",
          "name": "to",
          "type": "address"
        },
        {
          "internalType": "uint256",
          "name": "tokenId",
          "type": "uint256"
        }
      ],
      "name": "safeTransferFrom",
      "outputs": [],
      "stateMutability": "nonpayable",
      "type": "function"
    },
    {
      "inputs": [
        {
          "internalType": "address",
          "name": "from",
          "type": "address"
        },
        {
          "internalType": "address",
          "name": "to",
          "type": "address"
        },
        {
          "internalType": "uint256",
          "name": "tokenId",
          "type": "uint256"
        },
        {
          "internalType": "bytes",
          "name": "_data",
          "type": "bytes"
        }
      ],
      "name": "safeTransferFrom",
      "outputs": [],
      "stateMutability": "nonpayable",
      "type": "function"
    },
    {
      "inputs": [
        {
          "internalType": "address",
          "name": "token",
          "type": "address"
        },
        {
          "internalType": "uint256",
          "name": "value",
          "type": "uint256"
        },
        {
          "internalType": "uint256",
          "name": "deadline",
          "type": "uint256"
        },
        {
          "internalType": "uint8",
          "name": "v",
          "type": "uint8"
        },
        {
          "internalType": "bytes32",
          "name": "r",
          "type": "bytes32"
        },
        {
          "internalType": "bytes32",
          "name": "s",
          "type": "bytes32"
        }
      ],
      "name": "selfPermit",
      "outputs": [],
      "stateMutability": "payable",
      "type": "function"
    },
    {
      "inputs": [
        {
          "internalType": "address",
          "name": "token",
          "type": "address"
        },
        {
          "internalType": "uint256",
          "name": "nonce",
          "type": "uint256"
        },
        {
          "internalType": "uint256",
          "name": "expiry",
          "type": "uint256"
        },
        {
          "internalType": "uint8",
          "name": "v",
          "type": "uint8"
        },
        {
          "internalType": "bytes32",
          "name": "r",
          "type": "bytes32"
        },
        {
          "internalType": "bytes32",
          "name": "s",
          "type": "bytes32"
        }
      ],
      "name": "selfPermitAllowed",
      "outputs": [],
      "stateMutability": "payable",
      "type": "function"
    },
    {
      "inputs": [
        {
          "internalType": "address",
          "name": "token",
          "type": "address"
        },
        {
          "internalType": "uint256",
          "name": "nonce",
          "type": "uint256"
        },
        {
          "internalType": "uint256",
          "name": "expiry",
          "type": "uint256"
        },
        {
          "internalType": "uint8",
          "name": "v",
          "type": "uint8"
        },
        {
          "internalType": "bytes32",
          "name": "r",
          "type": "bytes32"
        },
        {
          "internalType": "bytes32",
          "name": "s",
          "type": "bytes32"
        }
      ],
      "name": "selfPermitAllowedIfNecessary",
      "outputs": [],
      "stateMutability": "payable",
      "type": "function"
    },
    {
      "inputs": [
        {
          "internalType": "address",
          "name": "token",
          "type": "address"
        },
        {
          "internalType": "uint256",
          "name": "value",
          "type": "uint256"
        },
        {
          "internalType": "uint256",
          "name": "deadline",
          "type": "uint256"
        },
        {
          "internalType": "uint8",
          "name": "v",
          "type": "uint8"
        },
        {
          "internalType": "bytes32",
          "name": "r",
          "type": "bytes32"
        },
        {
          "internalType": "bytes32",
          "name": "s",
          "type": "bytes32"
        }
      ],
      "name": "selfPermitIfNecessary",
      "outputs": [],
      "stateMutability": "payable",
      "type": "function"
    },
    {
      "inputs": [
        {
          "internalType": "address",
          "name": "operator",
          "type": "address"
        },
        {
          "internalType": "bool",
          "name": "approved",
          "type": "bool"
        }
      ],
      "name": "setApprovalForAll",
      "outputs": [],
      "stateMutability": "nonpayable",
      "type": "function"
    },
    {
      "inputs": [
        {
          "internalType": "bytes4",
          "name": "interfaceId",
          "type": "bytes4"
        }
      ],
      "name": "supportsInterface",
      "outputs": [
        {
          "internalType": "bool",
          "name": "",
          "type": "bool"
        }
      ],
      "stateMutability": "view",
      "type": "function"
    },
    {
      "inputs": [
        {
          "internalType": "address",
          "name": "token",
          "type": "address"
        },
        {
          "internalType": "uint256",
          "name": "amountMinimum",
          "type": "uint256"
        },
        {
          "internalType": "address",
          "name": "recipient",
          "type": "address"
        }
      ],
      "name": "sweepToken",
      "outputs": [],
      "stateMutability": "payable",
      "type": "function"
    },
    {
      "inputs": [],
      "name": "symbol",
      "outputs": [
        {
          "internalType": "string",
          "name": "",
          "type": "string"
        }
      ],
      "stateMutability": "view",
      "type": "function"
    },
    {
      "inputs": [
        {
          "internalType": "uint256",
          "name": "index",
          "type": "uint256"
        }
      ],
      "name": "tokenByIndex",
      "outputs": [
        {
          "internalType": "uint256",
          "name": "",
          "type": "uint256"
        }
      ],
      "stateMutability": "view",
      "type": "function"
    },
    {
      "inputs": [
        {
          "internalType": "address",
          "name": "owner",
          "type": "address"
        },
        {
          "internalType": "uint256",
          "name": "index",
          "type": "uint256"
        }
      ],
      "name": "tokenOfOwnerByIndex",
      "outputs": [
        {
          "internalType": "uint256",
          "name": "",
          "type": "uint256"
        }
      ],
      "stateMutability": "view",
      "type": "function"
    },
    {
      "inputs": [
        {
          "internalType": "uint256",
          "name": "tokenId",
          "type": "uint256"
        }
      ],
      "name": "tokenURI",
      "outputs": [
        {
          "internalType": "string",
          "name": "",
          "type": "string"
        }
      ],
      "stateMutability": "view",
      "type": "function"
    },
    {
      "inputs": [],
      "name": "totalSupply",
      "outputs": [
        {
          "internalType": "uint256",
          "name": "",
          "type": "uint256"
        }
      ],
      "stateMutability": "view",
      "type": "function"
    },
    {
      "inputs": [
        {
          "internalType": "address",
          "name": "from",
          "type": "address"
        },
        {
          "internalType": "address",
          "name": "to",
          "type": "address"
        },
        {
          "internalType": "uint256",
          "name": "tokenId",
          "type": "uint256"
        }
      ],
      "name": "transferFrom",
      "outputs": [],
      "stateMutability": "nonpayable",
      "type": "function"
    },
    {
      "inputs": [
        {
          "internalType": "uint256",
          "name": "amountMinimum",
          "type": "uint256"
        },
        {
          "internalType": "address",
          "name": "recipient",
          "type": "address"
        }
      ],
      "name": "unwrapWETH9",
      "outputs": [],
      "stateMutability": "payable",
      "type": "function"
    },
    {
      "stateMutability": "payable",
      "type": "receive"
    }
  ],
  "bytecode": "0x6080604052609e80546001600160b01b0319166001176001600160b01b0316600160b01b17905534801561003257600080fd5b50615edd80620000436000396000f3fe6080604052600436106102345760003560e01c80636352211e1161012e578063ac9650d8116100ab578063c87b56dd1161006f578063c87b56dd1461065b578063df2ab5bb1461067b578063e985e9c51461068e578063f3995c67146106ae578063fc6f7865146106c157610286565b8063ac9650d8146105d3578063b88d4fde146105f3578063c0c53b8b14610613578063c2e3140a14610633578063c45a01551461064657610286565b806395d89b41116100f257806395d89b411461053357806399fbab88146105485780639f382e9b14610580578063a22cb465146105a0578063a4a78f0c146105c057610286565b80636352211e146104a85780636c0360eb146104c857806370a08231146104dd5780637ac2ff7b146104fd578063883164561461051057610286565b806323b872dd116101bc57806342966c681161018057806342966c681461043a5780634659a4941461044d57806349404b7c146104605780634aa4a4fc146104735780634f6ccce71461048857610286565b806323b872dd146103b05780632f745c59146103d057806330adf81f146103f05780633644e5151461040557806342842e0e1461041a57610286565b80630c49ccbe116102035780630c49ccbe1461033057806312210e8a1461035157806313ead5621461035957806318160ddd1461036c578063219f5d171461038e57610286565b806301ffc9a71461028b57806306fdde03146102c1578063081812fc146102e3578063095ea7b31461031057610286565b3661028657609a546001600160a01b03163314610284576040805162461bcd60e51b81526020600482015260096024820152684e6f7420574554483960b81b604482015290519081900360640190fd5b005b600080fd5b34801561029757600080fd5b506102ab6102a63660046153b9565b6106d4565b6040516102b891906158fa565b60405180910390f35b3480156102cd57600080fd5b506102d66106f7565b6040516102b8919061594d565b3480156102ef57600080fd5b506103036102fe3660046156b3565b61078d565b6040516102b891906157dd565b34801561031c57600080fd5b5061028461032b36600461528e565b6107e0565b61034361033e36600461547e565b6108b6565b6040516102b8929190615ad4565b610284610ce2565b610303610367366004615121565b610cf4565b34801561037857600080fd5b50610381610f92565b6040516102b89190615905565b6103a161039c36600461548f565b610fa3565b6040516102b893929190615a8f565b3480156103bc57600080fd5b506102846103cb36600461517a565b6112b8565b3480156103dc57600080fd5b506103816103eb36600461528e565b61130f565b3480156103fc57600080fd5b5061038161133a565b34801561041157600080fd5b5061038161135e565b34801561042657600080fd5b5061028461043536600461517a565b6113e0565b6102846104483660046156b3565b6113fb565b61028461045b3660046152ef565b6114ca565b61028461046e3660046156cb565b611564565b34801561047f57600080fd5b5061030361169c565b34801561049457600080fd5b506103816104a33660046156b3565b6116ab565b3480156104b457600080fd5b506103036104c33660046156b3565b6116c1565b3480156104d457600080fd5b506102d66116e9565b3480156104e957600080fd5b506103816104f8366004615083565b6116ee565b61028461050b3660046152ef565b611756565b61052361051e36600461554b565b611b48565b6040516102b89493929190615ab0565b34801561053f57600080fd5b506102d6612060565b34801561055457600080fd5b506105686105633660046156b3565b6120c1565b6040516102b89c9b9a99989796959493929190615ae2565b34801561058c57600080fd5b5061028461059b366004615712565b6122d2565b3480156105ac57600080fd5b506102846105bb366004615261565b61233d565b6102846105ce3660046152ef565b612442565b6105e66105e136600461534a565b6124db565b6040516102b8919061589a565b3480156105ff57600080fd5b5061028461060e3660046151ba565b61261b565b34801561061f57600080fd5b5061028461062e3660046150d7565b612679565b6102846106413660046152ef565b6127a8565b34801561065257600080fd5b50610303612837565b34801561066757600080fd5b506102d66106763660046156b3565b612846565b6102846106893660046152b9565b6128e0565b34801561069a57600080fd5b506102ab6106a936600461509f565b6129b8565b6102846106bc3660046152ef565b6129e6565b6103436106cf366004615467565b612a58565b6001600160e01b0319811660009081526033602052604090205460ff165b919050565b606a8054604080516020601f60026000196101006001881615020190951694909404938401819004810282018101909252828152606093909290918301828280156107835780601f1061075857610100808354040283529160200191610783565b820191906000526020600020905b81548152906001019060200180831161076657829003601f168201915b5050505050905090565b600061079882612f0a565b6107bd5760405162461bcd60e51b81526004016107b490615986565b60405180910390fd5b506000908152609d6020526040902054600160601b90046001600160a01b031690565b60006107eb826116c1565b9050806001600160a01b0316836001600160a01b0316141561083e5760405162461bcd60e51b8152600401808060200182810382526021815260200180615e7f6021913960400191505060405180910390fd5b806001600160a01b0316610850612f17565b6001600160a01b0316148061086c575061086c816106a9612f17565b6108a75760405162461bcd60e51b8152600401808060200182810382526038815260200180615d7b6038913960400191505060405180910390fd5b6108b18383612f1b565b505050565b60008082356108c53382612f91565b6108e15760405162461bcd60e51b81526004016107b490615960565b8360800135806108ef61302d565b1115610938576040805162461bcd60e51b8152602060048201526013602482015272151c985b9cd858dd1a5bdb881d1bdbc81bdb19606a1b604482015290519081900360640190fd5b600061094a604087016020880161555d565b6001600160801b03161161095d57600080fd5b84356000908152609d602090815260409182902060018101549092600160801b9091046001600160801b03169161099891890190890161555d565b6001600160801b0316816001600160801b031610156109b657600080fd5b6001828101546001600160501b03166000908152609c60209081526040808320815160608101835281546001600160a01b039081168252919095015480821693860193909352600160a01b90920462ffffff1690840152609954610a1b911683613031565b60018501549091506001600160a01b0382169063a34123a790600160501b8104600290810b91600160681b9004900b610a5a60408e0160208f0161555d565b6040518463ffffffff1660e01b8152600401610a7893929190615927565b6040805180830381600087803b158015610a9157600080fd5b505af1158015610aa5573d6000803e3d6000fd5b505050506040513d601f19601f82011682018060405250810190610ac991906156ef565b909850965060408901358810801590610ae6575088606001358710155b610b025760405162461bcd60e51b81526004016107b4906159d2565b6001840154600090610b2b903090600160501b8104600290810b91600160681b9004900b6130f0565b9050600080836001600160a01b031663514ea4bf846040518263ffffffff1660e01b8152600401610b5c9190615905565b60a06040518083038186803b158015610b7457600080fd5b505afa158015610b88573d6000803e3d6000fd5b505050506040513d601f19601f82011682018060405250810190610bac91906155a7565b50509250925050610bd187600201548303876001600160801b0316600160801b61314a565b6004880180546001600160801b03198116928e016001600160801b039182160181169290921790556003880154610c1291908303908816600160801b61314a565b6004880180546001600160801b03808216938e01600160801b9283900482160116029190911790556002870182905560038701819055610c5860408d0160208e0161555d565b86038760010160106101000a8154816001600160801b0302191690836001600160801b031602179055508b600001357f26f6a048ee9138f2c0ce266f322cb99228e8d619ae2bff30c67f8dcf9d2377b48d6020016020810190610cbb919061555d565b8d8d604051610ccc93929190615a8f565b60405180910390a2505050505050505050915091565b4715610cf257610cf233476131f9565b565b6000836001600160a01b0316856001600160a01b031610610d1457600080fd5b60995460408051630b4c774160e11b81526001600160a01b038881166004830152878116602483015262ffffff8716604483015291519190921691631698ee82916064808301926020929190829003018186803b158015610d7457600080fd5b505afa158015610d88573d6000803e3d6000fd5b505050506040513d6020811015610d9e57600080fd5b505190506001600160a01b038116610ea9576099546040805163a167129560e01b81526001600160a01b038881166004830152878116602483015262ffffff871660448301529151919092169163a16712959160648083019260209291908290030181600087803b158015610e1257600080fd5b505af1158015610e26573d6000803e3d6000fd5b505050506040513d6020811015610e3c57600080fd5b50516040805163f637731d60e01b81526001600160a01b03858116600483015291519293509083169163f637731d9160248082019260009290919082900301818387803b158015610e8c57600080fd5b505af1158015610ea0573d6000803e3d6000fd5b50505050610f8a565b6000816001600160a01b0316633850c7bd6040518163ffffffff1660e01b815260040160e06040518083038186803b158015610ee457600080fd5b505afa158015610ef8573d6000803e3d6000fd5b505050506040513d60e0811015610f0e57600080fd5b505190506001600160a01b038116610f8857816001600160a01b031663f637731d846040518263ffffffff1660e01b815260040180826001600160a01b03168152602001915050600060405180830381600087803b158015610f6f57600080fd5b505af1158015610f83573d6000803e3d6000fd5b505050505b505b949350505050565b6000610f9e60666132e8565b905090565b60008060008360a0013580610fb661302d565b1115610fff576040805162461bcd60e51b8152602060048201526013602482015272151c985b9cd858dd1a5bdb881d1bdbc81bdb19606a1b604482015290519081900360640190fd5b84356000908152609d602090815260408083206001808201546001600160501b0381168652609c855283862084516060808201875282546001600160a01b039081168352929094015480831682890190815262ffffff600160a01b9092048216838901908152885161014081018a528451861681529151909416818a0152925116828701523082850152600160501b8304600290810b810b608080850191909152600160681b909404810b900b60a0830152958c013560c0820152938b013560e0850152908a013561010084015289013561012083015292906110e1906132f3565b6001870154939a5091985096509150600090611114903090600160501b8104600290810b91600160681b9004900b6130f0565b9050600080836001600160a01b031663514ea4bf846040518263ffffffff1660e01b81526004016111459190615905565b60a06040518083038186803b15801561115d57600080fd5b505afa158015611171573d6000803e3d6000fd5b505050506040513d601f19601f8201168201806040525081019061119591906155a7565b505092509250506111d1866002015483038760010160109054906101000a90046001600160801b03166001600160801b0316600160801b61314a565b6004870180546001600160801b0380821690930183166001600160801b0319909116179055600387015460018801546112189291840391600160801b91829004169061314a565b6004870180546001600160801b03600160801b80830482169094018116840291811691909117909155600288018490556003880183905560018801805483810483168e018316909302929091169190911790556040518b35907f3067048beee31b25b2f1681f88dac838c8bba36af25bfb2b7cf7473a5847e35f906112a2908d908d908d90615a8f565b60405180910390a2505050505050509193909250565b6112c96112c3612f17565b82612f91565b6113045760405162461bcd60e51b8152600401808060200182810382526031815260200180615ea06031913960400191505060405180910390fd5b6108b1838383613508565b6001600160a01b03821660009081526065602052604081206113319083613654565b90505b92915050565b7f49ecf333e5b8c95c40fdafc95c1ad136e8914a8fb55e9dc8bb01eaa83a2df9ad81565b60007f8b73c3c69bb8fe3d512ecc4cf759cc79239f7b179b0ffacaa9a75d522b39400f60975460985461138f613660565b3060405160200180868152602001858152602001848152602001838152602001826001600160a01b031681526020019550505050505060405160208183030381529060405280519060200120905090565b6108b18383836040518060200160405280600081525061261b565b806114063382612f91565b6114225760405162461bcd60e51b81526004016107b490615960565b6000828152609d602052604090206001810154600160801b90046001600160801b031615801561145d575060048101546001600160801b0316155b801561147b57506004810154600160801b90046001600160801b0316155b6114975760405162461bcd60e51b81526004016107b490615a2a565b6000838152609d60205260408120818155600181018290556002810182905560038101829055600401556108b183613664565b604080516323f2ebc360e21b815233600482015230602482015260448101879052606481018690526001608482015260ff851660a482015260c4810184905260e4810183905290516001600160a01b03881691638fcbaf0c9161010480830192600092919082900301818387803b15801561154457600080fd5b505af1158015611558573d6000803e3d6000fd5b50505050505050505050565b609a54604080516370a0823160e01b815230600482015290516000926001600160a01b0316916370a08231916024808301926020929190829003018186803b1580156115af57600080fd5b505afa1580156115c3573d6000803e3d6000fd5b505050506040513d60208110156115d957600080fd5b5051905082811015611627576040805162461bcd60e51b8152602060048201526012602482015271496e73756666696369656e7420574554483960701b604482015290519081900360640190fd5b80156108b157609a5460408051632e1a7d4d60e01b81526004810184905290516001600160a01b0390921691632e1a7d4d9160248082019260009290919082900301818387803b15801561167a57600080fd5b505af115801561168e573d6000803e3d6000fd5b505050506108b182826131f9565b609a546001600160a01b031681565b6000806116b9606684613731565b509392505050565b600061133482604051806060016040528060298152602001615ddd602991396066919061374f565b606090565b60006001600160a01b0382166117355760405162461bcd60e51b815260040180806020018281038252602a815260200180615db3602a913960400191505060405180910390fd5b6001600160a01b0382166000908152606560205260409020611334906132e8565b8361175f61302d565b11156117a3576040805162461bcd60e51b815260206004820152600e60248201526d14195c9b5a5d08195e1c1a5c995960921b604482015290519081900360640190fd5b60006117ad61135e565b7f49ecf333e5b8c95c40fdafc95c1ad136e8914a8fb55e9dc8bb01eaa83a2df9ad88886117d98161375c565b604080516020808201969096526001600160a01b03909416848201526060840192909252608083015260a08083018a90528151808403909101815260c08301825280519084012061190160f01b60e084015260e283019490945261010280830194909452805180830390940184526101229091019052815191012090506000611861876116c1565b9050806001600160a01b0316886001600160a01b031614156118b45760405162461bcd60e51b8152600401808060200182810382526027815260200180615cde6027913960400191505060405180910390fd5b6118bd81613796565b15611a25576040805160208082018790528183018690526001600160f81b031960f889901b1660608301528251604181840301815260618301808552630b135d3f60e11b90526065830186815260858401948552815160a585015281516001600160a01b03871695631626ba7e958995919260c59091019185019080838360005b8381101561195657818101518382015260200161193e565b50505050905090810190601f1680156119835780820380516001836020036101000a031916815260200191505b50935050505060206040518083038186803b1580156119a157600080fd5b505afa1580156119b5573d6000803e3d6000fd5b505050506040513d60208110156119cb57600080fd5b50516001600160e01b031916630b135d3f60e11b14611a20576040805162461bcd60e51b815260206004820152600c60248201526b155b985d5d1a1bdc9a5e995960a21b604482015290519081900360640190fd5b611b34565b600060018387878760405160008152602001604052604051808581526020018460ff1681526020018381526020018281526020019450505050506020604051602081039080840390855afa158015611a81573d6000803e3d6000fd5b5050604051601f1901519150506001600160a01b038116611add576040805162461bcd60e51b8152602060048201526011602482015270496e76616c6964207369676e617475726560781b604482015290519081900360640190fd5b816001600160a01b0316816001600160a01b031614611b32576040805162461bcd60e51b815260206004820152600c60248201526b155b985d5d1a1bdc9a5e995960a21b604482015290519081900360640190fd5b505b611b3e8888612f1b565b5050505050505050565b60008060008084610140013580611b5d61302d565b1115611ba6576040805162461bcd60e51b8152602060048201526013602482015272151c985b9cd858dd1a5bdb881d1bdbc81bdb19606a1b604482015290519081900360640190fd5b604080516101408101909152600090611c729080611bc760208b018b615083565b6001600160a01b03168152602001896020016020810190611be89190615083565b6001600160a01b03168152602001611c0660608b0160408c01615699565b62ffffff168152306020820152604001611c2660808b0160608c016153e1565b60020b8152602001611c3e60a08b0160808c016153e1565b60020b81526020018960a0013581526020018960c0013581526020018960e0013581526020018961010001358152506132f3565b92975090955093509050611cbf611c9161014089016101208a01615083565b609e80546001600160b01b0319811660016001600160b01b039283169081019092161790915597508761379c565b6000611cea30611cd560808b0160608c016153e1565b611ce560a08c0160808d016153e1565b6130f0565b9050600080836001600160a01b031663514ea4bf846040518263ffffffff1660e01b8152600401611d1b9190615905565b60a06040518083038186803b158015611d3357600080fd5b505afa158015611d47573d6000803e3d6000fd5b505050506040513d601f19601f82011682018060405250810190611d6b91906155a7565b505092509250506000611de48560405180606001604052808e6000016020810190611d969190615083565b6001600160a01b031681526020018e6020016020810190611db79190615083565b6001600160a01b031681526020018e6040016020810190611dd89190615699565b62ffffff1690526138ca565b905060405180610140016040528060006001600160601b0316815260200160006001600160a01b03168152602001826001600160501b031681526020018c6060016020810190611e3491906153e1565b60020b8152602001611e4c60a08e0160808f016153e1565b60020b81526020018a6001600160801b0316815260200184815260200183815260200160006001600160801b0316815260200160006001600160801b0316815250609d60008c815260200190815260200160002060008201518160000160006101000a8154816001600160601b0302191690836001600160601b03160217905550602082015181600001600c6101000a8154816001600160a01b0302191690836001600160a01b0316021790555060408201518160010160006101000a8154816001600160501b0302191690836001600160501b03160217905550606082015181600101600a6101000a81548162ffffff021916908360020b62ffffff160217905550608082015181600101600d6101000a81548162ffffff021916908360020b62ffffff16021790555060a08201518160010160106101000a8154816001600160801b0302191690836001600160801b0316021790555060c0820151816002015560e082015181600301556101008201518160040160006101000a8154816001600160801b0302191690836001600160801b031602179055506101208201518160040160106101000a8154816001600160801b0302191690836001600160801b03160217905550905050897f3067048beee31b25b2f1681f88dac838c8bba36af25bfb2b7cf7473a5847e35f8a8a8a60405161204b93929190615a8f565b60405180910390a25050505050509193509193565b606b8054604080516020601f60026000196101006001881615020190951694909404938401819004810282018101909252828152606093909290918301828280156107835780601f1061075857610100808354040283529160200191610783565b6000818152609d6020908152604080832081516101408101835281546001600160601b03811682526001600160a01b03600160601b909104169381019390935260018101546001600160501b038116928401839052600160501b8104600290810b810b810b6060860152600160681b8204810b810b810b60808601526001600160801b03600160801b92839004811660a08701529083015460c0860152600383015460e0860152600490920154808316610100860152041661012083015282918291829182918291829182918291829182918291906121b25760405162461bcd60e51b81526004016107b490615a00565b6000609c600083604001516001600160501b03166001600160501b031681526020019081526020016000206040518060600160405290816000820160009054906101000a90046001600160a01b03166001600160a01b03166001600160a01b031681526020016001820160009054906101000a90046001600160a01b03166001600160a01b03166001600160a01b031681526020016001820160149054906101000a900462ffffff1662ffffff1662ffffff1681525050905081600001518260200151826000015183602001518460400151866060015187608001518860a001518960c001518a60e001518b61010001518c61012001519d509d509d509d509d509d509d509d509d509d509d509d50505091939597999b5091939597999b565b60006122e0828401846154a0565b60995481519192506122fd916001600160a01b03909116906139ac565b508415612318578051516020820151612318919033886139cf565b831561233657612336816000015160200151826020015133876139cf565b5050505050565b612345612f17565b6001600160a01b0316826001600160a01b031614156123ab576040805162461bcd60e51b815260206004820152601960248201527f4552433732313a20617070726f766520746f2063616c6c657200000000000000604482015290519081900360640190fd5b80606960006123b8612f17565b6001600160a01b03908116825260208083019390935260409182016000908120918716808252919093529120805460ff1916921515929092179091556123fc612f17565b6001600160a01b03167f17307eab39ab6107e8899845ad3d59bd9653f200f220920489ca2b5937696c318360405180821515815260200191505060405180910390a35050565b60408051636eb1769f60e11b81523360048201523060248201529051600019916001600160a01b0389169163dd62ed3e91604480820192602092909190829003018186803b15801561249357600080fd5b505afa1580156124a7573d6000803e3d6000fd5b505050506040513d60208110156124bd57600080fd5b505110156124d3576124d38686868686866114ca565b505050505050565b60608167ffffffffffffffff811180156124f457600080fd5b5060405190808252806020026020018201604052801561252857816020015b60608152602001906001900390816125135790505b50905060005b82811015612614576000803086868581811061254657fe5b90506020028101906125589190615b7c565b6040516125669291906157cd565b600060405180830381855af49150503d80600081146125a1576040519150601f19603f3d011682016040523d82523d6000602084013e6125a6565b606091505b5091509150816125f2576044815110156125bf57600080fd5b600481019050808060200190518101906125d991906153fd565b60405162461bcd60e51b81526004016107b4919061594d565b808484815181106125ff57fe5b6020908102919091010152505060010161252e565b5092915050565b61262c612626612f17565b83612f91565b6126675760405162461bcd60e51b8152600401808060200182810382526031815260200180615ea06031913960400191505060405180910390fd5b61267384848484613b0d565b50505050565b600054610100900460ff16806126925750612692613b5f565b806126a0575060005460ff16155b6126db5760405162461bcd60e51b815260040180806020018281038252602e815260200180615e06602e913960400191505060405180910390fd5b600054610100900460ff16158015612706576000805460ff1961ff0019909116610100171660011790555b609f80546001600160a01b0319166001600160a01b038416179055604080518082018252601181527020506f736974696f6e73204e46542d563160781b602080830191909152825180840184526007815266554e492d504f5360c81b81830152835180850190945260018452603160f81b9184019190915261278792613b70565b6127918484613c35565b8015612673576000805461ff001916905550505050565b60408051636eb1769f60e11b8152336004820152306024820152905186916001600160a01b0389169163dd62ed3e91604480820192602092909190829003018186803b1580156127f757600080fd5b505afa15801561280b573d6000803e3d6000fd5b505050506040513d602081101561282157600080fd5b505110156124d3576124d38686868686866129e6565b6099546001600160a01b031681565b606061285182612f0a565b61285a57600080fd5b609f5460405163e9dc637560e01b81526001600160a01b039091169063e9dc63759061288c903090869060040161590e565b60006040518083038186803b1580156128a457600080fd5b505afa1580156128b8573d6000803e3d6000fd5b505050506040513d6000823e601f3d908101601f1916820160405261133491908101906153fd565b6000836001600160a01b03166370a08231306040518263ffffffff1660e01b815260040180826001600160a01b0316815260200191505060206040518083038186803b15801561292f57600080fd5b505afa158015612943573d6000803e3d6000fd5b505050506040513d602081101561295957600080fd5b50519050828110156129a7576040805162461bcd60e51b815260206004820152601260248201527124b739bab33334b1b4b2b73a103a37b5b2b760711b604482015290519081900360640190fd5b801561267357612673848383613d08565b6001600160a01b03918216600090815260696020908152604080832093909416825291909152205460ff1690565b6040805163d505accf60e01b8152336004820152306024820152604481018790526064810186905260ff8516608482015260a4810184905260c4810183905290516001600160a01b0388169163d505accf9160e480830192600092919082900301818387803b15801561154457600080fd5b6000808235612a673382612f91565b612a835760405162461bcd60e51b81526004016107b490615960565b6000612a95606086016040870161555d565b6001600160801b03161180612ac257506000612ab7608086016060870161555d565b6001600160801b0316115b612acb57600080fd5b600080612ade6040870160208801615083565b6001600160a01b031614612b0157612afc6040860160208701615083565b612b03565b305b85356000908152609d602090815260408083206001808201546001600160501b03168552609c8452828520835160608101855281546001600160a01b039081168252919092015480821695830195909552600160a01b90940462ffffff169281019290925260995494955093909291612b7d911683613031565b600484015460018501549192506001600160801b0380821692600160801b9283900482169290041615612d7357600185015460405163a34123a760e01b81526001600160a01b0385169163a34123a791612bf491600160501b8104600290810b92600160681b909204900b90600090600401615927565b6040805180830381600087803b158015612c0d57600080fd5b505af1158015612c21573d6000803e3d6000fd5b505050506040513d601f19601f82011682018060405250810190612c4591906156ef565b5050600185015460009081906001600160a01b0386169063514ea4bf90612c83903090600160501b8104600290810b91600160681b9004900b6130f0565b6040518263ffffffff1660e01b8152600401612c9f9190615905565b60a06040518083038186803b158015612cb757600080fd5b505afa158015612ccb573d6000803e3d6000fd5b505050506040513d601f19601f82011682018060405250810190612cef91906155a7565b50509250925050612d2b876002015483038860010160109054906101000a90046001600160801b03166001600160801b0316600160801b61314a565b84019350612d64876003015482038860010160109054906101000a90046001600160801b03166001600160801b0316600160801b61314a565b60028801929092556003870155015b6000806001600160801b038416612d9060608e0160408f0161555d565b6001600160801b031611612db357612dae60608d0160408e0161555d565b612db5565b835b836001600160801b03168d6060016020810190612dd2919061555d565b6001600160801b031611612df557612df060808e0160608f0161555d565b612df7565b835b60018901546040516309e3d67b60e31b81529294509092506001600160a01b03871691634f1eb3d891612e4a918c91600160501b8104600290810b92600160681b909204900b9088908890600401615833565b6040805180830381600087803b158015612e6357600080fd5b505af1158015612e77573d6000803e3d6000fd5b505050506040513d601f19601f82011682018060405250810190612e9b9190615579565b6004890180546001600160801b03196001600160801b03918216600160801b878a0384160217168689038216179091556040519281169d50169a508c35907f40d0efd1a53d60ecbf40971b9daf7dc90178c3aadc7aab1765632738fa8b8f0190610ccc908b9086908690615870565b6000611334606683613e4f565b3390565b6000818152609d6020526040902080546001600160601b0316600160601b6001600160a01b038516908102919091179091558190612f58826116c1565b6001600160a01b03167f8c5be1e5ebec7d5bd14f71427d1e84f3dd0314c0f7b2291e5b200ac8c7c3b92560405160405180910390a45050565b6000612f9c82612f0a565b612fd75760405162461bcd60e51b815260040180806020018281038252602c815260200180615d4f602c913960400191505060405180910390fd5b6000612fe2836116c1565b9050806001600160a01b0316846001600160a01b0316148061301d5750836001600160a01b03166130128461078d565b6001600160a01b0316145b80610f8a5750610f8a81856129b8565b4290565b600081602001516001600160a01b031682600001516001600160a01b03161061305957600080fd5b81516020808401516040808601518151630b4c774160e11b81526001600160a01b039586166004820152928516602484015262ffffff1660448301525192861692631698ee8292606480840193919291829003018186803b1580156130bd57600080fd5b505afa1580156130d1573d6000803e3d6000fd5b505050506040513d60208110156130e757600080fd5b50519392505050565b604080516bffffffffffffffffffffffff19606086901b16602080830191909152600285810b60e890811b60348501529085900b901b60378301528251601a818403018152603a90920190925280519101205b9392505050565b6000808060001985870986860292508281109083900303905080613180576000841161317557600080fd5b508290049050613143565b80841161318c57600080fd5b6000848688096000868103871696879004966002600389028118808a02820302808a02820302808a02820302808a02820302808a02820302808a02909103029181900381900460010186841190950394909402919094039290920491909117919091029150509392505050565b604080516000808252602082019092526001600160a01b0384169083906040518082805190602001908083835b602083106132455780518252601f199092019160209182019101613226565b6001836020036101000a03801982511681845116808217855250505050505090500191505060006040518083038185875af1925050503d80600081146132a7576040519150601f19603f3d011682016040523d82523d6000602084013e6132ac565b606091505b50509050806108b1576040805162461bcd60e51b815260206004820152600360248201526253544560e81b604482015290519081900360640190fd5b600061133482613e5b565b6040805160608101825282516001600160a01b0390811682526020808501518216908301528383015162ffffff169282019290925260995460009283928392839261333f911682613031565b91506000826001600160a01b0316633850c7bd6040518163ffffffff1660e01b815260040160e06040518083038186803b15801561337c57600080fd5b505afa158015613390573d6000803e3d6000fd5b505050506040513d601f19601f820116820180604052508101906133b49190615608565b505050505050905060006133cb8860800151613e5f565b905060006133dc8960a00151613e5f565b90506133f38383838c60c001518d60e00151614191565b9750505050816001600160a01b0316633c8a7d8d876060015188608001518960a00151896040518060400160405280888152602001336001600160a01b03168152506040516020016134459190615a4f565b6040516020818303038152906040526040518663ffffffff1660e01b81526004016134749594939291906157f1565b6040805180830381600087803b15801561348d57600080fd5b505af11580156134a1573d6000803e3d6000fd5b505050506040513d601f19601f820116820180604052508101906134c591906156ef565b610100880151919550935084108015906134e457508561012001518310155b6135005760405162461bcd60e51b81526004016107b4906159d2565b509193509193565b826001600160a01b031661351b826116c1565b6001600160a01b0316146135605760405162461bcd60e51b8152600401808060200182810382526029815260200180615e566029913960400191505060405180910390fd5b6001600160a01b0382166135a55760405162461bcd60e51b8152600401808060200182810382526024815260200180615d056024913960400191505060405180910390fd5b6135b08383836108b1565b6135bb600082612f1b565b6001600160a01b03831660009081526065602052604090206135dd9082614255565b506001600160a01b03821660009081526065602052604090206136009082614261565b5061360d6066828461426d565b5080826001600160a01b0316846001600160a01b03167fddf252ad1be2c89b69c2b068fc378daa952ba7f163c4a11628f55a4df523b3ef60405160405180910390a4505050565b60006113318383614283565b4690565b600061366f826116c1565b905061367d816000846108b1565b613688600083612f1b565b6000828152606c602052604090205460026000196101006001841615020190911604156136c6576000828152606c602052604081206136c691614f6e565b6001600160a01b03811660009081526065602052604090206136e89083614255565b506136f46066836142e7565b5060405182906000906001600160a01b038416907fddf252ad1be2c89b69c2b068fc378daa952ba7f163c4a11628f55a4df523b3ef908390a45050565b600080808061374086866142f3565b909450925050505b9250929050565b6000610f8a84848461436e565b6000908152609d6020526040902080546bffffffffffffffffffffffff19811660016001600160601b039283169081019092161790915590565b3b151590565b6001600160a01b0382166137f7576040805162461bcd60e51b815260206004820181905260248201527f4552433732313a206d696e7420746f20746865207a65726f2061646472657373604482015290519081900360640190fd5b61380081612f0a565b15613852576040805162461bcd60e51b815260206004820152601c60248201527f4552433732313a20746f6b656e20616c7265616479206d696e74656400000000604482015290519081900360640190fd5b61385e600083836108b1565b6001600160a01b03821660009081526065602052604090206138809082614261565b5061388d6066828461426d565b5060405181906001600160a01b038416906000907fddf252ad1be2c89b69c2b068fc378daa952ba7f163c4a11628f55a4df523b3ef908290a45050565b6001600160a01b0382166000908152609b60205260409020546001600160501b0316806113345750609e805460016001600160501b03600160b01b8084048216838101909216026001600160b01b03909316929092179092556001600160a01b038085166000908152609b60209081526040808320805469ffffffffffffffffffff191686179055848352609c825291829020865181549085166001600160a01b031991821617825591870151950180549287015162ffffff16600160a01b0262ffffff60a01b19969094169290911691909117939093161790915592915050565b60006139b88383613031565b9050336001600160a01b0382161461133457600080fd5b609a546001600160a01b0385811691161480156139ec5750804710155b15613ae057609a60009054906101000a90046001600160a01b03166001600160a01b031663d0e30db0826040518263ffffffff1660e01b81526004016000604051808303818588803b158015613a4157600080fd5b505af1158015613a55573d6000803e3d6000fd5b5050609a546040805163a9059cbb60e01b81526001600160a01b03888116600483015260248201889052915191909216945063a9059cbb9350604480830193506020928290030181600087803b158015613aae57600080fd5b505af1158015613ac2573d6000803e3d6000fd5b505050506040513d6020811015613ad857600080fd5b506126739050565b6001600160a01b038316301415613b0157613afc848383613d08565b612673565b61267384848484614438565b613b18848484613508565b613b2484848484614588565b6126735760405162461bcd60e51b8152600401808060200182810382526032815260200180615cac6032913960400191505060405180910390fd5b6000613b6a30613796565b15905090565b600054610100900460ff1680613b895750613b89613b5f565b80613b97575060005460ff16155b613bd25760405162461bcd60e51b815260040180806020018281038252602e815260200180615e06602e913960400191505060405180910390fd5b600054610100900460ff16158015613bfd576000805460ff1961ff0019909116610100171660011790555b613c0784846146f0565b83516020808601919091206097558251908301206098558015612673576000805461ff001916905550505050565b600054610100900460ff1680613c4e5750613c4e613b5f565b80613c5c575060005460ff16155b613c975760405162461bcd60e51b815260040180806020018281038252602e815260200180615e06602e913960400191505060405180910390fd5b600054610100900460ff16158015613cc2576000805460ff1961ff0019909116610100171660011790555b609980546001600160a01b038086166001600160a01b031992831617909255609a80549285169290911691909117905580156108b1576000805461ff0019169055505050565b604080516001600160a01b038481166024830152604480830185905283518084039091018152606490920183526020820180516001600160e01b031663a9059cbb60e01b1781529251825160009485949389169392918291908083835b60208310613d845780518252601f199092019160209182019101613d65565b6001836020036101000a0380198251168184511680821785525050505050509050019150506000604051808303816000865af19150503d8060008114613de6576040519150601f19603f3d011682016040523d82523d6000602084013e613deb565b606091505b5091509150818015613e19575080511580613e195750808060200190516020811015613e1657600080fd5b50515b612336576040805162461bcd60e51b815260206004820152600260248201526114d560f21b604482015290519081900360640190fd5b600061133183836147ad565b5490565b60008060008360020b12613e76578260020b613e7e565b8260020b6000035b9050620d89e8811115613ebc576040805162461bcd60e51b81526020600482015260016024820152601560fa1b604482015290519081900360640190fd5b600060018216613ed057600160801b613ee2565b6ffffcb933bd6fad37aa2d162d1a5940015b70ffffffffffffffffffffffffffffffffff1690506002821615613f16576ffff97272373d413259a46990580e213a0260801c5b6004821615613f35576ffff2e50f5f656932ef12357cf3c7fdcc0260801c5b6008821615613f54576fffe5caca7e10e4e61c3624eaa0941cd00260801c5b6010821615613f73576fffcb9843d60f6159c9db58835c9266440260801c5b6020821615613f92576fff973b41fa98c081472e6896dfb254c00260801c5b6040821615613fb1576fff2ea16466c96a3843ec78b326b528610260801c5b6080821615613fd0576ffe5dee046a99a2a811c461f1969c30530260801c5b610100821615613ff0576ffcbe86c7900a88aedcffc83b479aa3a40260801c5b610200821615614010576ff987a7253ac413176f2b074cf7815e540260801c5b610400821615614030576ff3392b0822b70005940c7a398e4b70f30260801c5b610800821615614050576fe7159475a2c29b7443b29c7fa6e889d90260801c5b611000821615614070576fd097f3bdfd2022b8845ad8f792aa58250260801c5b612000821615614090576fa9f746462d870fdf8a65dc1f90e061e50260801c5b6140008216156140b0576f70d869a156d2a1b890bb3df62baf32f70260801c5b6180008216156140d0576f31be135f97d08fd981231505542fcfa60260801c5b620100008216156140f1576f09aa508b5b7a84e1c677de54f3e99bc90260801c5b62020000821615614111576e5d6af8dedb81196699c329225ee6040260801c5b62040000821615614130576d2216e584f5fa1ea926041bedfe980260801c5b6208000082161561414d576b048a170391f7dc42444e8fa20260801c5b60008460020b131561416857806000198161416457fe5b0490505b64010000000081061561417c57600161417f565b60005b60ff16602082901c0192505050919050565b6000836001600160a01b0316856001600160a01b031611156141b1579293925b846001600160a01b0316866001600160a01b0316116141dc576141d58585856147c5565b905061424c565b836001600160a01b0316866001600160a01b0316101561423e5760006142038786866147c5565b90506000614212878986614828565b9050806001600160801b0316826001600160801b0316106142335780614235565b815b9250505061424c565b614249858584614828565b90505b95945050505050565b60006113318383614865565b6000611331838361492b565b6000610f8a84846001600160a01b038516614975565b815460009082106142c55760405162461bcd60e51b8152600401808060200182810382526022815260200180615c8a6022913960400191505060405180910390fd5b8260000182815481106142d457fe5b9060005260206000200154905092915050565b60006113318383614a0c565b8154600090819083106143375760405162461bcd60e51b8152600401808060200182810382526022815260200180615e346022913960400191505060405180910390fd5b600084600001848154811061434857fe5b906000526020600020906002020190508060000154816001015492509250509250929050565b600082815260018401602052604081205482816144095760405162461bcd60e51b81526004018080602001828103825283818151815260200191508051906020019080838360005b838110156143ce5781810151838201526020016143b6565b50505050905090810190601f1680156143fb5780820380516001836020036101000a031916815260200191505b509250505060405180910390fd5b5084600001600182038154811061441c57fe5b9060005260206000209060020201600101549150509392505050565b604080516001600160a01b0385811660248301528481166044830152606480830185905283518084039091018152608490920183526020820180516001600160e01b03166323b872dd60e01b178152925182516000948594938a169392918291908083835b602083106144bc5780518252601f19909201916020918201910161449d565b6001836020036101000a0380198251168184511680821785525050505050509050019150506000604051808303816000865af19150503d806000811461451e576040519150601f19603f3d011682016040523d82523d6000602084013e614523565b606091505b5091509150818015614551575080511580614551575080806020019051602081101561454e57600080fd5b50515b6124d3576040805162461bcd60e51b815260206004820152600360248201526229aa2360e91b604482015290519081900360640190fd5b600061459c846001600160a01b0316613796565b6145a857506001610f8a565b60006146b6630a85bd0160e11b6145bd612f17565b88878760405160240180856001600160a01b03168152602001846001600160a01b0316815260200183815260200180602001828103825283818151815260200191508051906020019080838360005b8381101561462457818101518382015260200161460c565b50505050905090810190601f1680156146515780820380516001836020036101000a031916815260200191505b5095505050505050604051602081830303815290604052906001600160e01b0319166020820180516001600160e01b038381831617835250505050604051806060016040528060328152602001615cac603291396001600160a01b0388169190614ae0565b905060008180602001905160208110156146cf57600080fd5b50516001600160e01b031916630a85bd0160e11b1492505050949350505050565b600054610100900460ff16806147095750614709613b5f565b80614717575060005460ff16155b6147525760405162461bcd60e51b815260040180806020018281038252602e815260200180615e06602e913960400191505060405180910390fd5b600054610100900460ff1615801561477d576000805460ff1961ff0019909116610100171660011790555b614785614aef565b61478d614b91565b6147978383614c2e565b80156108b1576000805461ff0019169055505050565b60009081526001919091016020526040902054151590565b6000826001600160a01b0316846001600160a01b031611156147e5579192915b6000614808856001600160a01b0316856001600160a01b0316600160601b61314a565b905061424c61482384838888036001600160a01b031661314a565b614d13565b6000826001600160a01b0316846001600160a01b03161115614848579192915b610f8a61482383600160601b8787036001600160a01b031661314a565b60008181526001830160205260408120548015614921578354600019808301919081019060009087908390811061489857fe5b90600052602060002001549050808760000184815481106148b557fe5b6000918252602080832090910192909255828152600189810190925260409020908401905586548790806148e557fe5b60019003818190600052602060002001600090559055866001016000878152602001908152602001600020600090556001945050505050611334565b6000915050611334565b600061493783836147ad565b61496d57508154600181810184556000848152602080822090930184905584548482528286019093526040902091909155611334565b506000611334565b6000828152600184016020526040812054806149da575050604080518082018252838152602080820184815286546001818101895560008981528481209551600290930290950191825591519082015586548684528188019092529290912055613143565b828560000160018303815481106149ed57fe5b9060005260206000209060020201600101819055506000915050613143565b600081815260018301602052604081205480156149215783546000198083019190810190600090879083908110614a3f57fe5b9060005260206000209060020201905080876000018481548110614a5f57fe5b600091825260208083208454600290930201918255600193840154918401919091558354825289830190526040902090840190558654879080614a9e57fe5b60008281526020808220600260001990940193840201828155600190810183905592909355888152898201909252604082209190915594506113349350505050565b6060610f8a8484600085614d29565b600054610100900460ff1680614b085750614b08613b5f565b80614b16575060005460ff16155b614b515760405162461bcd60e51b815260040180806020018281038252602e815260200180615e06602e913960400191505060405180910390fd5b600054610100900460ff16158015614b7c576000805460ff1961ff0019909116610100171660011790555b8015614b8e576000805461ff00191690555b50565b600054610100900460ff1680614baa5750614baa613b5f565b80614bb8575060005460ff16155b614bf35760405162461bcd60e51b815260040180806020018281038252602e815260200180615e06602e913960400191505060405180910390fd5b600054610100900460ff16158015614c1e576000805460ff1961ff0019909116610100171660011790555b614b7c6301ffc9a760e01b614e84565b600054610100900460ff1680614c475750614c47613b5f565b80614c55575060005460ff16155b614c905760405162461bcd60e51b815260040180806020018281038252602e815260200180615e06602e913960400191505060405180910390fd5b600054610100900460ff16158015614cbb576000805460ff1961ff0019909116610100171660011790555b8251614cce90606a906020860190614fb2565b508151614ce290606b906020850190614fb2565b50614cf36380ac58cd60e01b614e84565b614d03635b5e139f60e01b614e84565b61479763780e9d6360e01b614e84565b806001600160801b03811681146106f257600080fd5b606082471015614d6a5760405162461bcd60e51b8152600401808060200182810382526026815260200180615d296026913960400191505060405180910390fd5b614d7385613796565b614dc4576040805162461bcd60e51b815260206004820152601d60248201527f416464726573733a2063616c6c20746f206e6f6e2d636f6e7472616374000000604482015290519081900360640190fd5b600080866001600160a01b031685876040518082805190602001908083835b60208310614e025780518252601f199092019160209182019101614de3565b6001836020036101000a03801982511681845116808217855250505050505090500191505060006040518083038185875af1925050503d8060008114614e64576040519150601f19603f3d011682016040523d82523d6000602084013e614e69565b606091505b5091509150614e79828286614f08565b979650505050505050565b6001600160e01b03198082161415614ee3576040805162461bcd60e51b815260206004820152601c60248201527f4552433136353a20696e76616c696420696e7465726661636520696400000000604482015290519081900360640190fd5b6001600160e01b0319166000908152603360205260409020805460ff19166001179055565b60608315614f17575081613143565b825115614f275782518084602001fd5b60405162461bcd60e51b81526020600482018181528451602484015284518593919283926044019190850190808383600083156143ce5781810151838201526020016143b6565b50805460018160011615610100020316600290046000825580601f10614f945750614b8e565b601f016020900490600052602060002090810190614b8e919061503e565b828054600181600116156101000203166002900490600052602060002090601f016020900481019282614fe8576000855561502e565b82601f1061500157805160ff191683800117855561502e565b8280016001018555821561502e579182015b8281111561502e578251825591602001919060010190615013565b5061503a92915061503e565b5090565b5b8082111561503a576000815560010161503f565b80356106f281615c33565b805161ffff811681146106f257600080fd5b803562ffffff811681146106f257600080fd5b600060208284031215615094578081fd5b813561314381615c33565b600080604083850312156150b1578081fd5b82356150bc81615c33565b915060208301356150cc81615c33565b809150509250929050565b6000806000606084860312156150eb578081fd5b83356150f681615c33565b9250602084013561510681615c33565b9150604084013561511681615c33565b809150509250925092565b60008060008060808587031215615136578182fd5b843561514181615c33565b9350602085013561515181615c33565b925061515f60408601615070565b9150606085013561516f81615c33565b939692955090935050565b60008060006060848603121561518e578081fd5b833561519981615c33565b925060208401356151a981615c33565b929592945050506040919091013590565b600080600080608085870312156151cf578182fd5b84356151da81615c33565b935060208501356151ea81615c33565b925060408501359150606085013567ffffffffffffffff81111561520c578182fd5b8501601f8101871361521c578182fd5b803561522f61522a82615be5565b615bc1565b818152886020838501011115615243578384fd5b81602084016020830137908101602001929092525092959194509250565b60008060408385031215615273578182fd5b823561527e81615c33565b915060208301356150cc81615c48565b600080604083850312156152a0578182fd5b82356152ab81615c33565b946020939093013593505050565b6000806000606084860312156152cd578081fd5b83356152d881615c33565b925060208401359150604084013561511681615c33565b60008060008060008060c08789031215615307578384fd5b863561531281615c33565b95506020870135945060408701359350606087013561533081615c7a565b9598949750929560808101359460a0909101359350915050565b6000806020838503121561535c578182fd5b823567ffffffffffffffff80821115615373578384fd5b818501915085601f830112615386578384fd5b813581811115615394578485fd5b86602080830285010111156153a7578485fd5b60209290920196919550909350505050565b6000602082840312156153ca578081fd5b81356001600160e01b031981168114613143578182fd5b6000602082840312156153f2578081fd5b813561314381615c56565b60006020828403121561540e578081fd5b815167ffffffffffffffff811115615424578182fd5b8201601f81018413615434578182fd5b805161544261522a82615be5565b818152856020838501011115615456578384fd5b61424c826020830160208601615c07565b600060808284031215615478578081fd5b50919050565b600060a08284031215615478578081fd5b600060c08284031215615478578081fd5b600081830360808112156154b2578182fd5b6040516040810167ffffffffffffffff82821081831117156154d057fe5b8160405260608412156154e1578485fd5b60a08301935081841081851117156154f557fe5b50826040528435925061550783615c33565b91825260208401359161551983615c33565b82606083015261552b60408601615070565b6080830152815261553e60608501615053565b6020820152949350505050565b60006101608284031215615478578081fd5b60006020828403121561556e578081fd5b813561314381615c65565b6000806040838503121561558b578182fd5b825161559681615c65565b60208401519092506150cc81615c65565b600080600080600060a086880312156155be578283fd5b85516155c981615c65565b80955050602086015193506040860151925060608601516155e981615c65565b60808701519092506155fa81615c65565b809150509295509295909350565b600080600080600080600060e0888a031215615622578485fd5b875161562d81615c33565b602089015190975061563e81615c56565b955061564c6040890161505e565b945061565a6060890161505e565b93506156686080890161505e565b925060a088015161567881615c7a565b60c089015190925061568981615c48565b8091505092959891949750929550565b6000602082840312156156aa578081fd5b61133182615070565b6000602082840312156156c4578081fd5b5035919050565b600080604083850312156156dd578182fd5b8235915060208301356150cc81615c33565b60008060408385031215615701578182fd5b505080516020909101519092909150565b60008060008060608587031215615727578182fd5b8435935060208501359250604085013567ffffffffffffffff8082111561574c578384fd5b818701915087601f83011261575f578384fd5b81358181111561576d578485fd5b88602082850101111561577e578485fd5b95989497505060200194505050565b600081518084526157a5816020860160208601615c07565b601f01601f19169290920160200192915050565b60020b9052565b6001600160801b03169052565b6000828483379101908152919050565b6001600160a01b0391909116815260200190565b600060018060a01b03871682528560020b60208301528460020b60408301526001600160801b038416606083015260a06080830152614e7960a083018461578d565b6001600160a01b03959095168552600293840b60208601529190920b60408401526001600160801b03918216606084015216608082015260a00190565b6001600160a01b039390931683526001600160801b03918216602084015216604082015260600190565b6000602080830181845280855180835260408601915060408482028701019250838701855b828110156158ed57603f198886030184526158db85835161578d565b945092850192908501906001016158bf565b5092979650505050505050565b901515815260200190565b90815260200190565b6001600160a01b03929092168252602082015260400190565b600293840b81529190920b60208201526001600160801b03909116604082015260600190565b600060208252611331602083018461578d565b6020808252600c908201526b139bdd08185c1c1c9bdd995960a21b604082015260600190565b6020808252602c908201527f4552433732313a20617070726f76656420717565727920666f72206e6f6e657860408201526b34b9ba32b73a103a37b5b2b760a11b606082015260800190565b602080825260149082015273507269636520736c69707061676520636865636b60601b604082015260600190565b60208082526010908201526f125b9d985b1a59081d1bdad95b88125160821b604082015260600190565b6020808252600b908201526a139bdd0818db19585c995960aa1b604082015260600190565b815180516001600160a01b03908116835260208083015182168185015260409283015162ffffff1692840192909252920151909116606082015260800190565b6001600160801b039390931683526020830191909152604082015260600190565b9384526001600160801b039290921660208401526040830152606082015260800190565b918252602082015260400190565b6001600160601b038d1681526001600160a01b038c811660208301528b811660408301528a16606082015262ffffff89166080820152600288900b60a08201526101808101615b3460c08301896157b9565b615b4160e08301886157c0565b8561010083015284610120830152615b5d6101408301856157c0565b615b6b6101608301846157c0565b9d9c50505050505050505050505050565b6000808335601e19843603018112615b92578283fd5b83018035915067ffffffffffffffff821115615bac578283fd5b60200191503681900382131561374857600080fd5b60405181810167ffffffffffffffff81118282101715615bdd57fe5b604052919050565b600067ffffffffffffffff821115615bf957fe5b50601f01601f191660200190565b60005b83811015615c22578181015183820152602001615c0a565b838111156126735750506000910152565b6001600160a01b0381168114614b8e57600080fd5b8015158114614b8e57600080fd5b8060020b8114614b8e57600080fd5b6001600160801b0381168114614b8e57600080fd5b60ff81168114614b8e57600080fdfe456e756d657261626c655365743a20696e646578206f7574206f6620626f756e64734552433732313a207472616e7366657220746f206e6f6e20455243373231526563656976657220696d706c656d656e7465724552433732315065726d69743a20617070726f76616c20746f2063757272656e74206f776e65724552433732313a207472616e7366657220746f20746865207a65726f2061646472657373416464726573733a20696e73756666696369656e742062616c616e636520666f722063616c6c4552433732313a206f70657261746f7220717565727920666f72206e6f6e6578697374656e7420746f6b656e4552433732313a20617070726f76652063616c6c6572206973206e6f74206f776e6572206e6f7220617070726f76656420666f7220616c6c4552433732313a2062616c616e636520717565727920666f7220746865207a65726f20616464726573734552433732313a206f776e657220717565727920666f72206e6f6e6578697374656e7420746f6b656e496e697469616c697a61626c653a20636f6e747261637420697320616c726561647920696e697469616c697a6564456e756d657261626c654d61703a20696e646578206f7574206f6620626f756e64734552433732313a207472616e73666572206f6620746f6b656e2074686174206973206e6f74206f776e4552433732313a20617070726f76616c20746f2063757272656e74206f776e65724552433732313a207472616e736665722063616c6c6572206973206e6f74206f776e6572206e6f7220617070726f766564a164736f6c6343000706000a",
  "linkReferences": {},
  "deployedLinkReferences": {}
}